:020000040002F8
:10600000E09C0020DD630200E5630200E76302001C
:10601000E9630200EB630200ED6302000000000090
:10602000000000000000000000000000EF6302001C
:10603000F163020000000000F3630200F563020058
:1060400059AA0200F5AA0200FDB10200F76302009E
:10605000F7630200F76302001567020061AB0200FC
:10606000F7630200D1AF0200F7630200F76302009A
:10607000F7630200F7630200F7630200F7630200B0
:10608000F763020051AB0200E1AA020011670200AF
:10609000A9AC0200F763020001AD0200F763020041
:1060A000F7630200F763020021B00200F763020009
:1060B000B1AA0200F7630200000000000000000027
:1060C000F7630200C1AA0200D1AA0200F76302002E
:1060D000F7630200F7630200F763020000000000AC
:1060E00000000000000000000000000000000000B0
:1060F00000000000000000000000000000000000A0
:10610000000000000000000000000000000000008F
:10611000000000000000000000000000000000007F
:10612000000000000000000000000000000000006F
:10613000000000000000000000000000000000005F
:10614000000000000000000000000000000000004F
:10615000000000000000000000000000000000003F
:10616000000000000000000000000000000000002F
:10617000000000000000000000000000000000001F
:10618000000000000000000000000000000000000F
:1061900000000000000000000000000000000000FF
:1061A00000000000000000000000000000000000EF
:1061B00000000000000000000000000000000000DF
:1061C00000000000000000000000000000000000CF
:1061D00000000000000000000000000000000000BF
:1061E00000000000000000000000000000000000AF
:1061F000000000000000000000000000000000009F
:10620000DFF80CD000F0BCF900480047E9EC0200D0
:10621000E09C002000B583B002900091019244F20E
:10622000010071466A4605F041FB03B000BD000065
:1062300030B450E8012F93B2C48923448489A34227
:1062400028BF1B1B0489A34202BFBFF32F8F00206E
:1062500007E0C3EA020340E80134002CE9D14FF023
:1062600001000A6030BC704750E8012FC2EA0242C8
:1062700040E801210029F7D1704730B450E8022FDF
:106280001FFAA2F3C488A34202BFBFF32F8F0020DE
:106290000DE0C48923448489A34228BF1B1BC2EAA2
:1062A000034340E80234002CE8D14FF001000A60BB
:1062B00030BC704750E8022FC2EA224240E8022177
:1062C0000029F7D17047034653E8022FD988B2EB73
:1062D000324F4FF0000017BF92B241EA014142EA4B
:1062E000014104E05A68B2EB324F08BF012043E895
:1062F0000212002AE8D1704730B4044654E8000F77
:106300000D4644E80053002BF8D1156030BC7047AF
:1063100030B4044654E8000F40EA010544E8005355
:10632000002BF7D1156030BC704730B4044654E8F8
:10633000000F00EA010544E80053002BF7D1156077
:1063400030BC704730B4044654E8000F80EA0105C1
:1063500044E80053002BF7D1156030BC704730B4CF
:10636000044654E8000F00EB010544E80053002BFD
:10637000F7D1156030BC704730B4044654E8000FC4
:10638000A0EB010544E80053002BF7D1156030BCA9
:10639000704770B404464FF0000054E8006F0D6879
:1063A000AE4207BF44E80023012044E800630E60CA
:1063B000002B1CBF0020F0E770BC704730B40446CF
:1063C00054E8000F88422CBF451A054644E80053A4
:1063D000002BF5D1156030BC70470000064880479F
:1063E00006480047FEE7FEE7FEE7FEE7FEE7FEE7BA
:1063F000FEE7FEE7FEE7FEE705AD020001620200F0
:10640000202A04DB203A21FA02F00021704721FA09
:1064100002F3D040C2F12002914008431946704770
:1064200040EA01039B0703D009E008C9121F08C016
:10643000042AFAD203E011F8013B00F8013B521E96
:10644000F9D27047D2B201E000F8012B491EFBD20D
:1064500070470022F6E710B513460A46044619466F
:10646000FFF7F0FF204610BD421C10F8011B002969
:10647000FBD1801A704710B5002200E0521C835CEB
:106480008C5CA34201D1002BF8D1D8B2E1B2401A02
:1064900010BD30B504460020034600E05B1C93426B
:1064A00003D2E05CCD5C401BF8D030BD30B5054672
:1064B0000020034600E05B1C934205D2EC5CC85C04
:1064C000201A01D1002CF6D130BD70B5064604F07B
:1064D000F7FE046805460A220021304600F018F84D
:1064E0002C6070BD30B50B460146002020220124EF
:1064F00009E021FA02F59D4205D303FA02F5491B92
:1065000004FA02F52844151EA2F10102F1DC30BDA7
:106510002DE9F04791460F4680460446002614F8C0
:10652000015B2DB100F03EF80068405DC007F6D178
:106530002B2D02D02D2D18D0641E4A4639462046F8
:1065400000F034F827B13968A14201D1C7F80080C2
:1065500071054FF002040BD54042002803DD04F022
:10656000AFFE0460A007BDE8F08746F48066E4E76C
:106570000028F8DA04F0A4FE04606FF00040F2E7AF
:10658000064C074D06E0E06840F0010394E8070080
:1065900098471034AC42F6D3FFF736FEE4690300A7
:1065A000046A030000487047986903002DE9F05F12
:1065B00082460078002715468B460AF10104B94649
:1065C000302801D09DB113E014F8010B0127782881
:1065D00003D0582801D045B10AE00DB1102D07D1E4
:1065E0000027102514F8010B02E0082500E00A2519
:1065F0000026B0460EE005FB080005FB06F101276A
:1066000001EB10461FFA80F8B6F5803F00D3B9467B
:1066100014F8010B294600F018F80028EBDABBF15A
:10662000000F05D00FB1641E00E05446CBF80040C7
:10663000B9F1000F06D004F043FE02210160C81E2C
:10664000BDE8F09F48EA0640FAE73A2800D2303821
:1066500020F02002412A01D3A2F13700884201D361
:106660004FF0FF30704770B58C1810F8015B15F0D3
:10667000070301D110F8013B2A1106D110F8012BB4
:1066800003E010F8016B01F8016B5B1EF9D12B07D9
:1066900005D40023521E0DD401F8013BFAE710F88F
:1066A000013BCB1A921C03E013F8015B01F8015B7C
:1066B000521EF9D5A142D8D3002070BD30B50024B8
:1066C0001FE000BF51F82450854219D2B4B101EB4C
:1066D000840351F8241053F8045C02EB840352F84D
:1066E000242053F8043C401A9C1A6043691AB0FBFA
:1066F000F1F01044984200D9184630BD106830BD02
:10670000641C9C42DED302EB830050F8040C30BDC5
:1067100001F074B82DE9F8430025DFF894804FF4B8
:10672000807601242F460095304609F0A5FD38B14A
:10673000D8F80403204203D0304609F093FD2543E6
:10674000361D64007F1CB6B2082FEDD34FF4BE7423
:10675000204609F091FD48B1204609F083FD45F03F
:1067600000456A460121002009F056FD15F0FF0F93
:1067700016D0012600242E420ED008EB8401D1F859
:106780001005D1F81015C0F304200A4AC1F30141E5
:1067900052F8242002B190477600641C082CEAD3FA
:1067A000002D02DA68460BF059F9BDE8F8830000C5
:1067B00000600040147E002008480068401E40F041
:1067C0000101074801610749096B012903D04FF016
:1067D000FF31416170470021FBE70000D42B00200E
:1067E000D03100200C77002030B589B0002852D07D
:1067F0002E49012008602E4D0024281D07C88DE871
:1068000007008DF802408DF80340694604200AF025
:10681000F9FA18B127A24C21FFF7FCFC05F1100092
:1068200003AB07C883E807008DF80E408DF80F40D2
:1068300003A905200AF0E6FA18B11EA25221FFF7BB
:10684000E9FC1C3506AB95E8070083E80700042047
:106850008DF81A008DF81B4006A907200AF0D2FA1D
:1068600018B114A25921FFF7D5FC03211B480AF0E7
:1068700077FA18B10FA25C21FFF7CCFC174803216F
:10688000801D0AF06DFA002803D00AA25D21FFF7EF
:10689000C1FC09B030BD124905480AF009FB0028C7
:1068A000A9D004A24321FFF7B5FCA4E7007500407E
:1068B000D83503002E2E5C2E2E5C2E2E5C2E2E5CE8
:1068C0002E2E5C2E2E5C2E2E5C2E2E5C2E2E5C2E02
:1068D0002E5C4C4C5F4144432E6300005234002038
:1068E0001D2303000AF02EBB044900200860044960
:1068F00001228A60C1F80401704700000075004061
:106900000070004010B50146064805F052FE18B16F
:1069100005A25921FFF77EFCBDE810400121014886
:1069200005F044BE507800202E2E5C2E2E5C2E2EBC
:106930005C6D61696E2E630010B50321054805F09A
:10694000EDFE002805D0BDE8104003A25D21FFF751
:1069500061BC10BD507800202E2E5C2E2E5C2E2E99
:106960005C6D61696E2E6300024890F8540074DF1C
:1069700070470000507800201FB500200190029061
:10698000039017480090174A6946174808F01CFE04
:1069900018B1164AFA21FFF73DFC15A20021124852
:1069A00008F092FD18B1114AFB21FFF733FC0022D9
:1069B0001F210D4808F0E5FD18B10C4AFD21FFF735
:1069C00029FC094808F024FF002807D004B0074A32
:1069D000BDE8104040F20111FFF71CBC1FBD0000D4
:1069E000B2310020952303006C4B00209C6903000A
:1069F0004C4D4D0010B5044608F02CFF084954B129
:106A000008488ADF00280AD0BDE81040064A4FF443
:106A10008B71FFF7FFBB03480E388ADFF2E710BD2A
:106A2000B84C0020C03100209C69030010B504461A
:106A300092B03C211748FFF70CFD3C216846FFF758
:106A400008FD02228DF80020012013498DF8020074
:106A500006238DF803300A7048708B700420ADF85F
:106A600040000C481191ADF83C400FA941620A4921
:106A700002820831416102466946A0F2344005F0C5
:106A800045FD002804D005A24FF43B71FFF7C2FB7F
:106A900012B010BD847C0020943200202E2E5C2E7B
:106AA0002E5C2E2E5C6D61696E2E630013B5044959
:106AB00001AA4B88014602482C3006F0C3FC1CBDDD
:106AC0007832002010B501221B21002001F034F89B
:106AD00001220521002001F02FF801F0F1FE4FF412
:106AE000A8510948FFF7B5FC084801240470FFF7D6
:106AF0003BFF162000F070FC05480021816380F800
:106B0000E8100448046010BDE84C0020D13100209A
:106B10000C770020683200202DE9FC41484D00260A
:106B20004FF4E168A878012710B101281ED10CE0CC
:106B3000684601F097FEC8B10098B8B901980128DD
:106B400014D1A878401CA87010E0684601F08AFEB5
:106B500060B1009850B9019840B9AE70687810B132
:106B6000012802D002E06F7000E06E70354869685D
:106B70000068814201D8411A01E0C94301444145FE
:106B80005BD368606878DFF8C08038BB2F48006846
:106B90004FF461614843C11700EB915081122C48BA
:106BA00000684FF461625043C21700EB92508012AC
:106BB000B1F57A7F03D9642801D2FF240EE0FF2CBF
:106BC00005D000F069F81421B0FBF1F0C4B22148FF
:106BD000816B19B114B18663C8F800704FF4A851E5
:106BE0001D48FFF736FC6878C0B9052C01D31C207E
:106BF00012E0042C07D0032C07D0022C07D0012C64
:106C000007D044B10AE01B2006E01A2004E0192056
:106C100002E0182000E0172000F0DEFB00F0B8F8DA
:106C200000280AD12E701E20C8F8007000F010FB5A
:106C30001E2000F0D1FB01F047F9BDE8FC81000007
:106C40009C2D0020D42B002068320020DC2B00205B
:106C5000E02B00200C770020E861002000230122B7
:106C60000421184600F016BF00F092B810B50023BA
:106C700002221E21184600F039FF01221E210020A9
:106C800000F05AFF034C204604F0E0F94FF0FF30CB
:106C9000206110BDC04A002030B5174889B04FF0C0
:106CA000FF310469621C05D102681AB3C368B3FBE3
:106CB000F2F40461601C1DD0FFF7D6FF0F4948B104
:106CC0002DC98DE82D000FC904AD85E80F00042300
:106CD00004AA09E0203103AD0DC98DE80D0007C9F4
:106CE00085E80700032303AA69462046FFF7E6FC70
:106CF00009B030BD0846FBE7C04A00207C360300DF
:106D000070B5FFF7B1FF1D4D1D490446286809689D
:106D1000884201D8081A01E0C0430844322802D949
:106D20002960FFF7DFFD174869680268914224D0A7
:106D3000006868601448006814494A68824200D2BA
:106D400048608A68824200D98860CA680244CA6082
:106D50000868431C0B60B0F5166F0ED3B2FBF3F05E
:106D60000A6914B1824202D302E0824200D908616A
:106D7000BDE87040054804F069B970BD942D00204D
:106D8000D42B0020E42B0020D82B0020C04A002068
:106D900010B50421002000F09FFE08B1002010BDB6
:106DA000012010BD10B5002001F048FE014900206F
:106DB000886210BDD0310020104810B5807838B1FD
:106DC000012801D002280FD1BDE8104000F01CB806
:106DD0000B480A4C406B443C00284FF0000004D0A4
:106DE00001F02CFE0020A06210BD01F027FE054836
:106DF0000068401E40F00100F5E70000143200205A
:106E00000C770020D42B002070B51448144C406B34
:106E100050B10025012811D0022813D0032819D021
:106E2000002001F00BFE13E0002001F007FE0D48EA
:106E30000068401E40F00100A06270BD7D2140F25C
:106E4000771202E07D2140F25372002001F08CFDA8
:106E5000A56270BD7D2140F62372F6E70C77002015
:106E6000D0310020D42B0020024800210160416075
:106E700070470000CC2B0020014AC2E90001704796
:106E8000CC2B002001480068704700000415014029
:106E900007480068074906C9884201D3401A03E041
:106EA0006FF07F43591A0844104420F07F40704728
:106EB00004150140CC2B002002490A680249C1E9AF
:106EC0000020704704150140CC2B00202DE9F0472D
:106ED00017460C465FEA000955D0002C53D0302CE1
:106EE00051DC002523E000BF05EB4500C0EB451059
:106EF00007EB8006301D7021FFF7ABFA0020C5EBD1
:106F0000C501224B09EB81028446115C0E2906D291
:106F100006EB800853F82110C8F8041003E006EBD4
:106F20008001C1F804C0401C1C28EEDB6D1CA5428A
:106F3000DADB302090FBF4F0C3B2012B23D901221D
:106F40001FE000211AE001EB4105C5EB411507EBFD
:106F5000850604FB021505EB450CCCEB451500201E
:106F600007EB850506EB800C05EB8008DCF804C018
:106F7000401CC8F804C01C28F4DB491CA142E2DB19
:106F8000521C9A42DDDBBDE8F0870000A8650300D3
:106F90002DE9F04791460E4607002AD0002E28D052
:106FA000302E26DC002422E004EB4400C0EB441128
:106FB00009EB8105281D7021FFF74BFA0020C4EB77
:106FC000C4010D4B07EB81028446115C112906D2E6
:106FD00005EB800853F82110C8F8041003E005EB16
:106FE0008001C1F804C0401C1C28EEDB641CB442C4
:106FF000DADBBDE8F0870000E06503002DE9FF5F04
:1070000091460E9F0C465FEA000A45D0002C43D003
:10701000002527E005EB4500C0EB451109EB810693
:10702000301D7021FFF715FA0020C5EBC501264A77
:107030000AEB81038346195CA1F1010CBCF10D0F31
:1070400008D206EB800852F821C0C8F804C052F8F4
:10705000218003E006EB800CCCF804B0401C1C2817
:10706000E9DB6D1CA542D5DB0398012812D0C7F1DE
:107070001C0125E004EB4401C1EB4411002009EBA5
:10708000810104E001EB8003401CC3F80480B84296
:10709000F8D3641C302CEDDBBDE8FF9F04EB440209
:1070A000C2EB44121B2009EB820204E002EB8005D4
:1070B000401EC5F80480814201D80028F6DA641C1D
:1070C000302CEBDBE8E70000A8650300F0B50E4DBF
:1070D0000024264648F20E0148F2060205F1540744
:1070E00007202B78C34013F0010F01D00B4600E0BE
:1070F000134627F83430401E04F10104F1D56D1C0D
:10710000761C542EECDBF0BD84340020F0B50F4C1F
:107110000026354648F20E0148F2060204F15407F3
:1071200007202378C34013F0010F01D00B4600E085
:10713000134607EBC60C401EACF8023006F1010600
:10714000EFD5641C6D1C542DEADBF0BD84340020A7
:10715000084810B5417851B100214170012300F178
:107160001C011A46143009F0A3FD002010BD1120A7
:1071700010BD0000E82B002070B50E4B0E4AC0EB8E
:10718000C000002103EB001303EB810001EB41057C
:107190008068AC18060C6670060A491C5655C9B2C0
:1071A000A0701C29F0D3FFF791FFBDE8704000F0FC
:1071B00041B80000E04C00208434002030B5034684
:1071C00000201B2B00D9072001B1072003EB43044B
:1071D000054B01EB410123445C18150C6570150A41
:1071E0005D54A27030BD00008434002070B50F4B98
:1071F0000F4AC0EBC000002103EB001303EB81003A
:1072000000F5805001EB4105D0F80805AC18060CDC
:107210006670060A491C5655C9B2A0701C29EDD3E8
:10722000FFF774FFBDE8704000F004B8E04C0020A8
:107230008434002010B50024002211462046FFF7B8
:10724000BDFF002803D1641CE4B21C2CF4D310BD94
:107250002DE9F041ADF5B05D044601AD4FF4AE51FE
:107260002846FFF7F6F84F484FF4A8563146074630
:10727000FFF7EFF822464C484A4C0F210C230068D8
:10728000083C1F2A14D2DFE802F0101010171B1F51
:1072900026132B133036585F666D72777B84137F0D
:1072A00013131313131313896600012000F0A8F9B8
:1072B0000DF5B05DBDE8F081012001F0D5FCF7E7E8
:1072C00021802A46394803E0102121802A46384887
:1072D000FFF7FCFD17E00121002001F0CBFBE7E701
:1072E0000121344801F044FCE2E7218000900123B1
:1072F0002A46314805E013212180009001232A46C7
:107300002E48FFF77BFE002000EB4002C2EB40124C
:1073100005EB8203C0EBC002002104EB021200BFA8
:1073200003EB810602EB81077668491CBE601C29CD
:10733000F6DB401C3028E7DBBAE7152121800090FE
:1073400001232A461E48DCE71921218000900123F1
:107350002A461C48D5E73020208031463846FFF7C2
:1073600078F8A5E723802A4619461748B0E7238016
:107370002A4619461548ABE7012001F055FD97E76D
:10738000012001F0B5FD93E71C2121802A46104819
:107390009EE7012121802A460E4899E701F018FD59
:1073A00086E70000E84C002010320020545E030005
:1073B000112E002005060C00644C0300084E03004B
:1073C0001C50030068520300F8360300983903008C
:1073D00044460300383C03002DE9F047ADF5B05DAD
:1073E000074601AD4FF4AE512846FFF732F8714819
:1073F0004FF4A85949468246FFF72BF86E480F21F3
:107400000C23302600686D4C4FF0100C4FF0010833
:107410001F2F15D2DFE807F0101010181D212914B6
:107420003014363C464D545C61666A73796E7FA2B7
:10743000A8AEB3B9BEC4C7006680022000F0E0F871
:107440000DF5B05DBDE8F0876680022001F00CFC10
:10745000F6E761802A465A4804E06146A4F802C073
:107460002A465848FFF732FD5BE0A4F802C002212B
:10747000002001F0FFFAE3E702214FF4302001F091
:1074800077FBDDE76180009002232A464E4805E045
:1074900013216180009002232A464C48FFF7AEFD7D
:1074A00066803EE015216180009002232A4648480C
:1074B000F4E719216180009002232A464548EDE750
:1074C00049465046FEF7C5FF01F02AFC6080B7E749
:1074D000194663802A464048C4E7194663802A4615
:1074E0003E48BFE7022001F09FFCA9E7022001F01F
:1074F000FFFCA5E71C2161802A463948B2E74146D6
:10750000A4F802802A463748ACE70221354861805A
:107510002A461C30A6E7252161802A463248FFF71B
:1075200037FD002101EB4102C2EB4112C1EBC10367
:10753000002005EB820204EB031300BF02EB800680
:10754000776803EB800606F58056401CC6F8087580
:107550001C28F3DB491C3029E4DB71E718212148A2
:1075600061802A4654307DE76146A4F802C02A466D
:107570001E4877E7194663802A461D4872E7614630
:10758000A4F802C02A461B486CE7194663802A46C5
:10759000194867E74146A4F802802A46174861E780
:1075A00001F016FC4CE7668049465046FEF751FF55
:1075B00046E70000E861002010320020E04C002087
:1075C000F85F0300D12F002024550300C8560300A4
:1075D000DC580300285B030048380300E83A030046
:1075E00054490300543C03009C610300483F0300DE
:1075F0000841030058420300184403006845030093
:107600002DE9F05FDFF8B0A006460C2530249AF88B
:107610002600012E1FD0022102F0EEFEDFF89CB002
:107620008146002101FB05F0B0FBF4F2B4FBF5F05C
:10763000B1FBF0F300FB1310530029FA03F212F030
:1076400003034FF000020AD0012B06D0022B04D016
:10765000032B04D102E00121DEE700B901229AF8F0
:107660002670C1EBC10C07EB47070AEB870300202C
:107670000BEB0C17012E03D06AB1D3F888C00CE0D5
:1076800012B1D3F884C001E04FF0000C07EB800882
:10769000C8F808C007E04FF0000C07EB800808F5B9
:1076A0008058C8F808C5401C1C28E3D3491CA142D7
:1076B000B8D3BDE8F09F00000C770020E04C00201C
:1076C00070B515460C460A468AB001461E460DF1B5
:1076D0000500FEF7A5FE8DF800408DF801508DF8ED
:1076E0000360684608F0B4FB0AB070BD254A10B5C7
:1076F0001078052807D02448C178491CC17051680A
:10770000012909D020E0214808F03AFA80BB1F483F
:10771000001D08F06DFA32E04178A9B91C4B1D49F3
:107720001A6809688A4201D88A1A01E0D2430A44D9
:10773000B2F5FA7F08D38278521CD2B28270022A44
:1077400001D3002282701960134C94F8E51099B1AE
:1077500004F1E10008F014FA002811D194F8E000D7
:10776000012806D00D4800BF08F042FA002807D1D2
:1077700005E00648001DF7E7807800F011F80020CA
:1077800010BD0000143200207C2C002010360300B5
:10779000E4320020D42B00200C7700204D34002050
:1077A00070B5134D01228240E97D114211D000EBEA
:1077B000C0004419601D08F0E3F9002808D195F8CD
:1077C000E000012811D004F1090000BF08F010FA10
:1077D00070BD0748E13008F0D3F90028F8D195F8DA
:1077E000E000012801D00348F0E70348EEE700007D
:1077F0000C7700204D3400201436030003F024B829
:10780000F0B5184E002404EB4405002306EBC50533
:1078100055F8237087421AD10C7053B1012B0AD04E
:10782000022B0AD0032B0AD0042B0AD0052B0AD036
:107830000BE0002008E01E2006E0322004E0462095
:1078400002E05A2000E0FF2010700120F0BD5B1C18
:10785000DBB2062BDCD3641CE4B2082CD3D30020AB
:10786000F0BD000084450300F0B5334C8DB001201D
:107870006070A070E070314806F04EFE06F03EFDEC
:1078800000E041DF20780028FBD014216846FEF795
:10789000E0FD684606F058FE00250595069507951B
:1078A000089508AB05AA47F2100148F210000995A7
:1078B00006F0DEFDD0B10AF0B9FF1F48EC222049E6
:1078C000001DFEF7ADFD65701E4905A806F020FEFF
:1078D000BDF8040001282DD9E57005A806F0A6FD25
:1078E00000264FF47A77E078B0B90EE00A950AA93D
:1078F00005A80B9506F0C4FDEC2211480B99FEF784
:107900008FFD05A806F06EFDE2E7012007F0C4FF39
:10791000761CB6B2BE42E6D3A57006F0CFFC0025B9
:10792000A078002806D1012007F0B6FF6D1CADB28B
:10793000BD42F5D30DB0F0BDA42C002085E20200BD
:107940000C77002028360300F0B58BB0002400949B
:10795000019402940894EC221F4920480994FEF7F0
:107960005FFD08AB6A4647F2100148F2100006F0CE
:107970007FFD00282DD1194D2D1F6C7018496846C8
:1079800006F0BEFDA0F5064106391BD1AC7006F02D
:1079900095FC00264FF47A77A87830B9012007F0DB
:1079A0007BFF761CB6B2BE42F6D3A8780D4E30B13E
:1079B0006C700B49684606F0A3FD346002E00120BC
:1079C00068703060142103A8FEF743FD03A806F099
:1079D000BBFD0BB0F0BD00000C770020A82C0020F0
:1079E0002836030068320020F0B58BB000250095E2
:1079F000019502950895EC22204921480995FEF74A
:107A00000FFD08AB6A4647F2100148F2100006F07D
:107A10002FFD00282FD11A4C241F65701949684684
:107A200006F06EFDA0F5064106391DD1A57006F0E1
:107A300045FC002640F6A427A07830B9012007F0C5
:107A40002BFF761CB6B2BE42F6D365700D49684670
:107A500006F056FD0025607830B9012007F01CFFC4
:107A60006D1CADB2BD42F6D3142103A8FEF7F1FCA4
:107A700003A806F069FD0BB0F0BD00000C770020F4
:107A8000A82C0020283603000148407870470000E9
:107A9000A42C00201CB508460021012A02D0022A8D
:107AA00003D101E0032100E00121022B09D0012BC9
:107AB00009D00B46002100910A46019108F063FBB2
:107AC0001CBD022200E0032208F08AFBBDE81C4036
:107AD000012007F0D1BE00000348006801228A405F
:107AE0001040C840704700001005005010B5114C00
:107AF0000120884020600024012A02D0022A03D1FC
:107B000001E0032400E00124890001F5E06101F1B6
:107B1000A0410A6822F00C020A600A6842EA840264
:107B20000A60012B03D003490C39086010BD0149DC
:107B30001039FAE71805005001208840012A02D0C8
:107B40000249086070470149091FFAE70C05005017
:107B50002DE9F0470024924689462346FF2804D0A9
:107B6000642805D34FF0040206E04FF0050203E05D
:107B70004FF01401B0FBF1F2DFF86080D9F800702B
:107B8000DAF800604FF0000101EB41054FF0000012
:107B900008EBC50555F820C0BC4500D10C46B445DE
:107BA00000D10B46401CC0B20628F3D3491CC9B211
:107BB0000829E9D304EB440008EBC00050F8221078
:107BC00003EB430008EBC000C9F8001050F8221086
:107BD0000120CAF80010BDE8F087000084450300CA
:107BE000F0B5082800D3072000240F4D0E68234667
:107BF00003EB4307002205EBC70700BF57F822C07D
:107C0000B44500D11446521CD2B2062AF6D35B1CEE
:107C1000DBB2082BECD300EB400005EBC00050F8C2
:107C2000240008600120F0BD8445030030B5002227
:107C300002704FF08052136E4370136E1B0A8370F4
:107C4000136E1B0CC370136E1B0E0371536E4371C6
:107C5000536E1B0A8371536E1B0CC371526E00234B
:107C6000120E02721F241A46855C521C03FB045339
:107C7000092AF9D30B6030BD70B53B4D3B4E3C4CEF
:107C8000AA78B1788A4221D02046406B92B1012A6D
:107C900002D0022A1AD105E0042817D03449B231A3
:107CA000002004E0042811D031490020BC3100F04C
:107CB00073FE0BE0042809D0012904D12C490020CF
:107CC000C63100F069FEB07802280BD0287805286C
:107CD00044D0A878012809D002280CD0E8780128DF
:107CE0000ED010E02249D0310020E0E70F20FFF74E
:107CF000AFFA0F2030E01020FFF7AAFA10202BE097
:107D0000206B012806D06878D8B101281CD0022841
:107D100024D11CE094F82600022102F06DFB6FF0E4
:107D20007F4188424FF0130003D1FFF791FA1420EE
:107D300002E0FFF78DFA1320FFF74EFB00F088FDFD
:107D40000CE014F8270F04E014F8280F01E014F8F1
:107D5000290FFFF77DFAE078FFF73EFBD5E9000138
:107D6000C6E9000170BD0000143200201C32002062
:107D70000C770020084910B506200870074890F8D5
:107D8000A400182804D100221031054802F050FE4A
:107D9000BDE81040FFF706B8143200200C77002031
:107DA000E876002070B5012205210020FFF7C4FE0F
:107DB0001F4903200870FEF76FFF1D4CC0B2443C02
:107DC000502803D91C200D2520640EE03C2803D93F
:107DD00015200C25206408E0282803D912200B2543
:107DE000206402E00C200A252064124E96F8A400BC
:107DF000182805D10E49012210310F4802F018FE53
:107E0000B06B01280BD00D4900206070888096F877
:107E100026002846FFF71CFA2846FFF7DDFA002265
:107E20000749084802F004FE07480068E06370BD97
:107E3000143200200C770020E8760020E04C00206F
:107E4000D0360300E44A0020D42B0020074900204C
:107E500008708870C8704439D1E9112388630448D8
:107E6000C1E913230068C863704700001432002082
:107E7000D42B002070B5104C0420207061780120B4
:107E80000025A1B1012914D065700C4A617882F8EF
:107E900026100B49086002F0D9FAE570FFF7ECFEF6
:107EA00005480849443885630968C16370BD60703E
:107EB000EBE702216170E8E7143200200C77002024
:107EC00068320020D42B002007490720084A087098
:107ED000054800214438816304490968C1630121D0
:107EE000116002210170704714320020D42B002051
:107EF00068320020104810B5042101700F49012498
:107F0000446091F826104170FFF7B6FE00220C493C
:107F10000C4802F08DFD00220B490C4802F088FD50
:107F20000B4802F08FFD0448002144388163094961
:107F30000968C163047010BD143200200C77002062
:107F4000DC360300E44A002000670300D04C002028
:107F5000C04C0020D42B002070B515480521012508
:107F60000170002445608470C470FFF785FE40F204
:107F70000110FEF75BFD04F0EBF80820FFF768F94D
:107F80000820FFF729FA00220A490B4802F050FDA9
:107F9000621E0A490A4802F04BFD0A4802F052FDEF
:107FA00003480949443884630968C163057070BD9A
:107FB00014320020DC360300E44A0020B0660300DF
:107FC000D04C0020C04C0020D42B002070B51248AB
:107FD000114C01250570443C0020A0630F48006847
:107FE000E06300F06DFC0023657002220321184657
:107FF000FFF77CFD012203210020FFF79DFD0122F8
:1080000005210020FFF798FDBDE8704001221B21EB
:108010000020FFF791BD000014320020D42B002077
:10802000084910B502200870012205210020FFF741
:1080300083FD044800214438416381630249096893
:10804000C16310BD14320020D42B00202DE9F04173
:108050003C4E0027A6F144043078082828D2DFE8F7
:1080600000F004070A0D1013162500F0BFF81FE0FA
:1080700000F0CAFA1CE000F053FB19E000F070F8C1
:1080800016E000F0ABF913E000F058FA10E02E48CB
:10809000677087800E20FFF7DBF80E20FFF79CF952
:1080A0002A48006820B9FFF70FFF01E000F0E8F868
:1080B000274802F057FC274802F054FC234802F0FE
:1080C00051FC254DA06AA0B12968884201D8081A40
:1080D00001E0C04308447D2803D2002000F0BCFC2E
:1080E00007E0B0F5FA7F03D2002000F0A7FC00E023
:1080F000A762F07828B1E16A2868814204D8401A62
:1081000004E02868E06207E0C9430844B0F5FA6F6C
:1081100002D9F770FFF7B0FDB07828B1206B29685D
:10812000884205D8081A05E028682063BDE8F08178
:10813000C043084409498842F8D9B770BDE8F04106
:10814000FFF79ABD14320020E04C0020E8760020B2
:10815000E44A0020D44A0020D42B0020C0D40100DF
:108160001CB51D480068002818D11C48006800286C
:1081700014D11B48806B01280CD01A4C6078002861
:108180000CD0E06858B1684600F06CFB68B100980C
:1081900040B10AE000F010FFFFF796FE1CBDFFF7AC
:1081A000A9FE1CBD01980028F9D00F48E16B0068BA
:1081B000814201D8401A01E0C9430844B0F5FA6F82
:1081C000EFD9002000F05EFBE0680028E7D0002037
:1081D000E060FFF7C1FE1CBDE8760020E44A002005
:1081E0000C770020D0310020D42B00207CB5214812
:1081F000007810B1FEF790FC7CBD1F4C1F4DA06BAA
:1082000040B10128F8D1684600F02CFB10B300986B
:10821000F0B11FE0684600F025FB48B1009838B97E
:108220000198012804D12868E063A06B401CA0637A
:10823000E06B2968884201D8081A01E0C04308446D
:10824000B0F5FA6FD8D902F0A5F902F011FA7CBDA9
:10825000019858B1E06B2968884201D8081A01E0FA
:10826000C0430844B0F5FA7FF1D90120E060FFF780
:1082700099FD7CBD9C2D0020D0310020D42B002006
:10828000F0B54B4C4B4D2046D4F838C0C26B2B6830
:10829000D043991A484E85B04FF4FA771844BCF190
:1082A000070F3CD2DFE80CF0040910282F3D4500F1
:1082B00042A1684602F0A8FF12E09A4200D80846A0
:1082C000B8422CD9022029E0FEF7E6FC02463CA188
:1082D000684602F099FF6846FEF7C6F8ADF8100050
:1082E0006846FEF7C1F8ADF81000338804AA694665
:1082F000354805F0A7F80DE09A4200D80846B84284
:108300000DD904200AE03088A0F57F41FF3901D063
:10831000132176DF2868E063A06B401CA06305B0E2
:10832000F0BD9A4200D80846B0F5FA6FF7D906209A
:10833000F4E7264CD4E90101FFF7CEFB0128EED18A
:10834000234890F8E810012901D0806B20B102F099
:1083500021F902F08DF9E2E702F0C4F81D4D1E4E3E
:10836000012700BF07F0BEFFD4E90101FFF7B4FB0E
:10837000E168884200D02F70307829780843F1D026
:1083800000F09EFA0A4F28780024443728B12C7058
:1083900002F03CF9BC70FFF759FD30780028BED0E0
:1083A000347002F033F9BC70FFF7FCFCB7E7000053
:1083B000D0310020D42B00207A32002044534300D7
:1083C000424C3A2575000000A4320020BC2D00204C
:1083D0000C770020CE310020B03100202DE9FC4187
:1083E0004B4C4C4F4C4DA06B4FF4FA78002610B11B
:1083F000012850D10EE0684600F034FA88B30098A6
:1084000078BB0198012846D12868E063A06B401C26
:10841000A06340E0684600F025FA18B1009808B95A
:10842000019828B1E16B286881421BD8401A1BE0F3
:10843000A1692868814201D8401A01E0C943084473
:10844000404509D2002235493548E66102F0F0FA8C
:10845000344802F0F7FA01E00120E061A6632868E1
:10846000A06118E0C9430844B0F5FA6F13D90020A1
:1084700000F008FA00222C49294802F0D9FA2948CC
:1084800002F0E0FA97F8E600012802D1274903201C
:108490000870FFF76FFC1E4897F8261044304278AA
:1084A0008A4206D04170C670FFF7E6FBA6632868D3
:1084B000E063E069012802D0022819D01FE0A0691A
:1084C0002968884201D8081A01E0C04308444045A1
:1084D00015D9FFF7CFFC02F0C1FD00221449104866
:1084E00002F0A6FA0F4802F0ADFA0220E06106E0C1
:1084F0000749002274310F4802F09AFAE6610E48EB
:108500000078012801D1FFF735FCBDE8FC810000AF
:10851000D03100200C770020D42B00203C670300D2
:10852000D04C0020C04C00206C670300FC2D0020C4
:1085300018670300E8760020793200207CB52D4CC6
:108540002D4DA06B10B101284DD10EE0684600F012
:1085500089F978B3009868BB0198012843D128684D
:10856000E063A06B401CA0633DE0684600F07AF930
:1085700018B1009808B9019828B1E06B29688842C1
:1085800027D8081A27E0206A0021401C2062012811
:1085900005D0626A2B689A4204D89A1A04E02868C7
:1085A000606212E0D2431A4441F288339A4202D9FF
:1085B00021620AE017E0052807D3104A2162104B18
:1085C000156B01201DB111631860A1630BE01063EE
:1085D000FAE7C0430844B0F5FA6F04D9002000F070
:1085E00051F9FFF7C7FB07480078012801D1FFF7D1
:1085F000C1FB7CBDD0310020D42B00200C770020A3
:1086000068320020793200207CB5FEF745FB3E49F8
:1086100009684FF461625143CA1701EB92518A1203
:108620003A4909684FF461635943CB1701EB935101
:1086300089124FF47A754FF4C843AA4205D96429C8
:108640000CD3A94201D9324C09E0642A07D2A942CD
:1086500005D9142802D84FF4C80400E01C462D4D5B
:108660000021C1EBC102002005EB021303EB8002E5
:10867000401C946002F580521C28C2F80845F5DBC6
:10868000491C3029EDDB244C244DA06B40B101285E
:1086900026D1684600F0E6F8B8B1009898B114E029
:1086A000684600F0DFF800281AD00098002817D19B
:1086B0000198012814D1002001F02EFE2868E06303
:1086C000A06B401C0BE0019828B1E06B2968884240
:1086D00007D8081A07E0002001F0EEFD0020A06393
:1086E0007CBDC0430844B0F5FA6FF9D9002000F012
:1086F000C9F8002203211046FFF71EFA002001F0FE
:10870000DBFDFFF737FB7CBDDC2B0020E02B0020DE
:108710000080FF00E04C0020D0310020D42B00204E
:10872000FEB5444C444D0226A16B286805294AD267
:10873000DFE801F0030A173C55001D20FEF788FD15
:108740001D20FEF749FE2BE0E16B814201D8411A62
:1087500001E0C9430144B1F5FA7F34D9C4E90E60A0
:1087600031E0FEF799FA411C2DD03549334A51F8D2
:10877000013F93614968D16102F1180101230E7232
:108780004B7206238B722F4BDE6906EBC606334411
:1087900053F8056FC2F823605B68C2F8273008748D
:1087A0002868E063A06B401CA0630CE01120ADF8CA
:1087B0000000254821496A4603881831234804F0FF
:1087C00041FE0028ECD0606860B101281AD101A8F0
:1087D00000F048F80026C0B10198A0B115E0E063B0
:1087E0000520E1E701A800F03DF800280AD0019833
:1087F000002807D10298012804D12868A060606889
:10880000401C6060FEBD029828B1A06829688842BB
:1088100003D8081A03E06660FEBDC0430844B0F503
:10882000FA6FF9D9002000F02DF86660FFF7A2FA80
:10883000FEBD0000D0310020D42B0020E0760020C7
:10884000483400200C7700207A320020A432002027
:10885000024803490068C86270470000D42B00201A
:10886000D0310020064A11684B1C07D001604FF040
:10887000FF3111605168416001207047002070474E
:10888000B42D0020024A012142F820107047000058
:10889000B02D002010B5084CD4E90101D4E904231F
:1088A000FFF7F8F80548A4F1140100680860091DF5
:1088B000E068086010BD0000BC2D0020D42B002013
:1088C00003480023026981684068FFF7E3B80000AD
:1088D000BC2D00202DE9F0411C484FF00005016837
:1088E000491C016000D00560184C06681834D4E9B2
:1088F0000101FFF7F1F8A4F11003154A1F68191FD1
:10890000874203D110680860BDE8F0810F681268E3
:10891000974201D8D71B01E0FF431744D4F818C091
:108920006745F1D30A60094A18600C32E368111DEB
:10893000834205D110680028E6D1C1E90065E3E76C
:1089400001201560C1E90050DEE70000A42D0020E1
:10895000D42B0020034B00EB800203EB8202D1609A
:1089600001F0CEBBF44A002030B5094C00EB800387
:10897000204654F8235000EB8300022D02D0054D11
:10898000AD680561022544F82350C0E9011230BDED
:10899000F44A0020D82D00202DE9F04782460F46EA
:1089A00008882249224DB1FBF0F0DFF888900AEBED
:1089B0008A064FF0050805EB8604884208D1642139
:1089C0000020FFF7C7FF40F6B83060601A4825E086
:1089D000A0F57431903918D032210020FFF7BAFF8A
:1089E000002108463A18401C927806281144F9DB09
:1089F0003220414314D0C4E9011700BF45F8268056
:108A0000D9F800002061BDE8F08764210020FFF75D
:108A1000A1FF4FF47A60606007480A30A060EDE77C
:108A20005046BDE8F04700F009B8000040420F0092
:108A3000F44A0020D42B0020E42D002010B5044679
:108A400001F03AFC034A04EB8401002042F82100C3
:108A500010BD0000F44A002010B5044601F05CFC93
:108A6000034A04EB8401012042F8210010BD0000FC
:108A7000F44A00202DE9F04F0C253024394EDFF860
:108A8000E880DFF8E8B08E4600204FF0FF094FF491
:108A9000480A00BF00FB05F1B1FBF4F2B4FBF5F1AD
:108AA000B0FBF1F3520001FB130126FA02F212F0BF
:108AB000030252D0012A04D0022A02D0032A4CD148
:108AC00000E059BB98F80010BEF1010F06D031B399
:108AD000002188F8001052464B4625E029B10021BC
:108AE00088F800104A46534604E0012188F8001037
:108AF00052464B46C0EBC00700210BEB071700BFE7
:108B000007EB810C491CCCF808200E29F8D30E2164
:108B100007EB8102491C93601C29F9D31DE0012158
:108B200088F800104A465346C0EBC00C00210BEBFE
:108B30000C1700BF07EB810C0CF5805C491CCCF8CE
:108B400008250E29F6D30E2107EB810202F580528B
:108B5000491CC2F808351C29F6D3401CA04299D301
:108B6000BDE8F08FA00AAA00102E0020E04C0020E3
:108B7000F0B500273B4B01293FD002293CD1002111
:108B800000224C1CC1EBC105444303EB051500BF9B
:108B900005EB820606F58056521CC6F808451C2ACD
:108BA000F6DB491C1429EBDB14240021C4F1280254
:108BB000C4EBC405424303EB051500BF05EB81067A
:108BC00006F58056491CC6F808251C29F6DB641CEE
:108BD000282CEADB2820C0EBC002002103EB0212A4
:108BE00002EB810404F58054491CC4F808751C2963
:108BF000F6DB401C3028EEDBF0BD002100224C1CCF
:108C0000C1EBC105444303EB051500BF05EB82062C
:108C1000521CB4601C2AF9DB491C1429EEDB142118
:108C20000022C1F12804C1EBC105444303EB051543
:108C300005EB8206521CB4601C2AF9DB491C28296A
:108C4000EEDB2820C0EBC002002103EB021200BFC4
:108C500002EB8104491CA7601C29F9DB401C302869
:108C6000F0DBF0BDE04C002070B52A4A01282CD082
:108C7000022829D1284C00214FF44803C1EBC1053B
:108C8000002002EB0515265C2EB105EB800606F5EB
:108C90008056C6F80835401C1C28F4DB491C1829EE
:108CA000ECDB1820C0EBC004002102EB041400BF71
:108CB00004EB810505F58055491CC5F808351C29CC
:108CC000F6DB401C3028EDDB70BD134C0021134B4C
:108CD000383CC1EBC105002002EB0515265C16B13E
:108CE00005EB8006B360401C1C28F7DB491C1829E3
:108CF000EFDB1820C0EBC004002102EB041400BF1E
:108D000004EB8105491CAB601C29F9DB401C3028B1
:108D1000F0DB70BDE04C00201C5E03006068CC00FE
:108D20002DE9F041FDF7B8FFC0B2502803D90E205D
:108D30004FF47F4103E024493C2804D90B20002252
:108D4000224D1C240BE0282801D90920F7E74FF415
:108D50004801142801D90620F1E70320EFE7C2EB10
:108D6000C2061B2305EB0617564204EB460606E037
:108D700007EB830C0CF5805C5B1ECCF858169E420A
:108D800001DC002BF4DA521C8242E8DB0023424271
:108D900004EB42041B221E18C6EBC60605EB0616A2
:108DA00007E000BF06EB820707F58057521EC7F8A1
:108DB0005816944201DC002AF4DA5B1C0C2BE9DB28
:108DC0000F30BDE8F081000000156400E04C002089
:108DD000FFB5134A134D6C460FCA8DE80F000020F3
:108DE00000EB40018A00411C01EB410C11E0C2EB99
:108DF000C20305EB031754F82030002107EB81066E
:108E0000491CB36006F580561C29C6F80835F5DB09
:108E1000521CB2EB8C0FEADB401C0428E0DBFFBDE8
:108E200024660300E04C002070B52E4B2E4A01282A
:108E300031D002282ED100214FF47F05C1EBC104AF
:108E4000002003EB041400BF04EB800606F58056F7
:108E5000401CC6F808550E28F6DB491C3029EDDB0E
:108E60000021C1EBC1000E2403EB001505EB8406C5
:108E700006F5805006F50056C0F80825C0F8482AC7
:108E8000C0F8882F641CC6F8C8241C2CEEDB491CD3
:108E90000629E6DB70BD154D0021C1EBC1040E2093
:108EA00003EB041404EB8006401CB5601C28F9DBBE
:108EB000491C3029F1DB0021C1EBC100002403EB88
:108EC000001500BF05EB8400641C8260C0F84825D3
:108ED000C0F8882AC0F8C82F0E2CF3DB491C0629DD
:108EE000EADB70BDE04C00200037FF006480FF002B
:108EF00070B52E4B2E4A012831D002282ED10021E8
:108F00004FF47F05C1EBC1040E2003EB041400BF36
:108F100004EB800606F58056401CC6F808551C2850
:108F2000F6DB491C3029EDDB0021C1EBC100002438
:108F300003EB001505EB840606F5805006F5005698
:108F4000C0F80825C0F8482AC0F8882F641CC6F865
:108F5000C8240E2CEEDB491C0629E6DB70BD154D3E
:108F60000021C1EBC104002003EB041404EB8006D4
:108F7000401CB5600E28F9DB491C3029F1DB0021CB
:108F8000C1EBC1000E2403EB001500BF05EB84000C
:108F9000641C8260C0F84825C0F8882AC0F8C82F31
:108FA0001C2CF3DB491C0629EADB70BDE04C0020D9
:108FB0000037FF006480FF0010B54FF4A85421462D
:108FC0000748FDF746FA21460648FDF742FA002415
:108FD000E0B2FFF733FD641C032CF9DB10BD000089
:108FE000E84C0020E861002010B5FFF7E5FF002401
:108FF00000E024B93221204601F082F801246421E6
:10900000204601F07DF8641C032CF2DB10BD00004B
:109010002DE9F04F8FB0FDF73BFF46094FF4FA60A2
:109020009FED6B0AB6FBF0F100FB116000EE900AB9
:10903000684DDFF8A491F8EE600A80EE801AFCEE2D
:10904000C10A10EE900A84B2287850B3302C00D3B5
:109050002F24624801888C4214D04168711A00EEB6
:10906000901AF8EE600AF4EEC00AF1EE10FA09DB8D
:10907000048046602046FEF77FF82046FEF7B6F8EB
:10908000FEF766F8564D00240DF1200B04EB840129
:1090900055F8210002282ED005283BD0062839D0CB
:1090A0008FE0504AD9F800001168814201D8411A76
:1090B00001E0C94301443229E4D34B4C1060A0883D
:1090C000FEF75AF8A088FEF791F8FEF741F8A0885D
:1090D0002B2802D2401CA080D4E7012028704248EF
:1090E0004FF4A85421460830FDF7B3F921463F4814
:1090F000FDF7AFF9C6E705EB8101D1E901010144B4
:10910000B6FBF1F201FB1261814253D8204601F017
:1091100003F956E005EB81014FF0050AD1E901277B
:1091200000205B4607EB000C9CF802C0BCF1000F6E
:1091300011D04FF032081CFB08FC43F820C0401C43
:109140000628EFDBD1F810C0D9F80000844505D817
:10915000A0EB0C000CE0A0F1010AF3E76FEA0C0CA5
:10916000604405E0D1F810C0801A9444C1F810C0E2
:109170009042F7D20022114653F821C06244904237
:1091800001D2049102E0491C0629F5DB049800F0A5
:1091900001005FEA0008204602D001F08DF801E0EE
:1091A00001F0BAF804998A450BD1B8F1000F08D044
:1091B000387A18B1204601F07FF802E0E0B2FFF7FC
:1091C0003DFC641C032CFFF661AF0FB0BDE8F08FCF
:1091D000ABAA2642D1310020D42B0020D82D00206C
:1091E000F44A002098320020E04C0020E861002082
:1091F0002DE9F0412D4E86B07068002852D0142819
:1092000002D0082846D04BE0142229496846FDF7D1
:1092100007F90198FDF750FEDDE90370254C804603
:10922000012194F82600009D01F0E6F8052D04D0F8
:10923000062D07D0072D22D010E094F82610012229
:10924000384620E094F826100122384601F004F94F
:1092500094F826100222384601F0FEF8154894F8DA
:1092600026102730085C02281AD8FDF7F1FF1148B4
:1092700094F826102A30085CFEF7AEF810E094F857
:1092800026100122404601F0E7F894F82610022249
:109290004046E1E706481A38D0F81E00FDF70CFEFC
:1092A0000020706006B0BDE8F0810000A031002011
:1092B0004A4B00200C77002010B50C46202906D818
:1092C0000A4601460248FDF7ABF80248446010BD6B
:1092D0004A4B0020A031002000B5114885B0002382
:1092E000D0F8E100CDF801000E481A4600788DF85C
:1092F00000000B4810F8301F8DF809108189ADF877
:109300000A10C189ADF80C10018AADF80E10408A20
:10931000ADF8100012216846FEF7D2F905B000BD85
:109320000C770020304B00202DE9F04FF74997B023
:109330000868002873D0F74DF54C80B2B5F942208B
:109340000126F54F4FF0000A022820D0032867D0ED
:10935000DFF8C8930DF1040B05F14608042873D01B
:1093600049460528097870D006286FD008286ED0A5
:1093700009286DD00A286CD00B286BD00C286AD035
:109380000F2869D0102868D0122867D058E22088AA
:1093900044F65233C11A98423CD01DDC43F24232AB
:1093A000A0EB020190426AD00BDC00F6BE70B0F573
:1093B000804064D0B0F5807F61D0B0F5007FE5D10A
:1093C0005DE0B1F5805F2ED001F2F671B1F500518C
:1093D0001BD00329DAD115E0B1F5407F18D008DCA5
:1093E000F0293ED0A1F50071FA390FD00329CDD173
:1093F00006E0B1F57C7F14D0B1F5FE6FC6D118E060
:10940000002100E00121002006E00121012003E00D
:10941000002100E00121022005F0C6FA10E2E8E098
:1094200040E02E6301E0C5F830A03E60FDF7C4F9CE
:1094300006E2BBA101A801F0E7FE286B78B14F203E
:109440008DF80500092105E14CE007E1BEE2D9E213
:1094500006E33EE3CAE3CAE3CAE3CAE3CAE343203E
:10946000EEE7FDF719FC0246401C01D0AFA1BDE0BC
:10947000B1A1DCE001A8FCF7F7FF81B2EAE0B0A0FF
:1094800000680090AFA000680790607830381DF841
:10949000001085F8A41007A9085C68633E60FDF71A
:1094A0008BFCCDE120784228B8D05A28B6D160781C
:1094B000A478A0F130083C22A34907A8303CFCF76F
:1094C000AFFF04EB840107AA08EB880002EB41011F
:1094D00005EB40000A6840F8B22F4A6842600989EB
:1094E0000181ECE22078422802D160784D2809D031
:1094F0000322214695A0FCF7CCFFA0B12078542888
:1095000027D02CE0A178052973D801EB410105EBA8
:10951000810101F18802E0788431FEF719FB3E6099
:10952000FEF7AAFB8CE1E078312804D0302805D082
:109530003F2806D084E185F8E060C0E285F8E0A02D
:10954000BDE295F8E000012801D081A16FE082A181
:109550006DE06078462802D1A0784D2825D0E178CA
:10956000206861F31F607E49401847D07D4940184C
:1095700061D07D49401831D07C49C84291D17C48A6
:10958000817A432945D0008B90B3020BC0F30323AB
:10959000C0F30310012845D90A283CD002283CD04A
:1095A00004287FF467AF73A138E0E078302802D058
:1095B000312803D004E085F8E8A001E085F8E860F0
:1095C00095F8E8206EA101A801F01EFE01A8FCF7A5
:1095D0004BFF81B201A8FDF769FA70E26A480268A0
:1095E000B2F1CC3F06D0501C06D068A101A8D2E150
:1095F0001FE0FCE368A11AE06AA118E00D200090CA
:10960000052340F2EA726AA101A801F0FDFD0A21DA
:1096100020E06BA10BE06CA100E06EA101A801F0BD
:10962000F3FD27E7012A01D86DA100E06FA101A891
:1096300075E371A1FBE799F8000002289ED170A1A3
:1096400001A801F0E1FD0E2241460BF10400FCF7F8
:10965000E7FE122101A8FDF729FADEE3207846286B
:109660001CD0662833D0E3782068DFF89CC163F310
:109670001F60664BA0EB0C0860451B6841D041DCC5
:10968000DFF88CC1A0EB0C0260453CD02FDC614AB6
:10969000D042E2D12079312836D052E107AB08AA76
:1096A0006946204609F088FC089810B11F2802D0AE
:1096B00006E0022200E001220099079800F0B4FEC3
:1096C000009806E001280AD0022804D10AE0607858
:1096D00030380028F6D1022089F8010004E089F82A
:1096E00001A001E089F80160FEF7C4FB95E34A4858
:1096F0001018B2D0494AD042AFD12079482804D0BE
:10970000DCE04BE18CE09CE00CE1C0E0903200201A
:10971000C07C00200C77002068320020143200202A
:10972000423F3A252B30366400000000424C3A2577
:109730003033750000000000424C3A4E2F410000CB
:109740001718181804040001486603005055420019
:1097500050554230000000005055423100000000DA
:10976000AABAADB702F3FEF9120626FCEC06DBFF3F
:10977000304B002052552D5625642E2564000000E4
:1097800054464D2D25750000A0310020424C2D522D
:109790003A25303375000000424C2D523A4C697422
:1097A00065000000424C2D523A4E4100000000007E
:1097B000253034642D253032642D2530326400008C
:1097C000524C2D56302E3500524E35312D562564D3
:1097D0002E256400524E35322D5625642E25640008
:1097E000524E35312D56322E35000000524E353254
:1097F0002D56312E33000000554E4B524D54000073
:109800004652534E0000000054524553043200208B
:1098100054504149ACBDADBA060BEDFFFAF200FB66
:10982000F54818EB00007BD0B0F57E4F1CD0F34A12
:10983000801857D0F24AD04202D120795A2870D0ED
:10984000EBE220795228FBD1022901D0042BF7D179
:10985000ECA1584601F0D8FC01A8FCF705FE81B246
:1098600001A8FDF723F9EFE220795428E8D1052972
:10987000E6D1E6495846C1F800A0E5A101F0C4FCD4
:10988000052101A8FDF712F9FEF7CAFBC5E202297E
:10989000D6D1E1A1584601F0B7FC55F8460F029029
:1098A000686803902889ADF810008DF812A001A80F
:1098B000FCF7DAFD81B201A8FDF7F8F820794C2811
:1098C000BED199F800000228BAD1D5A101A801F0B3
:1098D0009BFC0A22D4490BF10400FCF7A1FD8DF892
:1098E00012A0C7E520795428AAD1022901D0042B5F
:1098F000A6D1CEA1584601F087FC01A8FCF7B4FD23
:1099000081B201A8FDF7D2F8CA4E64254FF47A4718
:10991000741C3846A0476D1EFAD1FEF7D5FA7CE2DA
:1099200032E023E002298BD1C3A1584601F06CFC40
:1099300001A8FCF799FD81B201A8FDF7B7F82E63E5
:109940003E6020793028A1D199F8000002289DD1ED
:10995000BBA101A801F058FC01A8FCF785FD81B26C
:1099600001A8FDF7A3F8C5F830A0A8E002298DD121
:10997000B5F940000090B5F93E30B5F93C20B2A1F0
:10998000584601F041FC75E520794828C7D10229E5
:10999000C5D1B3A1584601F037FC6BE520795428B6
:1099A000BDD10229BBD1B1A1584601F02DFC01A8BF
:1099B000FCF75AFD81B201A8FDF778F86421C5F8DB
:1099C00030A0A9875046A5F83EA015E296484FF072
:1099D000060230380529214603D0FCF767FD68B13F
:1099E0001BE2FCF763FD30B120682862A088A884E0
:1099F0003E60FEF77FFA01F0F3FB0EE28349C1F807
:109A000000A0F8E72078582804D1601CFCF75DFD21
:109A1000A8873E602078592804D1601CFCF755FDCA
:109A2000E8873E6020785A2805D1601CFCF74DFD80
:109A3000A5F840003E602078542805D1601CFCF752
:109A400044FDA5F842003E600822214689A0FCF7AB
:109A500020FD0028C4D1FFF7AFFAFEF78BF9DCE157
:109A60000922214686A0FCF714FD60B10922214697
:109A700086A0FCF70EFD70B1082221467DA0FCF700
:109A800008FD78B1C9E199F800000428A8D100BF09
:109A9000FEF762FAC1E199F800000528A0D1FEF7AF
:109AA00029FABAE1207A312804D0302805D03F289D
:109AB00007D0B2E185F8E66001E085F8E6A03E60F7
:109AC000ABE195F8E600012801D073A1AFE575A1DF
:109AD000ADE50622214676A0FCF7DBFC18B1207824
:109AE00041280ED099E15048D4F806105038C0F8FB
:109AF000E110714985F8E56002203E6008706FA1B1
:109B000095E560784E2870D1A07843286DD1E17832
:109B1000627961F30700884621790892A27961F39E
:109B20000F2062F3174083463F48503800F12A0364
:109B300027300793009062B1921CD0B25C4660F36C
:109B40001744072845D26FF07F4081B31F2937D0D3
:109B50003FE0E079227A000400EB0220627A1044B0
:109B600011B11F2911D034E044460222214600F0F1
:109B70005BFC04EB440005EB800188310898FEF79C
:109B80002FF84FEA1B4107980FE044460122214677
:109B900000F04AFC04EB440005EB80018431089896
:109BA000FEF71EF800984FEA1B41215410E0FFE732
:109BB00045460222294600F037FC210C079806E0B2
:109BC00045460122294600F02FFC0098210C29541B
:109BD0003E605FEA08003FF47EAD01283FF47FADB0
:109BE000B8F1020F3FF472AD75E516E16EE099E051
:109BF000BAE0DDE003E10000000BF3FE00F409FF32
:109C00000001F0FB46504149520000008032002024
:109C1000464553545400000046534E48000000008F
:109C200046534E4C000000005C77002046534855D8
:109C300054000000406603004642524531000000D7
:109C40004642524530000000465258595A252B30A2
:109C50003464252B303464252B303464000000003C
:109C60004647525448252B3036640000465245532F
:109C700054000000504F5745524F46460000000028
:109C800050414952494E472D590000005041495218
:109C9000494E472D4E000000504F5745524F464603
:109CA00030000000504F5745524F464631000000EB
:109CB0004E45544944200000FC2D00204E45544997
:109CC00044206368616E6765640000000B222146D2
:109CD00060A0FCF7DEFB30B10B22214660A0FCF750
:109CE000D8FB58B199E062496048D1F80110C0F83A
:109CF000E11085F8E5A05FA13E6098E485F817A023
:109D00005FF0000404EBC4002844FF220821401D3A
:109D1000FCF798FB641C022CF4DB5AA187E401F0E9
:109D200073FA7EE42078542877D16078472874D17C
:109D3000A078572871D1E07854286ED1207948282E
:109D40006BD1022969D154A1584601F05DFA01A8EE
:109D5000FCF78AFB81B201A8FCF7A8FE601DFCF7A6
:109D6000B4FBA5F84200AAE6207842281ED00022C3
:109D700061780020303901EB810105EB410100BF22
:109D800004EB4005EB782D79303B03EB8303303D4A
:109D900005EB43030D18401C85F8B4303E600628DF
:109DA000EEDB81F8BA203EA15846B8E70122DFE792
:109DB0002078542831D1607847282ED1A0785728B0
:109DC0002BD1022929D13CA1584601F01DFA01A846
:109DD000FCF74AFB81B201A8FCF768FEE01CFCF727
:109DE00074FBA887E01DFCF770FBE88700E017E034
:109DF00004F10B00FCF769FBA5F840005FE6207852
:109E000054280AD16078572807D1A078532804D164
:109E1000E0784E2801D1022905D02949C1F800A0D7
:109E200017B0BDE8F08F27A1584601F0EDF901A861
:109E3000FCF71AFB81B201A8FCF738FE0E22211DA7
:109E40004046FCF7EDFA3E60FFF7B6F81F480660A3
:109E50001EE600004E4554494420524553455400E7
:109E600044454C2052454D4F544553000C7700203B
:109E7000483400204E45544944207265736574008F
:109E80000000000052656D6F7465732064656C6539
:109E90007465642E000000004647575448000000D7
:109EA00042757A7A65722074696D65206368616EA7
:109EB0006765642E00000000464757000000000060
:109EC000903200204657534E00000000043200201C
:109ED000074A084891680068814201D8411A01E0A8
:109EE000C9430144B1F57A6F00D3906001F0CEB858
:109EF00094310020D42B00202DE9F04F3F4D404FEE
:109F0000DFF800812868002493B0012810D1386858
:109F1000372803D398F80000052808D03A4800F005
:109F20007FF83A480168012901D1022101602C60C3
:109F3000FFF75EF9364E307800285CD04FF0010A0A
:109F4000E946DFF8D0B050E09DF8010010B10128DB
:109F50004BD141E09DF800101A2904D0202910D0DF
:109F6000042929D033E09DF9020038601A2209F152
:109F700005012548FCF754FAC5F800A0C8F80440CC
:109F800033E0202209F105010AA8FCF749FA092269
:109F90000DA92148FCF744FA20491F48001FC1F8C9
:109FA00000A0DDF83D1040F80D1FDDF841104160C4
:109FB0009DF84510017218E01748001F90F8E60060
:109FC000012812D1FEF7F8FFFDF7D4FE0DE01429A9
:109FD00005D0082909D102E09DF80010F7E78BF8B9
:109FE000004009F10500FFF767F9684605F084FDB8
:109FF0000028A9D0347013B0BDE8F08FA83100203C
:10A00000AC31002014320020304B002004320020FC
:10A010007D2C0020FC2D00201077002068320020CD
:10A020002DE9F041314E0546DFF8C4803078002735
:10A030000124042834D0052856D198F81610C8F801
:10A040001C10404601EBC10101442A684A606A685D
:10A050008A602A7A0A73A97A98F81C20432998F80A
:10A06000171004FA02F206D09143C175AA7A214969
:10A07000432A02D00AE01143F7E71F4B1C4AD3F8EA
:10A080000130C2F8E13080F8E5700C60827D521C2E
:10A09000D2B28275022A00D387750C60FDF72AFFC1
:10A0A000687A4C2806D04F2802D0522806D103E007
:10A0B000B77003E0B47001E00220B070A87A4B28BA
:10A0C0000CD04E2808D0432802D00C49E87A08600A
:10A0D000BDE8F041FDF7D0BDF770F6E7D8F83000E5
:10A0E0000128F2D1F470F0E7BDE8F08114320020CD
:10A0F0000C7700206832002048340020A031002076
:10A100002DE9F0410F46064604F00EFC05461348C3
:10A11000C6EBC60100EB8104606801280AD1304615
:10A1200000F05CF930B1AAB2217A0D4801F01AFCB6
:10A130001128F8D0606802280AD1304600F04EF9A4
:10A1400030B1064A0020383AA168526822F811005E
:10A15000044840F82670BDE8F0810000202C002063
:10A1600008360300D84900202DE9F04F85B00024BF
:10A170004FF0FF3100910191CDE90340DFF80081FC
:10A180002646274625460DF108094FF0010AA8F199
:10A190000C0B00BFC5EBC50108EB8100416821B184
:10A1A000012909D002291BD02BE0D0E90532016931
:10A1B000C068FDF79BFC21E0039A0169761C4DF80D
:10A1C0002210406928B1039901F80940039820B191
:10A1D00014E0039A02F809A0F8E7CDF80CA00DE00E
:10A1E000042F0BD28368017C7F1C0BF8031040699D
:10A1F000012803D141F080000BF80300214840F80A
:10A2000025406D1C032DC5DB1D4D383DAC60EC6059
:10A210002C61F6B1012E02D0022E08D019E00022E6
:10A220006946194801F0D8FC002211460BE00022D3
:10A230006946154801F0D0FC00221146124801F091
:10A2400091FB00220121104801F08CFB0E4801F027
:10A2500087FC002F11D00A490C4A0C39A1F11800D3
:10A2600006F0BAFC18B10AA28E21FBF7D3FF2878BA
:10A2700040F00100287000F0E9FB05B0BDE8F08F68
:10A28000202C0020D849002008360300891B030039
:10A290002E2E5C2E2E5C2E2E5C2E2E5C2E2E5C2EF8
:10A2A0002E5C2E2E5C2E2E5C2E2E5C2E2E5C4C4CAC
:10A2B0005F50574D2E63000070B5054600F08EF8D4
:10A2C000002815D01248C5EBC50100EB8104104EE3
:10A2D0006068383E01280CD0022812D00C3494E873
:10A2E0000700FDF729FC0120B168A8408143B16057
:10A2F00070BD217A0022074801F034FB1128F8D004
:10A30000F1E7A1687268002022F81100EBE7000075
:10A31000202C0020083603002DE9F04104461B489C
:10A3200050F82410204604F0FFFA0746204600F0BB
:10A3300047F800281AD01648C4EBC40100EB810688
:10A34000134D0122383D706802FA04F401280FD041
:10A35000022815D070698243D6E90301FDF7ECFBB2
:10A36000E868A043E860A8680443AC60BDE8F081F9
:10A37000BAB2317A074801F0F5FA1128F8D0F2E7BD
:10A38000B1686A68002022F81100ECE7D849002083
:10A39000202C00200836030010B5074801F0E6FC29
:10A3A000064C2078C00703D004F1140006F0B8FC76
:10A3B0000020207010BD000008360300E82B0020AC
:10A3C000054A0121814092681140C14001D000201E
:10A3D0007047012070470000E82B0020054A01214A
:10A3E000814092681140C140012901D0002070478E
:10A3F00001207047E82B0020094A00EB400012685A
:10A400002AB1084A02EB800050F821007047054A43
:10A41000EC3A02EB800000EB8100C06D7047000059
:10A4200064320020F8770020064B01EB410103EB7A
:10A43000810101EB8201C8650348012141600021CF
:10A44000016070470C770020643200200149002031
:10A450000860704764320020054B01EB410103EBBB
:10A46000810141F822000349012008607047000083
:10A47000F87700206432002010B5064C20681228BE
:10A4800006D008F0D3F912200349206001200860AB
:10A4900010BD00000C7700206832002070B50F4C12
:10A4A000616800290AD00E480129006803D0002500
:10A4B000022904D00FE0A0600220606070BDA16896
:10A4C000814201D8401A01E0C9430844B0F5FA6F4F
:10A4D000F4D3FDF739FA656070BD000064320020E6
:10A4E000D42B002070B525480068012801D002282F
:10A4F00004D1FDF7C9FA08B1FDF776FA20480068E3
:10A5000001F0BAFCFCF730FA30B1082804D01DA2E3
:10A5100040F23B31FBF77EFE0120FCF76BFA002294
:10A520001B211046FDF708FB002205211046FDF710
:10A5300003FBFEF741FDFFF72FFF00231A4615210D
:10A540001846FDF7A7FA00221E211046FDF7F4FA7F
:10A55000FCF7CAF9FDF798FA00280ED1002440F65E
:10A56000A42500BFFDF790FA002806D1012005F0D0
:10A57000A3F9641CA4B2AC42F4D370BD68320020CD
:10A58000806703002E2E5C2E2E5C2E2E5C6D616982
:10A590006E2E630070B51C480068012801D00228A7
:10A5A00004D1FDF771FA08B1FDF71EFA00221B2154
:10A5B0001046FDF7C1FA002205211046FDF7BCFA4E
:10A5C00000231A4615211846FDF764FA00221E21C1
:10A5D0001046FDF7B1FAFEF7EFFCFDF755FA68B942
:10A5E000002440F6A42500BFFDF74EFA30B9012043
:10A5F00005F062F9641CA4B2AC42F5D3FFF7CCFEBF
:10A60000BDE87040FEF746B96832002010B5002062
:10A61000FCF7F0F914480021012201801B210020E1
:10A62000FDF78AFA012205210020FDF785FA4FF493
:10A63000B970FFF799FDFEF7D7FC00231A461521E4
:10A640001846FDF727FA01221E210020FDF774FAB3
:10A650000120FCF7C9F80548002221210068BDE867
:10A66000104001F0DFBB0000603200208067030073
:10A6700033DF70470B4810B50088A0F57F41FF39E4
:10A680000ED1FCF771F908A000F0AEF801F0D2F895
:10A690000020FCF7CBF9064901200870FCF74CF9C3
:10A6A000012010BD7A3200204E7978656C000000E0
:10A6B000F032002010B5FCF757F90B480088A0F5E0
:10A6C0007F41FF390DD109A000F08EF801F0B2F8FA
:10A6D00040F20110FCF7AAF9064901200870FCF7C6
:10A6E0002BF9012010BD00007A3200204E797865E8
:10A6F0006C000000F03200202DE9F84390460E4631
:10A700000446FCF731F99DF8000027A120F00F0066
:10A71000401C20F0F00010308DF800000322684645
:10A720007CDF18B121A24021FBF774FDAC212A483F
:10A73000FBF78FFE28480221012501708570062154
:10A74000C17000F1AC0240F60471118000F1B80153
:10A75000CC234B70214BA41E13F8E17F8F705F78E0
:10A76000CF709F780F71DB784B7100278F710723B3
:10A77000CB71948091604FF47A714E4340F2712115
:10A78000B6FBF1F1426280F87C50C0E9221814490E
:10A79000C0F8A410FCF7B6F8124C2770FCF7CCF800
:10A7A0002570BDE8F88300004C4D4D002E2E5C2E28
:10A7B0002E5C2E2E5C2E2E5C2E2E5C2E2E5C2E2ED3
:10A7C0005C2E2E5C2E2E5C2E2E5C4C4C5F526164F7
:10A7D000696F2E6300000000F44900200C77002010
:10A7E000B5110300F032002038B504469DF8000092
:10A7F00020F00F00401C20F0F00010308DF8000019
:10A800002046FBF731FE82B2214668467CDF0028F5
:10A8100003D002A22B21FBF7FDFC38BD2E2E5C2EAF
:10A820002E5C2E2E5C2E2E5C2E2E5C2E2E5C2E2E62
:10A830005C2E2E5C2E2E5C2E2E5C4C4C5F52616486
:10A84000696F2E63000000002DE9F843414C424837
:10A850000427217800780025404E4FF0050807298D
:10A8600046D2DFE801F0040F161F384762000528C2
:10A8700001D0012000E0002003F0C6FBBDE8F84352
:10A88000FEF72ABD012003F01BFCFF2008F054FA5C
:10A8900005E0012003F014FCFF2008F021FAFCF78A
:10A8A000E3FA16E0012003F00BFC4FF00008FCF780
:10A8B000E9FA00264FF4FA790095484605F0AAFF18
:10A8C0000123424604216846FCF7FAFE761C0F2E4F
:10A8D000F3DB277027E0A068401CA0606168491C7A
:10A8E0006160032804D384F80080A5603068E060CC
:10A8F000BDE8F883A168491CA160052801D00120AA
:10A9000000E0002003F080FBFEF7E6FCE068316821
:10A91000884201D8081A01E0C0430844104988421F
:10A92000E6D306202070A560E2E7A068401CA06086
:10A93000012003F0C5FBFF2008F0D2F9FCF794FAE0
:10A94000A0680028D4D084F800803068C4E90250A0
:10A95000CEE70000FC2D002014320020D42B002074
:10A96000C02709002DE9F04102680446002A28D0DA
:10A970006368501E2D4D53F820104FF004064F1DF4
:10A9800012D011F1040F4FF008071CD011F1030F82
:10A9900029D08A1C30D0481C39D08847012810D1D2
:10A9A0002068401C20603BE006EB800029681B58B3
:10A9B000E068884201D8081A01E0C0430844984280
:10A9C00017D2BDE8F08106EB80010C225E5807EB40
:10A9D000800102EB800059581A58304600F028F8E0
:10A9E0002068001DDEE706EB80001858006800288C
:10A9F000E7D1921C226013E006EB800107EB800098
:10AA000059581A582046BDE8F04100F011B8A06826
:10AA10004FF00101421C02D028B1401EA06021600D
:10AA20002868E060CDE700202060CAE7D42B002032
:10AA3000012308C0024B1B6880E80E00704700002D
:10AA4000D42B0020002101607047000054210148F0
:10AA5000FBF7FFBC8434002070B54FF4807630469D
:10AA600004F0FAFE114CB50560B1304604F0FBFE6F
:10AA70000120C5F80803607920B9012060712168C0
:10AA8000002088474FF48276304604F0E5FE002827
:10AA90000AD0304604F0E7FE0220C5F8080321681A
:10AAA000BDE870400120084770BD00004C33002015
:10AAB0000149024804F06AB8A07E002000C00140AD
:10AAC0000149024804F062B8A87E0020001002404C
:10AAD0000149024804F05AB8B07E0020002002402C
:10AAE00010B504F053FF024800210170416010BD11
:10AAF0007C2C002070B5144CD4F80001002628B13D
:10AB0000D4F80403C00701D0C4F80061D4F80C01E4
:10AB10000E4D40B1D4F80403000704D5C4F80C610D
:10AB2000286900B18047D4F8100100280BD0D4F870
:10AB30000403C00607D5C4F81061E868002802D0F5
:10AB4000BDE87040004770BD00100040E4330020B5
:10AB500002490248091F096800680847903300202D
:10AB60002DE9FE434FF48278404605F021FC4C4F1E
:10AB700000254C4C012600B3404605F021FC94F81A
:10AB80002E0010B194F82F10D1B18DF800506168EB
:10AB900001912189ADF80810E26832B1218B6183FF
:10ABA00062602181E56010B102E0257400E03E6042
:10ABB00021686846884784F82F5094F82E0060B3C7
:10ABC0004FF48077384605F0F3FB30B3384605F094
:10ABD000F7FB628B94F82D108A420AD9A2EB010090
:10ABE00080B260832289A2EB0000626802EB400021
:10ABF00005E007D1E06828B184F82F60658305F08F
:10AC0000C5FB04E08A4202D184F82F606583404688
:10AC100005F0D6FB2248001D06604FF488773846C1
:10AC200005F0C6FB48B1384605F0CAFB2574022082
:10AC30008DF800002168684688474FF48A773846C7
:10AC400005F0B6FB28B1384605F0BAFB2574BDE81F
:10AC5000FE834FF000484FF48C7967691DE000BF18
:10AC6000B7FA87F028FA00F109EB80058F432846F0
:10AC700005F09EFB88B1284605F0A2FBA5F58C7572
:10AC8000E8088DF8040045F38000401C8DF8006052
:10AC90008DF80500216868468847002FE0D1D6E787
:10ACA00000700040707E00207CB5144C606A0190FA
:10ACB0002078002821D0012000F0C7FA656800261E
:10ACC0006660012000F0D2FAE169002915D0E8079A
:10ACD00003D08DF8006068468847A80705D5012095
:10ACE0008DF80000E16968468847680705D50220AD
:10ACF0008DF80000E169684688477CBDE433002098
:10AD000005F084BCF0B5A149A1484FF080540B6810
:10AD1000D4F830210078D4F83411551CC0F3031056
:10AD200006D0944601270026BCF1060F03D00AE0A6
:10AD300003F0FF0CF6E7B4F82453DFF858C2C5F36C
:10AD40000425CCF80050DDB2062D06D1032804D12D
:10AD5000DFF848C2904DCCF87450551C04D094468E
:10AD6000BCF1060F03D00AE003F0FF0CF8E7D4F8BB
:10AD70004452DFF82CC2C5F34235CCF80050DDB2A6
:10AD8000062D08D1032806D1864DD5F800C02CF039
:10AD9000807CC5F800C0551C04D09446BCF1060F59
:10ADA00003D00BE003F0FF0CF8E74FF08045C5F847
:10ADB0000C61C5F810617A4D2D1F2E60DDB2062D95
:10ADC00008D1032806D1DFF8D8C103250CF1640CA3
:10ADD000CCF80050DDB2062D10D103280ED1DFF8DB
:10ADE000C8C10525CCF800506F4D78352F606E4DE9
:10ADF00008352E600CF104063F253560551C04D043
:10AE000016460D46062E03D05BE0DEB20546F9E796
:10AE1000ED1E012D55D9654D2D68654E3560634D8C
:10AE20002D1D2D68361D3560604D08352D68361D89
:10AE300035605E4D0C352D68361D35605B4D103527
:10AE40002D68361D3560594D14352D68361D356019
:10AE5000564D18352D68564E20363560534D1C35ED
:10AE60002D68361D3560514D20352D68361D3560F5
:10AE70004E4D24352D68361D35604C4D28352D68D6
:10AE8000361D3560494D2C352D68361D3560474DD2
:10AE900030352D68464E40363560444D34352D688A
:10AEA000361D3560414D38352D68361D35603F4DB6
:10AEB0003C352D68361D35603C4D40352D68361DBE
:10AEC0003560551C03D01646062E02D007E0DEB2D0
:10AED000FAE7D4F85852374E05F04F053560551C47
:10AEE00003D01346062B02D008E0DBB2FAE7324863
:10AEF0000368DB0702D06FF001030360062A07D165
:10AF0000C91E022904D92D48016841F480610160FD
:10AF100024487438016841F470010160BFF34F8F19
:10AF2000BFF36F8FD4E94C104FF01022062907D1E0
:10AF3000C01E032804D9D2F8080219491C31086040
:10AF4000D2F80C02C0071DD0012006F027F9D2F874
:10AF50000C0220F00100C2F80C0219480168002917
:10AF6000FCD0002006F01AF9BFF34F8F0D48F038DF
:10AF70000168144A01F4E06111430160BFF34F8F8F
:10AF800000BFFDE7114910480860F0BDE00F00F078
:10AF9000E80F00F0403501400DF0ADBA00C00740A9
:10AFA0003C050040FCED00E0105600400404001099
:10AFB00020C50040E40E0040000400403C17004063
:10AFC00000E401400400FA050090D0032C34002076
:10AFD0002DE9F047104E042700244FF4A0784FF4D9
:10AFE000803900BF08EB840509FA04F0715961B19A
:10AFF000D6F80413014208D02946304605F0BDFBBF
:10B000000648D0E9002128469047641CE4B2BC42BF
:10B01000E8D3BDE8F087000000900040B87E002033
:10B020000748D0F84011002909D00021C0F840118C
:10B0300004484078032802D1034901200861704781
:10B0400000A00140E43300200010004000214A1E0F
:10B050000160C0E90112C160704700001CB50A49D7
:10B0600066208DF8000091F826108DF8040030312C
:10B070008DF801108DF802008DF803000521684657
:10B08000FBF714FD1CBD00000C770020F0B5514DFE
:10B0900087B0296800297CD04F480068814201D8D8
:10B0A000411A01E0C9430144322972D3401E40F0E5
:10B0B00001004A4A286000266B6892F8271092F82F
:10B0C000280092F8294037460D2B61D2DFE803F0C3
:10B0D000070F182932384345474345475D0000268E
:10B0E0001F27022901D800240FE08C1E0DE0002646
:10B0F00092F82A003746022829D98C1E022105E041
:10B1000001261F270228EED9841E01213046FFF7B1
:10B1100073F90090E3B23A46314601A806F008FB05
:10B120004DE02E490126002791F82B1002290ED957
:10B13000841EE3E702261F27022CD4D9A41EE4E7CD
:10B1400026480226002790F82C00022801D8002467
:10B15000D4E7A41ED2E7002002E0012000E0022094
:10B1600042218DF804104D218DF805108DF8060050
:10B17000092B10D200EB40001F2102EB80008DF85C
:10B180000710D0F884000EE003E0FFF767FF17E038
:10B190002F6007B0F0BD00EB400002EB80008DF89F
:10B1A0000770D0F8880005AA06A9FCF729FB9DF8CE
:10B1B00018008DF808009DF814008DF80900062687
:10B1C000314601A8FBF772FC0028E2D16868401CF8
:10B1D0006860DEE794310020D42B00200C7700203B
:10B1E00004480068401E40F001010348016000214E
:10B1F00041607047D42B0020943100200148006842
:10B2000000470000543300200FB4084B10B504A9C8
:10B2100002AA039800F07AF8044602A9002000F080
:10B2200016FA204610BC5DF814FB00004FB6020071
:10B23000002809DB00F01F02012191404009800035
:10B2400000F1E020C0F88012704700280DDB00F00C
:10B250001F02012191404009800000F1E020C0F868
:10B260008011BFF34F8FBFF36F8F7047002809DB4A
:10B2700000F01F02012191404009800000F1E02010
:10B28000C0F800117047002809DB00F01F020121FF
:10B2900091404009800000F1E020C0F800127047A2
:10B2A0004907090E002804DB00F1E02080F80014B3
:10B2B000704700F00F0000F1E02080F8141D704787
:10B2C000004870473034002002E008C8121F08C14F
:10B2D000002AFAD170477047002001E001C1121F17
:10B2E000002AFBD1704700000121202803DA8140A9
:10B2F0000548014003E0402802DA2038814009B1C6
:10B300000120704700207047FC06FFBD2DE9FF4F6C
:10B310008BB088460546002606E025280BD0DDE9DF
:10B320000D1290476D1C761C28780028F5D10FB0BF
:10B330003046BDE8F08F0024A146A2460122AE4966
:10B3400000E0044315F8013F203B02FA03F00842F5
:10B35000F7D128782A2810D06FF02F022878A0F192
:10B360003001092915D809EB890102EB410144F0AC
:10B37000020400EB01096D1CF0E758F8041B5FEABA
:10B38000010903D544F40054C9F1000944F0020452
:10B390006D1C28782E2817D115F8010F44F00404ED
:10B3A0002A280ED06FF02F022878A0F13001092949
:10B3B0000AD80AEB8A0102EB410100EB010A6D1C7D
:10B3C000F2E758F804AB6D1C28786C280FD006DC27
:10B3D0004C2817D068280DD06A2814D104E07428AE
:10B3E00010D07A280FD10DE044F400140AE044F4A0
:10B3F000801401E044F440146978814202D104F5DC
:10B4000080146D1C6D1C2878692865D006DC002826
:10B410008DD0632827D0642806D15DE06E2808D03F
:10B4200073282AD0752877D0DDE90D129047761C55
:10B43000E0E0C4F30250022809D003280DD0D8F868
:10B44000001004280DD00E6008F10408D2E0D8F8EE
:10B450000010F217C1E90062F6E7D8F800100E807C
:10B46000F2E70E70F0E718F8041B8DF800100020CA
:10B470008DF80100EB46012003E058F804BB4FF0C3
:10B48000FF3061074FF0000701D40AE07F1C5745E9
:10B490000DDA8742FADB1BF807100029F6D106E027
:10B4A0007F1C8742FCDB1BF807100029F8D1DDE97F
:10B4B0000D23A9EB07008146214600F0B1F8304486
:10B4C000C61904E0DDE90D121BF8010B90477F1E41
:10B4D000F8D22146484688E058F8040BC4F30251DC
:10B4E0004FF00A0B032900D100B2042900D140B269
:10B4F000002802DA40422D2102E0210505D52B214A
:10B500008DF82410012104E006E0E10710D020218D
:10B51000F6E708AF089113E058F8040BC4F30251A2
:10B520004FF00A0B032900D180B2042900D1C0B228
:10B530000021EEE75946FAF7D5FF303107F8011D33
:10B540000028F7D1ADEB070000F1200B600702D512
:10B5500024F4803401E04FF0010ADA4502DDAAEB61
:10B560000B0000E00020824600EB0B01089801442C
:10B57000A9EB01000A90E00306D4DDE90D23214682
:10B580000A9800F04DF806444FF0000908E009A9B8
:10B5900011F80900DDE90D12904709F10109761C47
:10B5A00008998945F3DBE0030CD5DDE90D2321463D
:10B5B0000A9800F035F8064404E0DDE90D12302069
:10B5C0009047761CBAF10001AAF1010AF5DC05E00A
:10B5D000DDE90D1217F8010B9047761CBBF1000155
:10B5E000ABF1010BF4DC0A982146DDE90D2300F0F4
:10B5F00005F806446D1C97E6092801002DE9F04185
:10B60000044600251E461746880404D405E0394642
:10B610002020B0476D1C641EF9D52846BDE8F08196
:10B620002DE9F041044600251E469046C80301D589
:10B63000302700E02027880404D505E0414638463D
:10B64000B0476D1C641EF9D52846BDE8F0810A6834
:10B65000531C0B6010707047006890FAA0F000BA9D
:10B6600000BA7047800701D0002070470120704762
:10B67000C3688B4206D811440069491E814201D833
:10B68000012070470020704710B5FBF705FB054906
:10B6900003220A700872B42264210B20FFF72CF8F1
:10B6A000012010BDAC4A002070B5104E05240121C8
:10B6B0007078FEF7A1FE054670780221FEF79CFE29
:10B6C0000B490246082008700C724D72280A8872D5
:10B6D000280CC8720A73100A4873100C8873B422BD
:10B6E00064211120FFF708F8012070BD14320020FA
:10B6F000AC4A0020054910B500200870B42264212E
:10B700000A20FEF7F9FF012010BD0000AC4A00201E
:10B710000D4810B58078A0B101280ED002280ED0B7
:10B7200000200A4902220A7008724872B422642179
:10B730000C20FEF7E1FF012010BD1A20F1E72520C3
:10B74000EFE70F20EDE7000014320020AC4A0020A4
:10B7500010B5002000F008F8012010BD10B5012040
:10B7600000F002F8012010BD044906220A70087298
:10B77000B42264210B20FEF7BFBF0000AC4A0020BA
:10B7800010B5FBF77FFB084905220A700872020A10
:10B790004A72000C887201224FF47A710D20FEF774
:10B7A000ABFF012010BD0000AC4A00200D4910B5D0
:10B7B000887820B1012802D0022800D00020C97862
:10B7C00011B1012900D00021074A072360F31F119E
:10B7D00013701172B42264210B20FEF78DFF01203B
:10B7E00010BD000014320020AC4A002090F8240064
:10B7F000012801D01F207047EE20704710B50122AC
:10B800000221002001F030FF08B1072810D10722E3
:10B810000221012001F028FF08B1072808D10021EA
:10B820000A22084601F020FF08B1072800D10020B5
:10B8300010BD000000B5ABB0AC216846FAF709FEB8
:10B8400002208DF8000000218DF8021006218DF8ED
:10B850000310ADF84C000E48149001208DF87C00C8
:10B860004FF448702290B42023900A4829906946EA
:10B87000094800F09EFE20B108A240F20531FAF717
:10B88000C9FC0121044800F091FE2BB000BD00006E
:10B890009C320020B5110300507800202E2E5C2E23
:10B8A0002E5C2E2E5C6D61696E2E630030B472B614
:10B8B000034B1B68DB0700D000BE30BC00F002B8B1
:10B8C000F0ED00E008B501238DF800309DF8003060
:10B8D000144B186059609A606FF48041401807D08B
:10B8E00001280FD1DA60D86800689861D86807E04D
:10B8F0001A61186980685861186900689861186948
:10B900004068D861186858689868D8681869586994
:10B910009869D86972B600BF9DF800000028FBD175
:10B9200062B608BDC47E002030B542680B4C137966
:10B93000E15C0120FF290ED0FE290DD012684FF4E2
:10B94000A86505EB81015158054A52F82320914220
:10B9500002D1FF20E054002030BD0000A1330020C0
:10B96000647F002003681B8B9BB253436422B3FBAC
:10B97000F2F292B2AFF3008070B50446006816464A
:10B980000D4690F8212001EB450100EB8101022AD0
:10B9900001D0082070BD4968B14205D1C16909B321
:10B9A0006068007988471DE02046FFF7BDFF08B1B9
:10B9B000112070BD61680C4AFE200979505432464E
:10B9C0002946204606F014F92068C06950B1616824
:10B9D000064A0220097902EB4101485502216068BC
:10B9E00005F0F6FA002070BDA1330020787F00201A
:10B9F0002DE9F84F07688946054601EB490897F895
:10BA000021001E46924607EB880410B10820BDE8CD
:10BA1000F88F4FF0000B3248C4F804B0A6720068EB
:10BA200000900A22296802EB8800085C40B10020DF
:10BA30008DF801006946504604F050FFB0B901E0AE
:10BA40000120F5E747F828A04FF001084FF0A0418A
:10BA500008FA0AF016B1C1F80C0501E0C1F80805B2
:10BA60000027E019083005F00BF808B10420CEE7F4
:10BA70007F1CFFB2022FF4D3207A05F059F8607AC8
:10BA800005F056F8206836B104F0D4FE064620686A
:10BA900004F0E6FF05E004F0E3FF0646206804F04A
:10BAA000C9FE07464946686805F083FA0146207AD0
:10BAB000324605F01BF80221686805F07AFA014663
:10BAC000607A3A4605F012F884F80B806968054AF6
:10BAD000097902EB410202F809B0002097E7000063
