:020000040002F8
:10600000C09C0020DD630200E5630200E76302003C
:10601000E9630200EB630200ED6302000000000090
:10602000000000000000000000000000EF6302001C
:10603000F163020000000000F3630200F563020058
:10604000F9A9020095AA02009DB10200F7630200BF
:10605000F7630200F76302001567020001AB02005C
:10606000F763020071AF0200F7630200F7630200FA
:10607000F7630200F7630200F7630200F7630200B0
:10608000F7630200F1AA020081AA02001167020070
:1060900049AC0200F7630200A1AC0200F763020002
:1060A000F7630200F7630200C1AF0200F76302006A
:1060B00051AA0200F7630200000000000000000087
:1060C000F763020061AA020071AA0200F7630200EE
:1060D000F7630200F7630200F763020000000000AC
:1060E00000000000000000000000000000000000B0
:1060F00000000000000000000000000000000000A0
:10610000000000000000000000000000000000008F
:10611000000000000000000000000000000000007F
:10612000000000000000000000000000000000006F
:10613000000000000000000000000000000000005F
:10614000000000000000000000000000000000004F
:10615000000000000000000000000000000000003F
:10616000000000000000000000000000000000002F
:10617000000000000000000000000000000000001F
:10618000000000000000000000000000000000000F
:1061900000000000000000000000000000000000FF
:1061A00000000000000000000000000000000000EF
:1061B00000000000000000000000000000000000DF
:1061C00000000000000000000000000000000000CF
:1061D00000000000000000000000000000000000BF
:1061E00000000000000000000000000000000000AF
:1061F000000000000000000000000000000000009F
:10620000DFF80CD000F0BCF900480047A5EC020014
:10621000C09C002000B583B002900091019244F22E
:10622000010071466A4605F02DFB03B000BD000079
:1062300030B450E8012F93B2C48923448489A34227
:1062400028BF1B1B0489A34202BFBFF32F8F00206E
:1062500007E0C3EA020340E80134002CE9D14FF023
:1062600001000A6030BC704750E8012FC2EA0242C8
:1062700040E801210029F7D1704730B450E8022FDF
:106280001FFAA2F3C488A34202BFBFF32F8F0020DE
:106290000DE0C48923448489A34228BF1B1BC2EAA2
:1062A000034340E80234002CE8D14FF001000A60BB
:1062B00030BC704750E8022FC2EA224240E8022177
:1062C0000029F7D17047034653E8022FD988B2EB73
:1062D000324F4FF0000017BF92B241EA014142EA4B
:1062E000014104E05A68B2EB324F08BF012043E895
:1062F0000212002AE8D1704730B4044654E8000F77
:106300000D4644E80053002BF8D1156030BC7047AF
:1063100030B4044654E8000F40EA010544E8005355
:10632000002BF7D1156030BC704730B4044654E8F8
:10633000000F00EA010544E80053002BF7D1156077
:1063400030BC704730B4044654E8000F80EA0105C1
:1063500044E80053002BF7D1156030BC704730B4CF
:10636000044654E8000F00EB010544E80053002BFD
:10637000F7D1156030BC704730B4044654E8000FC4
:10638000A0EB010544E80053002BF7D1156030BCA9
:10639000704770B404464FF0000054E8006F0D6879
:1063A000AE4207BF44E80023012044E800630E60CA
:1063B000002B1CBF0020F0E770BC704730B40446CF
:1063C00054E8000F88422CBF451A054644E80053A4
:1063D000002BF5D1156030BC70470000064880479F
:1063E00006480047FEE7FEE7FEE7FEE7FEE7FEE7BA
:1063F000FEE7FEE7FEE7FEE7A5AC02000162020051
:10640000202A04DB203A21FA02F00021704721FA09
:1064100002F3D040C2F12002914008431946704770
:1064200040EA01039B0703D009E008C9121F08C016
:10643000042AFAD203E011F8013B00F8013B521E96
:10644000F9D27047D2B201E000F8012B491EFBD20D
:1064500070470022F6E710B513460A46044619466F
:10646000FFF7F0FF204610BD421C10F8011B002969
:10647000FBD1801A704710B5002200E0521C835CEB
:106480008C5CA34201D1002BF8D1D8B2E1B2401A02
:1064900010BD30B504460020034600E05B1C93426B
:1064A00003D2E05CCD5C401BF8D030BD30B5054672
:1064B0000020034600E05B1C934205D2EC5CC85C04
:1064C000201A01D1002CF6D130BD70B5064604F07B
:1064D000C7FE046805460A220021304600F018F87D
:1064E0002C6070BD30B50B460146002020220124EF
:1064F00009E021FA02F59D4205D303FA02F5491B92
:1065000004FA02F52844151EA2F10102F1DC30BDA7
:106510002DE9F04791460F4680460446002614F8C0
:10652000015B2DB100F03EF80068405DC007F6D178
:106530002B2D02D02D2D18D0641E4A4639462046F8
:1065400000F034F827B13968A14201D1C7F80080C2
:1065500071054FF002040BD54042002803DD04F022
:106560007FFE0460A007BDE8F08746F48066E4E79C
:106570000028F8DA04F074FE04606FF00040F2E7DF
:10658000064C074D06E0E06840F0010394E8070080
:1065900098471034AC42F6D3FFF736FEB4690300D7
:1065A000D469030000487047686903002DE9F05F73
:1065B00082460078002715468B460AF10104B94649
:1065C000302801D09DB113E014F8010B0127782881
:1065D00003D0582801D045B10AE00DB1102D07D1E4
:1065E0000027102514F8010B02E0082500E00A2519
:1065F0000026B0460EE005FB080005FB06F101276A
:1066000001EB10461FFA80F8B6F5803F00D3B9467B
:1066100014F8010B294600F018F80028EBDABBF15A
:10662000000F05D00FB1641E00E05446CBF80040C7
:10663000B9F1000F06D004F013FE02210160C81E5C
:10664000BDE8F09F48EA0640FAE73A2800D2303821
:1066500020F02002412A01D3A2F13700884201D361
:106660004FF0FF30704770B58C1810F8015B15F0D3
:10667000070301D110F8013B2A1106D110F8012BB4
:1066800003E010F8016B01F8016B5B1EF9D12B07D9
:1066900005D40023521E0DD401F8013BFAE710F88F
:1066A000013BCB1A921C03E013F8015B01F8015B7C
:1066B000521EF9D5A142D8D3002070BD30B50024B8
:1066C0001FE000BF51F82450854219D2B4B101EB4C
:1066D000840351F8241053F8045C02EB840352F84D
:1066E000242053F8043C401A9C1A6043691AB0FBFA
:1066F000F1F01044984200D9184630BD106830BD02
:10670000641C9C42DED302EB830050F8040C30BDC5
:1067100001F076B82DE9F8430025DFF894804FF4B6
:10672000807601242F460095304609F07BFD38B174
:10673000D8F80403204203D0304609F069FD254310
:10674000361D64007F1CB6B2082FEDD34FF4BE7423
:10675000204609F067FD48B1204609F059FD45F093
:1067600000456A460121002009F02CFD15F0FF0FBD
:1067700016D0012600242E420ED008EB8401D1F859
:106780001005D1F81015C0F304200A4AC1F30141E5
:1067900052F8242002B190477600641C082CEAD3FA
:1067A000002D02DA68460BF02FF9BDE8F8830000EF
:1067B00000600040F47D002008480068401E40F062
:1067C0000101074801610749096B012903D04FF016
:1067D000FF31416170470021FBE70000D42B00200E
:1067E000D0310020EC76002030B589B0002852D09E
:1067F0002E49012008602E4D0024281D07C88DE871
:1068000007008DF802408DF80340694604200AF025
:10681000CFFA18B127A24C21FFF7FCFC05F11000BC
:1068200003AB07C883E807008DF80E408DF80F40D2
:1068300003A905200AF0BCFA18B11EA25221FFF7E5
:10684000E9FC1C3506AB95E8070083E80700042047
:106850008DF81A008DF81B4006A907200AF0A8FA47
:1068600018B114A25921FFF7D5FC03211B480AF0E7
:106870004DFA18B10FA25C21FFF7CCFC1748032199
:10688000801D0AF043FA002803D00AA25D21FFF719
:10689000C1FC09B030BD124905480AF0DFFA0028F2
:1068A000A9D004A24321FFF7B5FCA4E7007500407E
:1068B000583503002E2E5C2E2E5C2E2E5C2E2E5C68
:1068C0002E2E5C2E2E5C2E2E5C2E2E5C2E2E5C2E02
:1068D0002E5C4C4C5F4144432E6300003234002058
:1068E000D12203000AF004BB0449002008600449D7
:1068F00001228A60C1F80401704700000075004061
:106900000070004010B50146064805F038FE18B189
:1069100005A25921FFF77EFCBDE810400121014886
:1069200005F02ABE307800202E2E5C2E2E5C2E2EF6
:106930005C6D61696E2E630010B50321054805F09A
:10694000D3FE002805D0BDE8104003A25D21FFF76B
:1069500061BC10BD307800202E2E5C2E2E5C2E2EB9
:106960005C6D61696E2E6300024890F8540074DF1C
:1069700070470000307800201FB500200190029081
:10698000039016480090164A6946164808F0F2FD32
:1069900018B1154AF221FFF73DFC14A2002111485D
:1069A00008F068FD18B1104AF321FFF733FC00220C
:1069B0001F210C4808F0BBFD18B10B4AF521FFF769
:1069C00029FC084808F0FAFE002806D004B0064A60
:1069D000BDE81040F921FFF71DBC1FBDB2310020FA
:1069E000492303004C4B00206C6903004C4D4D00C3
:1069F00010B5044608F004FF084954B108488ADF7E
:106A000000280AD0BDE81040064A4FF48771FFF70E
:106A100001BC03480E388ADFF2E710BD984C002015
:106A2000C03100206C69030010B5044692B03C21CF
:106A30001748FFF70EFD3C216846FFF70AFD0221CB
:106A40008DF8001001208DF8020006228DF8032039
:106A5000104A1170507091700420ADF840000C483D
:106A60001192ADF83C400FAA4262018209490246E8
:106A7000083141616946A0F2344005F02DFD00283F
:106A800004D005A24FF43B71FFF7C4FB12B010BD58
:106A9000647C0020743200202E2E5C2E2E5C2E2E64
:106AA0005C6D61696E2E630013B5044901AA4B88C1
:106AB000014602482C3006F0ABFC1CBD58320020C9
:106AC000002301220421184600F0E6BF00F092B82E
:106AD00010B5002302221E21184601F009F80122F8
:106AE0001E21002001F02AF8034C204604F07EFA13
:106AF0004FF0FF30206110BDA04A002030B517488C
:106B000089B04FF0FF310469621C05D102681AB3E5
:106B1000C368B3FBF2F40461601C1DD0FFF7D6FF1D
:106B20000F4948B12DC98DE82D000FC904AD85E886
:106B30000F00042304AA09E0203103AD0DC98DE83C
:106B40000D0007C985E80700032303AA694620460C
:106B5000FFF7B4FD09B030BD0846FBE7A04A0020AE
:106B6000FC35030070B5FFF7B1FF1D4D1D4904460C
:106B700028680968884201D8081A01E0C04308441F
:106B8000322802D92960FFF7ADFE1748696802680C
:106B9000914224D0006868601448006814494A682B
:106BA000824200D248608A68824200D98860CA68FE
:106BB0000244CA600868431C0B60B0F5166F0ED320
:106BC000B2FBF3F00A6914B1824202D302E08242BE
:106BD00000D90861BDE87040054804F007BA70BDEF
:106BE000942D0020D42B0020E42B0020D82B002053
:106BF000A04A002010B50421002000F06FFF08B16A
:106C0000002010BD012010BD10B5002001F0ECFEE9
:106C100001490020886210BDD0310020104810B515
:106C2000807838B1012801D002280FD1BDE810408A
:106C300000F01CB80B480A4C406B443C00284FF055
:106C4000000004D001F0D0FE0020A06210BD01F0D1
:106C5000CBFE05480068401E40F00100F5E700004B
:106C600014320020EC760020D42B002070B514489C
:106C7000144C406B50B10025012811D0022813D0CC
:106C8000032819D0002001F0AFFE13E0002001F02E
:106C9000ABFE0D480068401E40F00100A06270BDD0
:106CA0007D2140F2771202E07D2140F253720020F4
:106CB00001F030FEA56270BD7D2140F62372F6E73B
:106CC000EC760020D0310020D42B00200248002197
:106CD0000160416070470000CC2B0020014AC2E9EE
:106CE00000017047CC2B00201CB562494FF0010B0E
:106CF000002581F800B02E464FF4E1675A461B216B
:106D0000284600F01BFF01220521002000F016FF9D
:106D100001F0ACFD584890F8540074DF5748132137
:106D2000408876DF4FF4A8515548FFF792FB1620B4
:106D300000F05CFB5348DFF850A18146D0F80040DA
:106D4000FFF710FF01F09CFD16B1012E1BD10AE0E8
:106D5000684601F05DFDB0B10098A0B90198012826
:106D600011D101260FE0684601F052FD58B100989C
:106D700048B9019838B9002615B1012D02D002E0BA
:106D8000012500E00025D9F80000844201D8011B4C
:106D900001E0E1430144B94268D3044675BB3B4876
:106DA00000684FF461614843C11700EB91508112B4
:106DB000374800684FF461625043C21700EB9250AD
:106DC0008012B1F57A7F04D9642802D24FF0FF080F
:106DD00014E0B8F1FF0F06D0FFF790FE1421B0FBCE
:106DE000F1F000F0FF082B48816B39B1B8F1000FCA
:106DF00004D000218163CAF800B003E0DAF8000093
:106E0000012804D100F0A2FD0020CAF800004FF4D0
:106E1000A8512148FFF71DFBFDB9B8F1050F01D3BB
:106E20001C2018E0B8F1040F0CD0B8F1030F0BD000
:106E3000B8F1020F0AD0B8F1010F09D0B8F1000F74
:106E400008D00AE01B2006E01A2004E0192002E026
:106E5000182000E0172000F0C9FAFFF7CBFE28B990
:106E6000CAF800B003F06CFB03F0D2FB02F0A6F806
:106E700066E70000D0310020307800205832002032
:106E8000C84C0020D42B002048320020DC2B0020EE
:106E9000E02B0020EC760020C8610020014800684B
:106EA000704700000415014007480068074906C9FB
:106EB000884201D3401A03E06FF07F43591A084417
:106EC000104420F07F40704704150140CC2B002077
:106ED00002490A680249C1E90020704704150140CF
:106EE000CC2B00202DE9F04717460C465FEA00093D
:106EF00055D0002C53D0302C51DC002523E000BFAE
:106F000005EB4500C0EB451007EB8006301D7021F6
:106F1000FFF79FFA0020C5EBC501224B09EB810268
:106F20008446115C0E2906D206EB800853F8211026
:106F3000C8F8041003E006EB8001C1F804C0401C4F
:106F40001C28EEDB6D1CA542DADB302090FBF4F050
:106F5000C3B2012B23D901221FE000211AE001EB6B
:106F60004105C5EB411507EB850604FB021505EB52
:106F7000450CCCEB4515002007EB850506EB800C96
:106F800005EB8008DCF804C0401CC8F804C01C28CD
:106F9000F4DB491CA142E2DB521C9A42DDDBBDE876
:106FA000F0870000786503002DE9F04791460E4612
:106FB00007002AD0002E28D0302E26DC002422E024
:106FC00004EB4400C0EB441109EB8105281D70213E
:106FD000FFF73FFA0020C4EBC4010D4B07EB810221
:106FE0008446115C112906D205EB800853F8211064
:106FF000C8F8041003E005EB8001C1F804C0401C90
:107000001C28EEDB641CB442DADBBDE8F08700002C
:10701000B06503002DE9FF5F91460E9F0C465FEAC5
:10702000000A45D0002C43D0002527E005EB4500A1
:10703000C0EB451109EB8106301D7021FFF709FAFD
:107040000020C5EBC501264A0AEB81038346195C83
:10705000A1F1010CBCF10D0F08D206EB800852F82B
:1070600021C0C8F804C052F8218003E006EB800C70
:10707000CCF804B0401C1C28E9DB6D1CA542D5DB14
:107080000398012812D0C7F11C0125E004EB44014C
:10709000C1EB4411002009EB810104E001EB800306
:1070A000401CC3F80480B842F8D3641C302CEDDBDC
:1070B000BDE8FF9F04EB4402C2EB44121B2009EB26
:1070C000820204E002EB8005401EC5F80480814284
:1070D00001D80028F6DA641C302CEBDBE8E700006E
:1070E00078650300F0B50E4D0024264648F20E01E7
:1070F00048F2060205F1540707202B78C34013F02D
:10710000010F01D00B4600E0134627F83430401E33
:1071100004F10104F1D56D1C761C542EECDBF0BD9E
:1071200064340020F0B50F4C0026354648F20E01BD
:1071300048F2060204F1540707202378C34013F0F5
:10714000010F01D00B4600E0134607EBC60C401EB2
:10715000ACF8023006F10106EFD5641C6D1C542D0D
:10716000EADBF0BD64340020084810B5417851B125
:1071700000214170012300F11C011A46143009F06E
:107180006DFD002010BD112010BD0000E82B002077
:1071900070B50E4B0E4AC0EBC000002103EB00138C
:1071A00003EB810001EB41058068AC18060C6670AA
:1071B000060A491C5655C9B2A0701C29F0D3FFF726
:1071C00091FFBDE8704000F041B80000C04C0020C5
:1071D0006434002030B5034600201B2B00D9072063
:1071E00001B1072003EB4304054B01EB41012344AC
:1071F0005C18150C6570150A5D54A27030BD000056
:107200006434002070B50F4B0F4AC0EBC000002162
:1072100003EB001303EB810000F5805001EB410507
:10722000D0F80805AC18060C6670060A491C5655BD
:10723000C9B2A0701C29EDD3FFF774FFBDE8704000
:1072400000F004B8C04C00206434002010B50024C5
:10725000002211462046FFF7BDFF002803D1641C21
:10726000E4B21C2CF4D310BD2DE9F041ADF5B05DB6
:10727000044601AD4FF4AE512846FFF7EAF84E48F8
:107280004FF4A85631460746FFF7E3F822464B482D
:10729000494C0F210C230068083C1E2A13D2DFE85A
:1072A00002F00F0F0F161A1E25122A122F35565DE7
:1072B000646B70757982127D12121212121212878B
:1072C000012000F09FF90DF5B05DBDE8F0810120CF
:1072D00001F0A0FCF7E721802A46394803E010219D
:1072E00021802A463748FFF7FDFD17E001210020E5
:1072F00001F096FBE7E70121334801F00FFCE2E7DC
:107300002180009001232A46304805E01321218086
:10731000009001232A462E48FFF77CFE002000EB58
:107320004002C2EB401205EB8203C0EBC002002119
:1073300004EB021203EB810602EB81077668491C1D
:10734000BE601C29F6DB401C3028E8DBBBE71521BA
:107350002180009001232A461E48DDE71921218063
:10736000009001232A461C48D6E730202080314671
:107370003846FFF76EF8A6E723802A4619461748D5
:10738000B1E723802A4619461548ACE7012001F0F1
:1073900021FD98E7012001F081FD94E71C21218067
:1073A0002A4610489FE7012121802A460E489AE785
:1073B00001F0E4FC87E70000C84C002010320020F8
:1073C000245E0300112E002005060C00344C03003F
:1073D000D84D0300EC4F030038520300C8360300B9
:1073E0006839030014460300083C03002DE9F04708
:1073F000ADF5B05D074601AD4FF4AE512846FFF73D
:1074000028F86D484FF4A85949468246FFF721F8FD
:107410006A480F210C2330260068694C4FF0100C8D
:107420004FF001081E2F14D2DFE807F00F0F0F17DF
:107430001C2028132F13353B454C535B6065697244
:10744000786D7EA0A6ACB1B7BCC26680022000F009
:10745000D9F80DF5B05DBDE8F0876680022001F037
:10746000D9FBF6E761802A46564804E06146A4F855
:1074700002C02A465448FFF735FD5BE0A4F802C07D
:107480000221002001F0CCFAE3E702214FF4302082
:1074900001F044FBDDE76180009002232A464B485F
:1074A00005E013216180009002232A464848FFF737
:1074B000B1FD66803EE015216180009002232A46DE
:1074C0004448F4E719216180009002232A4642488B
:1074D000EDE749465046FEF7BCFF01F0F7FB608040
:1074E000B7E7194663802A463C48C4E719466380DB
:1074F0002A463B48BFE7022001F06CFCA9E70220C6
:1075000001F0CCFCA5E71C2161802A463548B2E792
:107510004146A4F802802A463348ACE702213248AB
:1075200061802A461C30A6E7252161802A462F4823
:10753000FFF73AFD002101EB4102C2EB4112C1EB22
:10754000C103002005EB820204EB031302EB80066B
:10755000776803EB800606F58056401CC6F8087570
:107560001C28F3DB491C3029E5DB72E718211E4893
:1075700061802A4654307EE76146A4F802C02A465C
:107580001B4878E7194663802A461A4873E7614624
:10759000A4F802C02A4618486DE7194663802A46B7
:1075A000164868E74146A4F802802A46144862E774
:1075B00001F0E4FB4DE70000C8610020103200201C
:1075C000C04C0020C85F0300D12F0020F4540300FA
:1075D00098560300AC580300F85A0300183803000B
:1075E000B83A030024490300243C03006C61030003
:1075F000183F0300D840030028420300E84303007B
:10760000384503002DE9F05FDFF8B0A006460C25F1
:1076100030249AF82600012E1FD0022102F0C2FE6B
:10762000DFF89CB08146002101FB05F0B0FBF4F2CD
:10763000B4FBF5F0B1FBF0F300FB1310530029FA93
:1076400003F212F003034FF000020AD0012B06D020
:10765000022B04D0032B04D102E00121DEE700B9A4
:1076600001229AF82670C1EBC10C07EB47070AEB21
:10767000870300200BEB0C17012E03D06AB1D3F85F
:1076800088C00CE012B1D3F884C001E04FF0000CC8
:1076900007EB8008C8F808C007E04FF0000C07EBC4
:1076A000800808F58058C8F808C5401C1C28E3D39A
:1076B000491CA142B8D3BDE8F09F0000EC76002041
:1076C000C04C002070B515460C460A468AB00146EB
:1076D0001E460DF10500FEF7A3FE8DF800408DF863
:1076E00001508DF80360684608F088FB0AB070BD51
:1076F000254A10B51078052807D02448C178491CC0
:10770000C1705168012909D020E0214808F00EFA23
:1077100080BB1F48001D08F041FA32E04178A9B94A
:107720001C4B1D491A6809688A4201D88A1A01E06F
:10773000D2430A44B2F5FA7F08D38278521CD2B2FF
:107740008270022A01D3002282701960134C94F8CF
:10775000E51099B104F1E10008F0E8F9002811D131
:1077600094F8E000012806D00D4800BF08F016FA92
:10777000002807D105E00648001DF7E7807800F0F3
:1077800011F8002010BD0000143200207C2C0020D5
:1077900090350300C4320020D42B0020EC7600206A
:1077A0002D34002070B5134D01228240E97D114235
:1077B00011D000EBC0004419601D08F0B7F9002893
:1077C00008D195F8E000012811D004F1090000BFAC
:1077D00008F0E4F970BD0748E13008F0A7F9002887
:1077E000F8D195F8E000012801D00348F0E70348FC
:1077F000EEE70000EC7600202D34002094350300E5
:1078000002F0F2BFF0B5184E002404EB440500234B
:1078100006EBC50555F8237087421AD10C7053B199
:10782000012B0AD0022B0AD0032B0AD0042B0AD03A
:10783000052B0AD00BE0002008E01E2006E03220D5
:1078400004E0462002E05A2000E0FF2010700120F2
:10785000F0BD5B1CDBB2062BDCD3641CE4B2082C4D
:10786000D3D30020F0BD000054450300F0B5334CE5
:107870008DB001206070A070E070314806F026FEE7
:1078800006F016FD00E041DF20780028FBD014212F
:107890006846FEF7DEFD684606F030FE00250595D9
:1078A00006950795089508AB05AA47F2100148F21E
:1078B0001000099506F0B6FDD0B10AF079FF1F4817
:1078C000EC222049001DFEF7ABFD65701E4905A89E
:1078D00006F0F8FDBDF8040001282DD9E57005A8D3
:1078E00006F07EFD00264FF47A77E078B0B90EE01E
:1078F0000A950AA905A80B9506F09CFDEC221148F3
:107900000B99FEF78DFD05A806F046FDE2E7012084
:1079100007F098FF761CB6B2BE42E6D3A57006F01B
:10792000A7FC0025A078002806D1012007F08AFFD7
:107930006D1CADB2BD42F5D30DB0F0BDA42C00203E
:1079400039E20200EC760020A8350300F0B58BB0D8
:1079500000240094019402940894EC221F492048CA
:107960000994FEF75DFD08AB6A4647F2100148F244
:10797000100006F057FD00282DD1194D2D1F6C70F9
:107980001849684606F096FDA0F5064106391BD158
:10799000AC7006F06DFC00264FF47A77A87830B909
:1079A000012007F04FFF761CB6B2BE42F6D3A8788E
:1079B0000D4E30B16C700B49684606F07BFD3460AB
:1079C00002E0012068703060142103A8FEF741FD39
:1079D00003A806F093FD0BB0F0BD0000EC7600208C
:1079E000A82C0020A835030048320020F0B58BB049
:1079F00000250095019502950895EC222049214823
:107A00000995FEF70DFD08AB6A4647F2100148F2F2
:107A1000100006F007FD00282FD11A4C241F6570B6
:107A20001949684606F046FDA0F5064106391DD104
:107A3000A57006F01DFC002640F6A427A07830B9FA
:107A4000012007F0FFFE761CB6B2BE42F6D3657089
:107A50000D49684606F02EFD0025607830B90120FA
:107A600007F0F0FE6D1CADB2BD42F6D3142103A8A1
:107A7000FEF7EFFC03A806F041FD0BB0F0BD0000DF
:107A8000EC760020A82C0020A8350300014840789F
:107A900070470000A42C00201CB508460021012AD4
:107AA00002D0022A03D101E0032100E00121022BD0
:107AB00009D0012B09D00B46002100910A46019103
:107AC00008F037FB1CBD022200E0032208F05EFB39
:107AD000BDE81C40012007F0A5BE00000348006877
:107AE00001228A401040C840704700001005005035
:107AF00010B5114C0120884020600024012A02D0DA
:107B0000022A03D101E0032400E00124890001F5E9
:107B1000E06101F1A0410A6822F00C020A600A68E3
:107B200042EA84020A60012B03D003490C39086041
:107B300010BD01491039FAE71805005001208840AE
:107B4000012A02D00249086070470149091FFAE77B
:107B50000C0500502DE9F047002492468946234643
:107B6000FF2804D0642805D34FF0040206E04FF04C
:107B7000050203E04FF01401B0FBF1F2DFF8608082
:107B8000D9F80070DAF800604FF0000101EB410510
:107B90004FF0000008EBC50555F820C0BC4500D1EA
:107BA0000C46B44500D10B46401CC0B20628F3D3A6
:107BB000491CC9B20829E9D304EB440008EBC00012
:107BC00050F8221003EB430008EBC000C9F8001086
:107BD00050F822100120CAF80010BDE8F08700001C
:107BE00054450300F0B5082800D3072000240F4DAA
:107BF0000E68234603EB4307002205EBC70700BFCF
:107C000057F822C0B44500D11446521CD2B2062AFD
:107C1000F6D35B1CDBB2082BECD300EB400005EB8A
:107C2000C00050F8240008600120F0BD5445030056
:107C300030B5002202704FF08052136E4370136E05
:107C40001B0A8370136E1B0CC370136E1B0E037123
:107C5000536E4371536E1B0A8371536E1B0CC371B9
:107C6000526E0023120E02721F241A46855C521CAB
:107C700003FB0453092AF9D30B6030BD70B5394DAD
:107C8000394E3A4CAA78B1788A4221D02046406BCE
:107C900092B1012A02D0022A1FD105E0042824D083
:107CA0003249B231002004E0042823D02F490020BB
:107CB000BC3100F047FE0BE004280ED0012904D1AE
:107CC0002A490020C63100F03DFEB078022808D0D5
:107CD000A878012809D002280CD0E87801280ED015
:107CE00010E02249D0310020E3E70F20FFF7BCFA73
:107CF0000F2030E01020FFF7B7FA10202BE0206BA8
:107D0000012806D06878D8B101281CD0022824D1D7
:107D10001CE094F82600022102F044FB6FF07F4142
:107D200088424FF0130003D1FFF79EFA142002E0BF
:107D3000FFF79AFA1320FFF759FB00F05FFD0CE004
:107D400014F8270F04E014F8280F01E014F8290FA5
:107D5000FFF78AFAE078FFF749FBD5E90001C6E9A9
:107D6000000170BD143200201C320020EC7600208F
:107D7000084910B506200870074890F8A400182894
:107D800004D100221031054802F022FEBDE8104067
:107D9000FEF73ABF14320020EC760020C8760020AF
:107DA00070B5012205210020FFF7C8FE1F490320FE
:107DB0000870FEF7A3FE1D4CC0B2443C502803D906
:107DC0001C200D2520640EE03C2803D915200C252D
:107DD000206408E0282803D912200B25206402E043
:107DE0000C200A252064124E96F8A400182805D10C
:107DF0000E49012210310F4802F0EAFDB06B012854
:107E00000BD00D4900202070888096F82600284667
:107E1000FFF72AFA2846FFF7E9FA0022074908483F
:107E200002F0D6FD07480068E06370BD1432002000
:107E3000EC760020C8760020C04C0020A436030059
:107E4000C44A0020D42B0020074900200870887005
:107E5000C8704439D1E9112388630448C1E9132368
:107E60000068C8637047000014320020D42B002043
:107E700070B5104C04202070617801200025A1B15C
:107E8000012914D065700C4A617882F826100B49DC
:107E9000086002F0B1FAE570FFF7F0FE0548084906
:107EA000443885630968C16370BD6070EBE70221E7
:107EB0006170E8E714320020EC76002048320020A0
:107EC000D42B0020064907200870054800214438BB
:107ED000816304490968C163034901200860704750
:107EE00014320020D42B002048320020104810B556
:107EF00004210170012141600E4991F82610417062
:107F0000FFF7BCFE00220C490C4802F061FD002284
:107F10000B490C4802F05CFD0B4802F063FD04487D
:107F200000214438816309490968C16310BD00001C
:107F300014320020EC760020B0360300C44A002042
:107F4000D0660300B04C0020A04C0020D42B0020B1
:107F500010B515480521002401700121416084708D
:107F6000C470FFF78BFE40F20110FEF75DFD04F0D8
:107F7000E3F80820FFF778F90820FFF737FA002226
:107F80000A490B4802F024FD621E0A490A4802F021
:107F90001FFD0A4802F026FD03480949443884635E
:107FA0000968C16310BD000014320020B036030020
:107FB000C44A002080660300B04C0020A04C002082
:107FC000D42B002070B51248114C01250570443C9B
:107FD0000020A0630F480068E06300F047FC002326
:107FE0002570022203211846FFF782FD012203219A
:107FF0000020FFF7A3FD012205210020FFF79EFDD1
:10800000BDE8704001221B210020FFF797BD000052
:1080100014320020D42B0020084910B5022008702B
:10802000012205210020FFF789FD04480021443882
:108030004163816302490968C16310BD14320020A5
:10804000D42B00202DE9F0413C4E0027A6F144043A
:108050003078082828D2DFE800F004070A0D101352
:10806000162500F0BFF81FE000F0A6FA1CE000F0B3
:108070002FFB19E000F070F816E000F095F913E01E
:1080800000F034FA10E02E48277087800E20FFF7AA
:10809000EBF80E20FFF7AAF92A48006820B9FFF78D
:1080A00011FF01E000F0E0F8274802F02BFC274820
:1080B00002F028FC234802F025FC254DA06AA0B15F
:1080C0002968884201D8081A01E0C04308447D2885
:1080D00003D2002000F096FC07E0B0F5FA7F03D24F
:1080E000002000F081FC00E0A762F07828B1E16A8E
:1080F0002868814204D8401A04E02868E06207E05A
:10810000C9430844B0F5FA6F02D9F770FFF7B6FD1E
:10811000B07828B1206B2968884205D8081A05E094
:1081200028682063BDE8F081C043084409498842BB
:10813000F8D9B770BDE8F041FFF7A0BD14320020B8
:10814000C04C0020C8760020C44A0020B44A002059
:10815000D42B0020C0D401001CB51D4800680028A5
:1081600018D11C480068002814D11B48806B0128D6
:108170000CD01A4C207800280CD0E06858B1684622
:1081800000F046FB68B1009840B10AE000F0EAFE5A
:10819000FFF798FE1CBDFFF7A9FE1CBD0198002843
:1081A000F9D00F48E16B0068814201D8401A01E024
:1081B000C9430844B0F5FA6FEFD9002000F038FB4E
:1081C000E0680028E7D00020E060FFF7C1FE1CBD9A
:1081D000C8760020C44A0020EC760020D031002070
:1081E000D42B00207CB51E4C1E4DA06B40B1012845
:1081F00023D1684600F00CFB10B30098F0B11FE0EB
:10820000684600F005FB48B1009838B9019801288C
:1082100004D12868E063A06B401CA063E06B296870
:10822000884201D8081A01E0C0430844B0F5FA6F4B
:1082300003D902F085F902F0EBF97CBD019858B141
:10824000E06B2968884201D8081A01E0C04308445D
:10825000B0F5FA7FF1D90120E060FFF7A1FD7CBD08
:10826000D0310020D42B0020F0B5454C454D2046A0
:10827000D4F838C0C26B2B68D043991A424E85B0EF
:108280004FF4FA771844BCF1070F3CD2DFE80CF04A
:10829000040910282F3D45003CA1684602F084FFE8
:1082A00012E09A4200D80846B8422CD9022029E0B0
:1082B000FEF724FC024636A1684602F075FF6846C8
:1082C000FEF7D2F8ADF810006846FEF7CDF8ADF82D
:1082D0001000338804AA69462F4805F099F80DE08C
:1082E0009A4200D80846B8420DD904200AE03088E6
:1082F000A0F57F41FF3901D0132176DF2868E063C4
:10830000A06B401CA06305B0F0BD9A4200D808469F
:10831000B0F5FA6FF7D90620F4E7204CD4E9010153
:10832000FFF7DCFB0128EED102F0B2F81C4D1D4E28
:10833000012700BF07F0ACFFD4E90101FFF7CEFB36
:10834000E168884200D02F70307829780843F1D056
:1083500000F08CFA0A4F28780024443728B12C709A
:1083600002F02AF9BC70FFF76FFD30780028CAD000
:10837000347002F021F9BC70FFF712FDC3E7000072
:10838000D0310020D42B00205A3200204453430027
:10839000424C3A257500000084320020BC2D00209C
:1083A000CE310020B03100202DE9FC41454C464F34
:1083B000464DA06B4FF4FA78002610B1012850D139
:1083C0000EE0684600F024FA88B3009878BB019864
:1083D000012846D12868E063A06B401CA06340E000
:1083E000684600F015FA18B1009808B9019828B14C
:1083F000E16B286881421BD8401A1BE0A1692868FC
:10840000814201D8401A01E0C9430844404509D2DD
:1084100000222F492F48E66102F0DAFA2E4802F0D6
:10842000E1FA01E00120E061A6632868A06118E09C
:10843000C9430844B0F5FA6F13D9002000F0F8F9E9
:1084400000222649234802F0C3FA234802F0CAFA60
:1084500097F8E600012802D1214903200870FFF7B0
:1084600087FC184897F82610443042788A4206D094
:108470004170C670FFF702FCA6632868E063E069FC
:10848000012817D1A0692968884201D8081A01E09B
:10849000C043084440450DD9FFF7EAFC02F0AEFDA9
:1084A000002210490B4802F093FA0B4802F09AFAA6
:1084B0000220E0610C480078012801D1FFF758FC48
:1084C000BDE8FC81D0310020EC760020D42B0020C8
:1084D0000C670300B04C0020A04C00203C67030058
:1084E000FC2D0020E8660300593200207CB52D4C9D
:1084F0002D4DA06B10B101284DD10EE0684600F063
:1085000087F978B3009868BB0198012843D128689F
:10851000E063A06B401CA0633DE0684600F078F982
:1085200018B1009808B9019828B1E06B2968884211
:1085300027D8081A27E0206A0021401C2062012861
:1085400005D0626A2B689A4204D89A1A04E0286817
:10855000606212E0D2431A4441F288339A4202D94F
:1085600021620AE017E0052807D3104A2162104B68
:10857000156B01201DB111631860A1630BE010633E
:10858000FAE7C0430844B0F5FA6F04D9002000F0C0
:108590004FF9FFF7EDFB07480078012801D1FFF7FD
:1085A000E7FB7CBDD0310020D42B0020EC760020EE
:1085B00048320020593200207CB5FEF79FFA3E4930
:1085C00009684FF461625143CA1701EB92518A1254
:1085D0003A4909684FF461635943CB1701EB935152
:1085E00089124FF47A754FF4C843AA4205D9642919
:1085F0000CD3A94201D9324C09E0642A07D2A9421E
:1086000005D9142802D84FF4C80400E01C462D4DAB
:108610000021C1EBC102002005EB021303EB800235
:10862000401C946002F580521C28C2F80845F5DB16
:10863000491C3029EDDB244C244DA06B40B10128AE
:1086400026D1684600F0E4F8B8B1009898B114E07B
:10865000684600F0DDF800281AD00098002817D1ED
:108660000198012814D1002001F02CFE2868E06355
:10867000A06B401C0BE0019828B1E06B2968884290
:1086800007D8081A07E0002001F0ECFD0020A063E5
:108690007CBDC0430844B0F5FA6FF9D9002000F062
:1086A000C7F8002203211046FFF748FA002001F026
:1086B000D9FDFFF75DFB7CBDDC2B0020E02B00200B
:1086C0000080FF00C04C0020D0310020D42B0020BF
:1086D000FEB5434C434D0226A16B2868052949D2BB
:1086E000DFE801F0030A173B54001D20FEF7BCFD34
:1086F0001D20FEF77BFE2AE0E16B814201D8411A82
:1087000001E0C9430144B1F5FA7F33D9C4E90E60F1
:1087100030E0FEF7F3F9411C2CD03449324A51F8CD
:10872000013F93614968D16102F1180101230E7282
:108730004B722F4B8E72DE6906EBC606334453F83C
:10874000056FC2F823605B68C2F827300874286898
:10875000E063A06B401CA0630CE01120ADF80000AA
:10876000244821496A4603881831234804F050FE02
:108770000028ECD0606860B101281AD101A800F08F
:1087800047F80026C0B10198A0B115E0E0630520CC
:10879000E1E701A800F03CF800280AD00198002881
:1087A00007D10298012804D12868A0606068401CA5
:1087B0006060FEBD029828B1A0682968884203D88D
:1087C000081A03E06660FEBDC0430844B0F5FA6FC6
:1087D000F9D9002000F02CF86660FFF7C9FAFEBD59
:1087E000D0310020D42B0020C07600202834002077
:1087F000EC7600205A3200208432002002480349DF
:108800000068C86270470000D42B0020D0310020DF
:10881000064A11684B1C07D001604FF0FF31116010
:10882000516841600120704700207047B42D00203E
:10883000024A012142F8201070470000B02D0020AC
:1088400010B5084CD4E90101D4E90423FFF724F959
:108850000548A4F1140100680860091DE06808607B
:1088600010BD0000BC2D0020D42B002003480023A5
:10887000026981684068FFF70FB90000BC2D002035
:108880002DE9F0411C484FF000050168491C0160CA
:1088900000D00560184C06681834D4E90101FFF7D0
:1088A0001DF9A4F11003154A1F68191F874203D14F
:1088B00010680860BDE8F0810F681268974201D81F
:1088C000D71B01E0FF431744D4F818C06745F1D324
:1088D0000A60094A18600C32E368111D834205D111
:1088E00010680028E6D1C1E90065E3E701201560C2
:1088F000C1E90050DEE70000A42D0020D42B0020A9
:10890000034B00EB800203EB8202D16001F0CEBB8F
:10891000D44A002030B5094C00EB8003204654F8BF
:10892000235000EB8300022D02D0054DAD68056198
:10893000022544F82350C0E9011230BDD44A00207A
:10894000D82D00202DE9F04782460F46088822499D
:10895000224DB1FBF0F0DFF888900AEB8A064FF069
:10896000050805EB8604884208D164210020FFF742
:10897000C7FF40F6B83060601A4825E0A0F57431B2
:10898000903918D032210020FFF7BAFF00210846A5
:108990003A18401C927806281144F9DB32204143F2
:1089A00014D0C4E9011700BF45F82680D9F80000AB
:1089B0002061BDE8F08764210020FFF7A1FF4FF49C
:1089C0007A60606007480A30A060EDE75046BDE875
:1089D000F04700F009B8000040420F00D44A0020E0
:1089E000D42B0020E42D002010B5044601F03AFC01
:1089F000034A04EB8401002042F8210010BD00006E
:108A0000D44A002010B5044601F05CFC034A04EB94
:108A10008401012042F8210010BD0000D44A00204A
:108A20002DE9F04F0C253024394EDFF8E880DFF8CF
:108A3000E8B08E4600204FF0FF094FF4480A00BF0F
:108A400000FB05F1B1FBF4F2B4FBF5F1B0FBF1F37F
:108A5000520001FB130126FA02F212F0030252D077
:108A6000012A04D0022A02D0032A4CD100E059BBCB
:108A700098F80010BEF1010F06D031B3002188F83C
:108A8000001052464B4625E029B1002188F800101D
:108A90004A46534604E0012188F8001052464B46EE
:108AA000C0EBC00700210BEB071700BF07EB810CE1
:108AB000491CCCF808200E29F8D30E2107EB8102BF
:108AC000491C93601C29F9D31DE0012188F800108E
:108AD0004A465346C0EBC00C00210BEB0C1700BFFD
:108AE00007EB810C0CF5805C491CCCF808250E299D
:108AF000F6D30E2107EB810202F58052491CC2F821
:108B000008351C29F6D3401CA04299D3BDE8F08F4C
:108B1000A00AAA00102E0020C04C0020F0B50027AB
:108B20003B4B01293FD002293CD1002100224C1CA3
:108B3000C1EBC105444303EB051500BF05EB8206FD
:108B400006F58056521CC6F808451C2AF6DB491C5F
:108B50001429EBDB14240021C4F12802C4EBC40562
:108B6000424303EB051500BF05EB810606F5805671
:108B7000491CC6F808251C29F6DB641C282CEADBF6
:108B80002820C0EBC002002103EB021202EB81049B
:108B900004F58054491CC4F808751C29F6DB401CF8
:108BA0003028EEDBF0BD002100224C1CC1EBC105DA
:108BB000444303EB051500BF05EB8206521CB4606D
:108BC0001C2AF9DB491C1429EEDB14210022C1F117
:108BD0002804C1EBC105444303EB051505EB8206F0
:108BE000521CB4601C2AF9DB491C2829EEDB282022
:108BF000C0EBC002002103EB021200BF02EB8104B4
:108C0000491CA7601C29F9DB401C3028F0DBF0BDB3
:108C1000C04C002070B52A4A01282CD0022829D146
:108C2000284C00214FF44803C1EBC105002002EBA2
:108C30000515265C2EB105EB800606F58056C6F8B4
:108C40000835401C1C28F4DB491C1829ECDB1820D3
:108C5000C0EBC004002102EB041400BF04EB81054B
:108C600005F58055491CC5F808351C29F6DB401C64
:108C70003028EDDB70BD134C0021134B383CC1EBA9
:108C8000C105002002EB0515265C16B105EB800638
:108C9000B360401C1C28F7DB491C1829EFDB1820A7
:108CA000C0EBC004002102EB041400BF04EB8105FB
:108CB000491CAB601C29F9DB401C3028F0DB70BD7F
:108CC000C04C0020EC5D03006068CC002DE9F04151
:108CD000FDF714FFC0B2502803D90E204FF47F4196
:108CE00003E024493C2804D90B200022224D1C24F7
:108CF0000BE0282801D90920F7E74FF44801142890
:108D000001D90620F1E70320EFE7C2EBC2061B23DF
:108D100005EB0617564204EB460606E007EB830C0C
:108D20000CF5805C5B1ECCF858169E4201DC002BD3
:108D3000F4DA521C8242E8DB0023424204EB420494
:108D40001B221E18C6EBC60605EB061607E000BF81
:108D500006EB820707F58057521EC7F85816944253
:108D600001DC002AF4DA5B1C0C2BE9DB0F30BDE8D8
:108D7000F081000000156400C04C0020FFB5134ACC
:108D8000134D6C460FCA8DE80F00002000EB400128
:108D90008A00411C01EB410C11E0C2EBC20305EB60
:108DA000031754F82030002107EB8106491CB360FB
:108DB00006F580561C29C6F80835F5DB521CB2EBC7
:108DC0008C0FEADB401C0428E0DBFFBDF4650300E8
:108DD000C04C002070B52E4B2E4A012831D00228FD
:108DE0002ED100214FF47F05C1EBC104002003EB1D
:108DF000041400BF04EB800606F58056401CC6F83C
:108E000008550E28F6DB491C3029EDDB0021C1EBAB
:108E1000C1000E2403EB001505EB840606F5805017
:108E200006F50056C0F80825C0F8482AC0F8882F73
:108E3000641CC6F8C8241C2CEEDB491C0629E6DBA2
:108E400070BD154D0021C1EBC1040E2003EB0414CD
:108E500004EB8006401CB5601C28F9DB491C302956
:108E6000F1DB0021C1EBC100002403EB001500BFC2
:108E700005EB8400641C8260C0F84825C0F8882A8D
:108E8000C0F8C82F0E2CF3DB491C0629EADB70BDA5
:108E9000C04C00200037FF006480FF0070B52E4BEF
:108EA0002E4A012831D002282ED100214FF47F050F
:108EB000C1EBC1040E2003EB041400BF04EB8006D9
:108EC00006F58056401CC6F808551C28F6DB491CE0
:108ED0003029EDDB0021C1EBC100002403EB0015BC
:108EE00005EB840606F5805006F50056C0F8082507
:108EF000C0F8482AC0F8882F641CC6F8C8240E2C75
:108F0000EEDB491C0629E6DB70BD154D0021C1EBE7
:108F1000C104002003EB041404EB8006401CB56080
:108F20000E28F9DB491C3029F1DB0021C1EBC1001F
:108F30000E2403EB001500BF05EB8400641C826067
:108F4000C0F84825C0F8882AC0F8C82F1C2CF3DBCD
:108F5000491C0629EADB70BDC04C00200037FF0029
:108F60006480FF0010B54FF4A85421460748FDF770
:108F700070FA21460648FDF76CFA0024E0B2FFF7CC
:108F800033FD641C032CF9DB10BD0000C84C00202D
:108F9000C861002010B5FFF7E5FF002400E024B908
:108FA0003221204601F082F801246421204601F09C
:108FB0007DF8641C032CF2DB10BD00002DE9F04F9E
:108FC0008FB0FDF771FF46094FF4FA609FED6B0A11
:108FD000B6FBF0F100FB116000EE900A684DDFF87F
:108FE000A491F8EE600A80EE801AFCEEC10A10EE41
:108FF000900A84B2287850B3302C00D32F246248D2
:1090000001888C4214D04168711A00EE901AF8EE73
:10901000600AF4EEC00AF1EE10FA09DB0480466043
:109020002046FEF7B5F82046FEF7ECF8FEF79CF870
:10903000564D00240DF1200B04EB840155F821005E
:1090400002282ED005283BD0062839D08FE0504A80
:10905000D9F800001168814201D8411A01E0C943E2
:1090600001443229E4D34B4C1060A088FEF790F8FD
:10907000A088FEF7C7F8FEF777F8A0882B2802D261
:10908000401CA080D4E70120287042484FF4A85427
:1090900021460830FDF7DDF921463F48FDF7D9F9B3
:1090A000C6E705EB8101D1E901010144B6FBF1F20C
:1090B00001FB1261814253D8204601F003F956E0CA
:1090C00005EB81014FF0050AD1E9012700205B463D
:1090D00007EB000C9CF802C0BCF1000F11D04FF060
:1090E00032081CFB08FC43F820C0401C0628EFDBBC
:1090F000D1F810C0D9F80000844505D8A0EB0C00C9
:109100000CE0A0F1010AF3E76FEA0C0C604405E003
:10911000D1F810C0801A9444C1F810C09042F7D220
:109120000022114653F821C06244904201D20491BA
:1091300002E0491C0629F5DB049800F001005FEA13
:109140000008204602D001F08DF801E001F0BAF8E5
:1091500004998A450BD1B8F1000F08D0387A18B1BC
:10916000204601F07FF802E0E0B2FFF73DFC641C0E
:10917000032CFFF661AF0FB0BDE8F08FABAA26421B
:10918000D0310020D42B0020D82D0020D44A00203C
:1091900078320020C04C0020C86100202DE9F04149
:1091A0002D4E86B07068002852D0142802D00828AE
:1091B00046D04BE0142229496846FDF731F9019861
:1091C000FDF786FEDDE90370254C8046012194F809
:1091D0002600009D01F0E6F8052D04D0062D07D0ED
:1091E000072D22D010E094F826100122384620E006
:1091F00094F826100122384601F004F994F826105C
:109200000222384601F0FEF8154894F8261027305F
:10921000085C02281AD8FEF727F8114894F826109F
:109220002A30085CFEF7E2F810E094F826100122DC
:10923000404601F0E7F894F8261002224046E1E7A4
:1092400006481A38D0F81E00FDF742FE0020706074
:1092500006B0BDE8F0810000A03100202A4B0020BC
:10926000EC76002010B50C46202906D80A460146A7
:109270000248FDF7D5F80248446010BD2A4B002093
:10928000A031002000B5114885B00023D0F8E100DE
:10929000CDF801000E481A4600788DF800000B4802
:1092A00010F8301F8DF809108189ADF80A10C189B6
:1092B000ADF80C10018AADF80E10408AADF8100020
:1092C00012216846FEF7FEF905B000BDEC760020DD
:1092D000104B00202DE9F04FF74997B0086800289F
:1092E00073D0F74DF54C80B2B5F942200126F54F09
:1092F0004FF0000A022820D0032867D0DFF8C89377
:109300000DF1040B05F14608042873D049460528E1
:10931000097870D006286FD008286ED009286DD043
:109320000A286CD00B286BD00C286AD00F2869D083
:10933000102868D0122867D058E2208844F65233AB
:10934000C11A98423CD01DDC43F24232A0EB02012C
:1093500090426AD00BDC00F6BE70B0F5804064D05D
:10936000B0F5807F61D0B0F5007FE5D15DE0B1F56B
:10937000805F2ED001F2F671B1F500511BD00329A8
:10938000DAD115E0B1F5407F18D008DCF0293ED0E5
:10939000A1F50071FA390FD00329CDD106E0B1F55E
:1093A0007C7F14D0B1F5FE6FC6D118E0002100E03B
:1093B0000121002006E00121012003E0002100E05E
:1093C0000121022005F0CEFA10E2E8E040E02E6331
:1093D00001E0C5F830A03E60FDF7EEF906E2BBA162
:1093E00001A801F0E1FE286B78B14F208DF805004F
:1093F000092105E14CE007E1BEE2D9E206E33EE3E4
:10940000CAE3CAE3CAE3CAE3CAE34320EEE7FDF7CF
:1094100075FB0246401C01D0AFA1BDE0B1A1DCE06C
:1094200001A8FDF721F881B2EAE0B0A00068009041
:10943000AFA000680790607830381DF8001085F8FC
:10944000A41007A9085C68633E60FDF7E7FBCDE167
:1094500020784228B8D05A28B6D16078A478A0F1F4
:1094600030083C22A34907A8303CFCF7D9FF04EBA5
:10947000840107AA08EB880002EB410105EB4000DC
:109480000A6840F8B22F4A68426009890181ECE21B
:109490002078422802D160784D2809D00322214645
:1094A00095A0FCF7F6FFA0B12078542827D02CE037
:1094B000A178052973D801EB410105EB810101F188
:1094C0008802E0788431FEF745FB3E60FEF7D6FB6C
:1094D0008CE1E078312804D0302805D03F2806D030
:1094E00084E185F8E060C0E285F8E0A0BDE295F88F
:1094F000E000012801D081A16FE082A16DE06078D9
:10950000462802D1A0784D2825D0E178206861F363
:109510001F607E49401847D07D49401861D07D4981
:10952000401831D07C49C84291D17C48817A432986
:1095300045D0008B90B3020BC0F30323C0F303109C
:10954000012845D90A283CD002283CD004287FF4C1
:1095500067AF73A138E0E078302802D0312803D01B
:1095600004E085F8E8A001E085F8E86095F8E820D7
:109570006EA101A801F018FE01A8FCF775FF81B2E9
:1095800001A8FDF791FA70E26A480268B2F1CC3F97
:1095900006D0501C06D068A101A8D2E11FE0FCE370
:1095A00068A11AE06AA118E01A200090032340F293
:1095B000EA726AA101A801F0F7FD0A2120E06BA17F
:1095C0000BE06CA100E06EA101A801F0EDFD27E722
:1095D000012A01D86DA100E06FA101A875E371A176
:1095E000FBE799F8000002289ED170A101A801F0C4
:1095F000DBFD0E2241460BF10400FCF711FF1221A6
:1096000001A8FDF751FADEE3207846281CD0662831
:1096100033D0E3782068DFF89CC163F31F60664BAA
:10962000A0EB0C0860451B6841D041DCDFF88CC121
:10963000A0EB0C0260453CD02FDC614AD042E2D165
:109640002079312836D052E107AB08AA6946204676
:1096500009F072FC089810B11F2802D006E002221F
:1096600000E001220099079800F0B4FE009806E09F
:1096700001280AD0022804D10AE060783038002896
:10968000F6D1022089F8010004E089F801A001E088
:1096900089F80160FEF7ECFB95E34A481018B2D058
:1096A000494AD042AFD12079482804D0DCE04BE1D0
:1096B0008CE09CE00CE1C0E070320020A07C002037
:1096C000EC7600204832002014320020423F3A2538
:1096D0002B30366400000000424C3A2530337500D0
:1096E00000000000424C3A4E2F4100001718181895
:1096F00004040001186603005055420050554230E2
:10970000000000005055423100000000AABAADB779
:1097100002F3FEF9120626FCEC06DBFF104B0020DC
:1097200052552D5625642E256400000054464D2DBB
:1097300025750000A0310020424C2D523A253033CF
:1097400075000000424C2D523A4C697465000000CF
:10975000424C2D523A4E4100000000002530346446
:109760002D253032642D253032640000524C2D56A8
:10977000302E3500524E35312D5625642E2564008D
:10978000524E35322D5625642E256400524E353109
:109790002D56322E35000000524E35322D56312EC8
:1097A00033000000554E4B524D5400004652534E6C
:1097B00000000000545245530432002054504149E7
:1097C000ACBDADBA060BEDFFFAF200FBF54818EBA5
:1097D00000007BD0B0F57E4F1CD0F34A801857D0E4
:1097E000F24AD04202D120795A2870D0EBE2207997
:1097F0005228FBD1022901D0042BF7D1ECA1584605
:1098000001F0D2FC01A8FCF72FFE81B201A8FDF700
:109810004BF9EFE220795428E8D10529E6D1E64951
:109820005846C1F800A0E5A101F0BEFC052101A841
:10983000FDF73AF9FEF7F0FBC5E20229D6D1E1A126
:10984000584601F0B1FC55F8460F02906868039045
:109850002889ADF810008DF812A001A8FCF704FECD
:1098600081B201A8FDF720F920794C28BED199F8E2
:1098700000000228BAD1D5A101A801F095FC0A2266
:10988000D4490BF10400FCF7CBFD8DF812A0C7E51D
:1098900020795428AAD1022901D0042BA6D1CEA127
:1098A000584601F081FC01A8FCF7DEFD81B201A859
:1098B000FDF7FAF8CA4E64254FF47A47741C38460F
:1098C000A0476D1EFAD1FEF7FDFA7CE232E023E0FC
:1098D00002298BD1C3A1584601F066FC01A8FCF710
:1098E000C3FD81B201A8FDF7DFF82E633E60207949
:1098F0003028A1D199F8000002289DD1BBA101A870
:1099000001F052FC01A8FCF7AFFD81B201A8FDF700
:10991000CBF8C5F830A0A8E002298DD1B5F94000F8
:109920000090B5F93E30B5F93C20B2A1584601F09F
:109930003BFC75E520794828C7D10229C5D1B3A1E0
:10994000584601F031FC6BE520795428BDD102293D
:10995000BBD1B1A1584601F027FC01A8FCF784FD5A
:1099600081B201A8FDF7A0F86421C5F830A0A9874D
:109970005046A5F83EA015E296484FF00602303852
:109980000529214603D0FCF791FD68B11BE2FCF7E5
:109990008DFD30B120682862A088A8843E60FEF763
:1099A000A5FA01F0EDFB0EE28349C1F800A0F8E74B
:1099B0002078582804D1601CFCF787FDA8873E60FA
:1099C0002078592804D1601CFCF77FFDE8873E60B1
:1099D00020785A2805D1601CFCF777FDA5F84000D7
:1099E0003E602078542805D1601CFCF76EFDA5F878
:1099F00042003E600822214689A0FCF74AFD00286B
:109A0000C4D1FFF7AFFAFEF7B3F9DCE10922214632
:109A100086A0FCF73EFD60B10922214686A0FCF736
:109A200038FD70B1082221467DA0FCF732FD78B1E7
:109A3000C9E199F800000428A8D100BFFEF788FA10
:109A4000C1E199F800000528A0D1FEF74FFABAE16C
:109A5000207A312804D0302805D03F2807D0B2E141
:109A600085F8E66001E085F8E6A03E60ABE195F898
:109A7000E600012801D073A1AFE575A1ADE506228E
:109A8000214676A0FCF705FD18B1207841280ED0BC
:109A900099E15048D4F806105038C0F8E1107149E7
:109AA00085F8E56002203E6008706FA195E560785A
:109AB0004E2870D1A07843286DD1E178627961F3A6
:109AC0000700884621790892A27961F30F2062F39A
:109AD000174083463F48503800F12A032730079348
:109AE000009062B1921CD0B25C4660F31744072824
:109AF00045D26FF07F4081B31F2937D03FE0E07936
:109B0000227A000400EB0220627A104411B11F296E
:109B100011D034E044460222214600F05BFC04EB05
:109B2000440005EB800188310898FEF75BF84FEAA6
:109B30001B4107980FE044460122214600F04AFCF1
:109B400004EB440005EB800184310898FEF74AF8E5
:109B500000984FEA1B41215410E0FFE745460222DE
:109B6000294600F037FC210C079806E04546012203
:109B7000294600F02FFC0098210C29543E605FEA32
:109B800008003FF47EAD01283FF47FADB8F1020F2D
:109B90003FF472AD75E516E16EE099E0BAE0DDE004
:109BA00003E10000000BF3FE00F409FF0001F0FBED
:109BB000465041495200000060320020464553544F
:109BC0005400000046534E480000000046534E4CDF
:109BD000000000003C770020465348555400000028
:109BE000106603004642524531000000464252458D
:109BF00030000000465258595A252B303464252B2A
:109C0000303464252B303464000000004647525441
:109C100048252B303664000046524553540000005E
:109C2000504F5745524F46460000000050414952A0
:109C3000494E472D5900000050414952494E472D89
:109C40004E000000504F5745524F4646300000002E
:109C5000504F5745524F4646310000004E4554493B
:109C600044200000FC2D00204E45544944206368E8
:109C7000616E6765640000000B22214660A0FCF75E
:109C800008FC30B10B22214660A0FCF702FC58B161
:109C900099E062496048D1F80110C0F8E11085F8F8
:109CA000E5A05FA13E6098E485F817A05FF000048E
:109CB00004EBC4002844FF220821401DFCF7C2FB2E
:109CC000641C022CF4DB5AA187E401F06DFA7EE4F7
:109CD0002078542877D16078472874D1A078572805
:109CE00071D1E07854286ED1207948286BD10229AF
:109CF00069D154A1584601F057FA01A8FCF7B4FB0A
:109D000081B201A8FCF7D0FE601DFCF7DEFBA5F8D0
:109D10004200AAE6207842281ED000226178002066
:109D2000303901EB810105EB410100BF04EB400537
:109D3000EB782D79303B03EB8303303D05EB430398
:109D40000D18401C85F8B4303E600628EEDB81F823
:109D5000BA203EA15846B8E70122DFE72078542810
:109D600031D1607847282ED1A07857282BD10229ED
:109D700029D13CA1584601F017FA01A8FCF774FB61
:109D800081B201A8FCF790FEE01CFCF79EFBA887BF
:109D9000E01DFCF79AFBE88700E017E004F10B00F8
:109DA000FCF793FBA5F840005FE6207854280AD121
:109DB0006078572807D1A078532804D1E0784E283E
:109DC00001D1022905D02949C1F800A017B0BDE88A
:109DD000F08F27A1584601F0E7F901A8FCF744FBF2
:109DE00081B201A8FCF760FE0E22211D4046FCF75F
:109DF00017FB3E60FFF7B6F81F4806601EE600003E
:109E00004E455449442052455345540044454C2046
:109E100052454D4F54455300EC7600202834002025
:109E20004E4554494420726573657400000000007B
:109E300052656D6F7465732064656C657465642E1E
:109E400000000000464757544800000042757A7AE7
:109E500065722074696D65206368616E6765642E44
:109E6000000000004647570000000000703200204C
:109E70004657534E0000000004320020074A0848AD
:109E800091680068814201D8411A01E0C943014448
:109E9000B1F57A6F00D3906001F0C8B8943100201A
:109EA000D42B00202DE9F04F3F4D404FDFF80081CB
:109EB0002868002493B0012810D13868372803D3CC
:109EC00098F80000052808D03A4800F07FF83A4892
:109ED0000168012901D1022101602C60FFF75EF9C0
:109EE000364E307800285CD04FF0010AE946DFF8A2
:109EF000D0B050E09DF8010010B101284BD141E0F5
:109F00009DF800101A2904D0202910D0042929D046
:109F100033E09DF9020038601A2209F10501254855
:109F2000FCF77EFAC5F800A0C8F8044033E0202210
:109F300009F105010AA8FCF773FA09220DA92148C5
:109F4000FCF76EFA20491F48001FC1F800A0DDF899
:109F50003D1040F80D1FDDF8411041609DF845109F
:109F6000017218E01748001F90F8E600012812D18E
:109F7000FEF7F8FFFDF7FCFE0DE0142905D00829D7
:109F800009D102E09DF80010F7E78BF8004009F1D5
:109F90000500FFF767F9684605F084FD0028A9D0A1
:109FA000347013B0BDE8F08FA8310020AC31002030
:109FB00014320020104B0020043200207D2C0020A1
:109FC000FC2D0020F0760020483200202DE9F041E1
:109FD000314E0546DFF8C48030780027012404287C
:109FE00034D0052856D198F81610C8F81C104046F1
:109FF00001EBC10101442A684A606A688A602A7AD2
:10A000000A73A97A98F81C20432998F8171004FAC3
:10A0100002F206D09143C175AA7A2149432A02D09F
:10A020000AE01143F7E71F4B1C4AD3F80130C2F88E
:10A03000E13080F8E5700C60827D521CD2B28275EE
:10A04000022A00D387750C60FDF750FF687A4C2810
:10A0500006D04F2802D0522806D103E0B77003E0A3
:10A06000B47001E00220B070A87A4B280CD04E28C2
:10A0700008D0432802D00C49E87A0860BDE8F041D6
:10A08000FDF7FCBDF770F6E7D8F830000128F2D1F3
:10A09000F470F0E7BDE8F08114320020EC76002087
:10A0A0004832002028340020A03100202DE9F04162
:10A0B0000F46064604F012FC05461348C6EBC601DF
:10A0C00000EB8104606801280AD1304600F05CF999
:10A0D00030B1AAB2217A0D4801F030FC1128F8D035
:10A0E000606802280AD1304600F04EF930B1064AC5
:10A0F0000020383AA168526822F81100044840F85C
:10A100002670BDE8F0810000202C00208835030077
:10A11000B84900202DE9F04F85B000244FF0FF3101
:10A1200000910191CDE90340DFF8008126462746E2
:10A1300025460DF108094FF0010AA8F10C0B00BFEC
:10A14000C5EBC50108EB8100416821B1012909D0A7
:10A1500002291BD02BE0D0E905320169C068FDF768
:10A16000C7FC21E0039A0169761C4DF82210406972
:10A1700028B1039901F80940039820B114E0039A2B
:10A1800002F809A0F8E7CDF80CA00DE0042F0BD2DF
:10A190008368017C7F1C0BF803104069012803D100
:10A1A00041F080000BF80300214840F825406D1C69
:10A1B000032DC5DB1D4D383DAC60EC602C61F6B164
:10A1C000012E02D0022E08D019E00022694619485B
:10A1D00001F0EEFC002211460BE000226946154812
:10A1E00001F0E6FC00221146124801F0A7FB002214
:10A1F0000121104801F0A2FB0E4801F09DFC002F48
:10A2000011D00A490C4A0C39A1F1180006F0BAFC29
:10A2100018B10AA28E21FBF7FDFF287840F001005B
:10A22000287000F0E3FB05B0BDE8F08F202C002083
:10A23000B849002088350300351B03002E2E5C2E04
:10A240002E5C2E2E5C2E2E5C2E2E5C2E2E5C2E2E48
:10A250005C2E2E5C2E2E5C2E2E5C4C4C5F50574D8F
:10A260002E63000070B5054600F08EF8002815D06A
:10A270001248C5EBC50100EB8104104E6068383E02
:10A2800001280CD0022812D00C3494E80700FDF706
:10A2900055FC0120B168A8408143B16070BD217AAE
:10A2A0000022074801F04AFB1128F8D0F1E7A16825
:10A2B0007268002022F81100EBE70000202C00203B
:10A2C000883503002DE9F04104461B4850F824105E
:10A2D000204604F003FB0746204600F047F800281C
:10A2E0001AD01648C4EBC40100EB8106134D0122BD
:10A2F000383D706802FA04F401280FD0022815D006
:10A3000070698243D6E90301FDF718FCE868A043B1
:10A31000E860A8680443AC60BDE8F081BAB2317A65
:10A32000074801F00BFB1128F8D0F2E7B1686A6822
:10A33000002022F81100ECE7B8490020202C002072
:10A340008835030010B5074801F0FCFC064C207866
:10A35000C00703D004F1140006F0B8FC0020207000
:10A3600010BD000088350300E82B0020054A0121BC
:10A37000814092681140C14001D000207047012007
:10A3800070470000E82B0020054A012181409268B7
:10A390001140C140012901D00020704701207047C1
:10A3A000E82B0020094A00EB400012682AB1084A55
:10A3B00002EB800050F821007047054AEC3A02EBAE
:10A3C000800000EB8100C06D704700004432002027
:10A3D000D8770020064B01EB410103EB810101EB33
:10A3E0008201C86503480121416000210160704776
:10A3F000EC760020443200200149002008607047BC
:10A4000044320020054B01EB410103EB810141F88F
:10A41000220003490120086070470000D87700201F
:10A420004432002010B5064C2068122806D008F0EF
:10A43000BFF91220034920600120086010BD000010
:10A44000EC7600204832002070B50F4C616800297E
:10A450000AD00E480129006803D00025022904D043
:10A460000FE0A0600220606070BDA168814201D849
:10A47000401A01E0C9430844B0F5FA6FF4D3FDF780
:10A4800065FA656070BD000044320020D42B0020C6
:10A4900070B525480068012801D0022804D1FDF7D5
:10A4A000F5FA08B1FDF7A2FA2048006801F0D0FCE7
:10A4B000FCF75AFA30B1082804D01DA240F23B3113
:10A4C000FBF7A8FE0120FCF793FA00221B2110469F
:10A4D000FDF734FB002205211046FDF72FFBFEF7A8
:10A4E00041FDFFF72FFF00231A4615211846FDF7FF
:10A4F000D3FA00221E211046FDF720FBFCF7F4F9E9
:10A50000FDF7C4FA00280ED1002440F6A42500BFB0
:10A51000FDF7BCFA002806D1012005F0A3F9641C60
:10A52000A4B2AC42F4D370BD48320020506703009F
:10A530002E2E5C2E2E5C2E2E5C6D61696E2E6300BD
:10A5400070B51C480068012801D0022804D1FDF72D
:10A550009DFA08B1FDF74AFA00221B211046FDF7CB
:10A56000EDFA002205211046FDF7E8FA00231A460D
:10A5700015211846FDF790FA00221E211046FDF71E
:10A58000DDFAFEF7EFFCFDF781FA68B9002440F62A
:10A59000A42500BFFDF77AFA30B9012005F062F971
:10A5A000641CA4B2AC42F5D3FFF7CCFEBDE870400A
:10A5B000FEF746B94832002010B50020FCF718FA23
:10A5C00001221B210020FDF7B9FA012205210020FC
:10A5D000FDF7B4FA4FF4B970FFF79CFDFEF7DAFC13
:10A5E00000231A4615211846FDF756FA01221E21AE
:10A5F0000020FDF7A3FA0120FCF7F6F8034800223B
:10A6000021210068BDE8104001F0F8BB506703004D
:10A6100033DF70470B4810B50088A0F57F41FF3944
:10A620000ED1FCF7A1F908A000F0AEF801F0D2F8C5
:10A630000020FCF7F9F9064901200870FCF77CF9C5
:10A64000012010BD5A3200204E7978656C00000060
:10A65000D032002010B5FCF787F90B480088A0F530
:10A660007F41FF390DD109A000F08EF801F0B2F85A
:10A6700040F20110FCF7D8F9064901200870FCF7F8
:10A680005BF9012010BD00005A3200204E79786538
:10A690006C000000D03200202DE9F84390460E46B1
:10A6A0000446FCF761F99DF8000027A120F00F0097
:10A6B000401C20F0F00010308DF8000003226846A6
:10A6C0007CDF18B121A24021FBF7A4FDAC212A4870
:10A6D000FBF7BFFE28480221012501708570062185
:10A6E000C17000F1AC0240F60471118000F1B801B4
:10A6F000CC234B70214BA41E13F8E17F8F705F7841
:10A70000CF709F780F71DB784B7100278F71072313
:10A71000CB71948091604FF47A714E4340F2712175
:10A72000B6FBF1F1426280F87C50C0E9221814496E
:10A73000C0F8A410FCF7E6F8124C2770FCF7FCF800
:10A740002570BDE8F88300004C4D4D002E2E5C2E88
:10A750002E5C2E2E5C2E2E5C2E2E5C2E2E5C2E2E33
:10A760005C2E2E5C2E2E5C2E2E5C4C4C5F52616457
:10A77000696F2E6300000000D4490020EC760020B1
:10A7800061110300D032002038B504469DF8000066
:10A7900020F00F00401C20F0F00010308DF8000079
:10A7A0002046FBF761FE82B2214668467CDF002826
:10A7B00003D002A22B21FBF72DFD38BD2E2E5C2EDF
:10A7C0002E5C2E2E5C2E2E5C2E2E5C2E2E5C2E2EC3
:10A7D0005C2E2E5C2E2E5C2E2E5C4C4C5F526164E7
:10A7E000696F2E63000000002DE9F843414C424898
:10A7F0000427217800780025404E4FF005080729EE
:10A8000046D2DFE801F0040F161F38476200052822
:10A8100001D0012000E0002003F0D0FBBDE8F843A8
:10A82000FEF730BD012003F025FCFF2008F044FABC
:10A8300005E0012003F01EFCFF2008F011FAFCF7F0
:10A8400045FA16E0012003F015FC4FF00008FCF774
:10A8500025FB00264FF4FA790095484605F0B0FF35
:10A860000123424604216846FCF72CFF761C0F2E7C
:10A87000F3DB277027E0A068401CA0606168491CDA
:10A880006160032804D384F80080A5603068E0602C
:10A89000BDE8F883A168491CA160052801D001200A
:10A8A00000E0002003F08AFBFEF7ECFCE068316872
:10A8B000884201D8081A01E0C04308441049884280
:10A8C000E6D306202070A560E2E7A068401CA060E7
:10A8D000012003F0CFFBFF2008F0C2F9FCF7F6F9E6
:10A8E000A0680028D4D084F800803068C4E9025001
:10A8F000CEE70000FC2D002014320020D42B0020D5
:10A90000C02709002DE9F04102680446002A28D03A
:10A910006368501E2D4D53F820104FF004064F1D54
:10A9200012D011F1040F4FF008071CD011F1030FE2
:10A9300029D08A1C30D0481C39D08847012810D132
:10A940002068401C20603BE006EB800029681B5813
:10A95000E068884201D8081A01E0C04308449842E0
:10A9600017D2BDE8F08106EB80010C225E5807EBA0
:10A97000800102EB800059581A58304600F028F840
:10A980002068001DDEE706EB8000185800680028EC
:10A99000E7D1921C226013E006EB800107EB8000F8
:10A9A00059581A582046BDE8F04100F011B8A06887
:10A9B0004FF00101421C02D028B1401EA06021606E
:10A9C0002868E060CDE700202060CAE7D42B002093
:10A9D000012308C0024B1B6880E80E00704700008E
:10A9E000D42B002000210160704700005421014851
:10A9F000FBF72FBD6434002070B54FF480763046ED
:10AA000004F000FF114CB50560B1304604F001FFC1
:10AA10000120C5F80803607920B901206071216820
:10AA2000002088474FF48276304604F0EBFE002881
:10AA30000AD0304604F0EDFE0220C5F80803216874
:10AA4000BDE870400120084770BD00002C33002095
:10AA50000149024804F078B8807E002000C001401F
:10AA60000149024804F070B8887E002000100240BE
:10AA70000149024804F068B8907E0020002002409E
:10AA800010B504F059FF024800210170416010BD6B
:10AA90007C2C002070B5144CD4F80001002628B19D
:10AAA000D4F80403C00701D0C4F80061D4F80C0145
:10AAB0000E4D40B1D4F80403000704D5C4F80C616E
:10AAC000286900B18047D4F8100100280BD0D4F8D1
:10AAD0000403C00607D5C4F81061E868002802D056
:10AAE000BDE87040004770BD00100040C433002036
:10AAF00002490248091F09680068084770330020AE
:10AB00002DE9FE434FF48278404605F027FC4C4F78
:10AB100000254C4C012600B3404605F027FC94F874
:10AB20002E0010B194F82F10D1B18DF8005061684B
:10AB300001912189ADF80810E26832B1218B61835F
:10AB400062602181E56010B102E0257400E03E60A2
:10AB500021686846884784F82F5094F82E0060B327
:10AB60004FF48077384605F0F9FB30B3384605F0EE
:10AB7000FDFB628B94F82D108A420AD9A2EB0100EA
:10AB800080B260832289A2EB0000626802EB400081
:10AB900005E007D1E06828B184F82F60658305F0EF
:10ABA000CBFB04E08A4202D184F82F6065834046E3
:10ABB00005F0DCFB2248001D06604FF4887738461C
:10ABC00005F0CCFB48B1384605F0D0FB25740220D7
:10ABD0008DF800002168684688474FF48A77384628
:10ABE00005F0BCFB28B1384605F0C0FB2574BDE874
:10ABF000FE834FF000484FF48C7967691DE000BF79
:10AC0000B7FA87F028FA00F109EB80058F43284650
:10AC100005F0A4FB88B1284605F0A8FBA5F58C75C6
:10AC2000E8088DF8040045F38000401C8DF80060B2
:10AC30008DF80500216868468847002FE0D1D6E7E7
:10AC400000700040507E00207CB5144C606A01907A
:10AC50002078002821D0012000F0C7FA656800267E
:10AC60006660012000F0D2FAE169002915D0E807FA
:10AC700003D08DF8006068468847A80705D50120F5
:10AC80008DF80000E16968468847680705D502200D
:10AC90008DF80000E169684688477CBDC433002018
:10ACA00005F08ABCF0B5A149A1484FF080540B686B
:10ACB000D4F830210078D4F83411551CC0F30310B7
:10ACC00006D0944601270026BCF1060F03D00AE007
:10ACD00003F0FF0CF6E7B4F82453DFF858C2C5F3CD
:10ACE0000425CCF80050DDB2062D06D1032804D18E
:10ACF000DFF848C2904DCCF87450551C04D09446EF
:10AD0000BCF1060F03D00AE003F0FF0CF8E7D4F81B
:10AD10004452DFF82CC2C5F34235CCF80050DDB206
:10AD2000062D08D1032806D1864DD5F800C02CF099
:10AD3000807CC5F800C0551C04D09446BCF1060FB9
:10AD400003D00BE003F0FF0CF8E74FF08045C5F8A7
:10AD50000C61C5F810617A4D2D1F2E60DDB2062DF5
:10AD600008D1032806D1DFF8D8C103250CF1640C03
:10AD7000CCF80050DDB2062D10D103280ED1DFF83B
:10AD8000C8C10525CCF800506F4D78352F606E4D49
:10AD900008352E600CF104063F253560551C04D0A3
:10ADA00016460D46062E03D05BE0DEB20546F9E7F7
:10ADB000ED1E012D55D9654D2D68654E3560634DED
:10ADC0002D1D2D68361D3560604D08352D68361DEA
:10ADD00035605E4D0C352D68361D35605B4D103588
:10ADE0002D68361D3560594D14352D68361D35607A
:10ADF000564D18352D68564E20363560534D1C354E
:10AE00002D68361D3560514D20352D68361D356055
:10AE10004E4D24352D68361D35604C4D28352D6836
:10AE2000361D3560494D2C352D68361D3560474D32
:10AE300030352D68464E40363560444D34352D68EA
:10AE4000361D3560414D38352D68361D35603F4D16
:10AE50003C352D68361D35603C4D40352D68361D1E
:10AE60003560551C03D01646062E02D007E0DEB230
:10AE7000FAE7D4F85852374E05F04F053560551CA7
:10AE800003D01346062B02D008E0DBB2FAE73248C3
:10AE90000368DB0702D06FF001030360062A07D1C5
:10AEA000C91E022904D92D48016841F4806101605E
:10AEB00024487438016841F470010160BFF34F8F7A
:10AEC000BFF36F8FD4E94C104FF01022062907D141
:10AED000C01E032804D9D2F8080219491C310860A1
:10AEE000D2F80C02C0071DD0012006F02DF9D2F8CF
:10AEF0000C0220F00100C2F80C0219480168002978
:10AF0000FCD0002006F020F9BFF34F8F0D48F03839
:10AF10000168144A01F4E06111430160BFF34F8FEF
:10AF200000BFFDE7114910480860F0BDE00F00F0D8
:10AF3000E80F00F0403501400DF0ADBA00C0074009
:10AF40003C050040FCED00E01056004004040010F9
:10AF500020C50040E40E0040000400403C170040C3
:10AF600000E401400400FA050090D0030C340020F6
:10AF70002DE9F047104E042700244FF4A0784FF439
:10AF8000803900BF08EB840509FA04F0715961B1FA
:10AF9000D6F80413014208D02946304605F0C3FB19
:10AFA0000648D0E9002128469047641CE4B2BC4220
:10AFB000E8D3BDE8F087000000900040987E0020B4
:10AFC0000748D0F84011002909D00021C0F84011ED
:10AFD00004484078032802D10349012008617047E2
:10AFE00000A00140C43300200010004000214A1E90
:10AFF0000160C0E90112C160704700001CB50A4938
:10B0000066208DF8000091F826108DF8040030318C
:10B010008DF801108DF802008DF8030005216846B7
:10B02000FBF742FD1CBD0000EC760020F0B5514D51
:10B0300087B0296800297CD04F480068814201D838
:10B04000411A01E0C9430144322972D3401E40F045
:10B0500001004A4A286000266B6892F8271092F88F
:10B06000280092F8294037460D2B61D2DFE803F023
:10B07000070F182932384345474345475D000026EE
:10B080001F27022901D800240FE08C1E0DE00026A6
:10B0900092F82A003746022829D98C1E022105E0A1
:10B0A00001261F270228EED9841E01213046FFF712
:10B0B00079F90090E3B23A46314601A806F00EFB5A
:10B0C0004DE02E490126002791F82B1002290ED9B8
:10B0D000841EE3E702261F27022CD4D9A41EE4E72E
:10B0E00026480226002790F82C00022801D80024C8
:10B0F000D4E7A41ED2E7002002E0012000E00220F5
:10B1000042218DF804104D218DF805108DF80600B0
:10B11000092B10D200EB40001F2102EB80008DF8BC
:10B120000710D0F884000EE003E0FFF767FF17E098
:10B130002F6007B0F0BD00EB400002EB80008DF8FF
:10B140000770D0F8880005AA06A9FCF75BFB9DF8FC
:10B1500018008DF808009DF814008DF809000626E7
:10B16000314601A8FBF7A0FC0028E2D16868401C2A
:10B170006860DEE794310020D42B0020EC760020BC
:10B1800004480068401E40F00101034801600021AE
:10B1900041607047D42B00209431002001480068A2
:10B1A00000470000343300200FB4084B10B504A949
:10B1B00002AA039800F07AF8044602A9002000F0E1
:10B1C00016FA204610BC5DF814FB0000EFB5020033
:10B1D000002809DB00F01F02012191404009800096
:10B1E00000F1E020C0F88012704700280DDB00F06D
:10B1F0001F02012191404009800000F1E020C0F8C9
:10B200008011BFF34F8FBFF36F8F7047002809DBAA
:10B2100000F01F02012191404009800000F1E02070
:10B22000C0F800117047002809DB00F01F0201215F
:10B2300091404009800000F1E020C0F80012704702
:10B240004907090E002804DB00F1E02080F8001413
:10B25000704700F00F0000F1E02080F8141D7047E7
:10B26000004870471034002002E008C8121F08C1CF
:10B27000002AFAD170477047002001E001C1121F77
:10B28000002AFBD1704700000121202803DA814009
:10B290000548014003E0402802DA2038814009B126
:10B2A0000120704700207047FC06FFBD2DE9FF4FCD
:10B2B0008BB088460546002606E025280BD0DDE940
:10B2C0000D1290476D1C761C28780028F5D10FB020
:10B2D0003046BDE8F08F0024A146A2460122AE49C7
:10B2E00000E0044315F8013F203B02FA03F0084256
:10B2F000F7D128782A2810D06FF02F022878A0F1F3
:10B300003001092915D809EB890102EB410144F00C
:10B31000020400EB01096D1CF0E758F8041B5FEA1A
:10B32000010903D544F40054C9F1000944F00204B2
:10B330006D1C28782E2817D115F8010F44F004044D
:10B340002A280ED06FF02F022878A0F130010929A9
:10B350000AD80AEB8A0102EB410100EB010A6D1CDD
:10B36000F2E758F804AB6D1C28786C280FD006DC87
:10B370004C2817D068280DD06A2814D104E074280E
:10B3800010D07A280FD10DE044F400140AE044F400
:10B39000801401E044F440146978814202D104F53C
:10B3A00080146D1C6D1C2878692865D006DC002887
:10B3B0008DD0632827D0642806D15DE06E2808D0A0
:10B3C00073282AD0752877D0DDE90D129047761CB6
:10B3D000E0E0C4F30250022809D003280DD0D8F8C9
:10B3E000001004280DD00E6008F10408D2E0D8F84F
:10B3F0000010F217C1E90062F6E7D8F800100E80DD
:10B40000F2E70E70F0E718F8041B8DF8001000202A
:10B410008DF80100EB46012003E058F804BB4FF023
:10B42000FF3061074FF0000701D40AE07F1C574549
:10B430000DDA8742FADB1BF807100029F6D106E087
:10B440007F1C8742FCDB1BF807100029F8D1DDE9DF
:10B450000D23A9EB07008146214600F0B1F83044E6
:10B46000C61904E0DDE90D121BF8010B90477F1EA1
:10B47000F8D22146484688E058F8040BC4F302513C
:10B480004FF00A0B032900D100B2042900D140B2C9
:10B49000002802DA40422D2102E0210505D52B21AA
:10B4A0008DF82410012104E006E0E10710D02021EE
:10B4B000F6E708AF089113E058F8040BC4F3025103
:10B4C0004FF00A0B032900D180B2042900D1C0B289
:10B4D0000021EEE75946FBF705F8303107F8011D6A
:10B4E0000028F7D1ADEB070000F1200B600702D573
:10B4F00024F4803401E04FF0010ADA4502DDAAEBC2
:10B500000B0000E00020824600EB0B01089801448C
:10B51000A9EB01000A90E00306D4DDE90D232146E2
:10B520000A9800F04DF806444FF0000908E009A918
:10B5300011F80900DDE90D12904709F10109761CA7
:10B5400008998945F3DBE0030CD5DDE90D2321469D
:10B550000A9800F035F8064404E0DDE90D123020C9
:10B560009047761CBAF10001AAF1010AF5DC05E06A
:10B57000DDE90D1217F8010B9047761CBBF10001B5
:10B58000ABF1010BF4DC0A982146DDE90D2300F054
:10B5900005F806446D1C97E6092801002DE9F041E5
:10B5A000044600251E461746880404D405E03946A3
:10B5B0002020B0476D1C641EF9D52846BDE8F081F7
:10B5C0002DE9F041044600251E469046C80301D5EA
:10B5D000302700E02027880404D505E0414638469E
:10B5E000B0476D1C641EF9D52846BDE8F0810A6895
:10B5F000531C0B6010707047006890FAA0F000BAFE
:10B6000000BA7047800701D00020704701207047C2
:10B61000C3688B4206D811440069491E814201D893
:10B62000012070470020704710B5FBF767FA054905
:10B6300003220A700872B42264210B20FFF72CF851
:10B64000012010BD8C4A002070B5104E0524012148
:10B650007078FEF7A7FE054670780221FEF7A2FE7D
:10B660000B490246082008700C724D72280A887235
:10B67000280CC8720A73100A4873100C8873B4221D
:10B6800064211120FFF708F8012070BD143200205A
:10B690008C4A0020054910B500200870B4226421AE
:10B6A0000A20FEF7F9FF012010BD00008C4A00209F
:10B6B0000D4810B58078A0B101280ED002280ED018
:10B6C00000200A4902220A7008724872B4226421DA
:10B6D0000C20FEF7E1FF012010BD1A20F1E7252024
:10B6E000EFE70F20EDE70000143200208C4A002025
:10B6F00010B5002000F008F8012010BD10B50120A1
:10B7000000F002F8012010BD044906220A700872F8
:10B71000B42264210B20FEF7BFBF00008C4A00203A
:10B7200010B5FBF7BBFB084905220A700872020A34
:10B730004A72000C887201224FF47A710D20FEF7D4
:10B74000ABFF012010BD00008C4A00200D4910B550
:10B75000887820B1012802D0022800D00020C978C2
:10B7600011B1012900D00021074A072360F31F11FE
:10B7700013701172B42264210B20FEF78DFF01209B
:10B7800010BD0000143200208C4A002090F82400E4
:10B79000012801D01F207047EE20704710B501220C
:10B7A0000221002001F046FF08B1072810D107222E
:10B7B0000221012001F03EFF08B1072808D1002135
:10B7C0000A22084601F036FF08B1072800D1002000
:10B7D00010BD000000B5ABB0AC216846FAF739FEE9
:10B7E00002208DF8000000218DF8021006218DF84E
:10B7F0000310ADF84C000E48149001208DF87C0029
:10B800004FF448702290B42023900A48299069464A
:10B81000094800F0B4FE20B108A240F20531FAF761
:10B82000F9FC0121044800F0A7FE2BB000BD000088
:10B830007C32002061110300307800202E2E5C2E17
:10B840002E5C2E2E5C6D61696E2E630070B5054D09
:10B850000024285DFDF7C8F8641C052CF9DB0120E5
:10B8600070BD00009C2D002070B5054D0024285DA2
:10B87000FDF7C8F8641C052CF9DB012070BD000041
:10B880009C2D002030B472B6034B1B68DB0700D040
:10B8900000BE30BC00F002B8F0ED00E008B50123B6
:10B8A0008DF800309DF80030144B186059609A6094
:10B8B0006FF48041401807D001280FD1DA60D868B2
:10B8C00000689861D86807E01A6118698068586153
:10B8D00018690068986118694068D86118685868E4
:10B8E0009868D868186958699869D86972B600BFAD
:10B8F0009DF800000028FBD162B608BDA47E0020A0
:10B9000030B542680B4C1379E15C0120FF290ED061
:10B91000FE290DD012684FF4A86505EB810151583E
:10B92000054A52F82320914202D1FF20E054002022
:10B9300030BD000081330020447F002003681B8B52
:10B940009BB253436422B3FBF2F292B2AFF3008096
:10B9500070B50446006816460D4690F8212001EBAC
:10B96000450100EB8101022A01D0082070BD496821
:10B97000B14205D1C16909B36068007988471DE00B
:10B980002046FFF7BDFF08B1112070BD61680C4A69
:10B99000FE200979505432462946204606F0FEF82A
:10B9A0002068C06950B16168064A0220097902EB3B
:10B9B000410148550221606805F0E0FA002070BDA1
:10B9C00081330020587F00202DE9F84F0768894611
:10B9D000054601EB490897F821001E46924607EB01
:10B9E000880410B10820BDE8F88F4FF0000B3248F2
:10B9F000C4F804B0A672006800900A22296802EB1D
:10BA00008800085C40B100208DF80100694650466E
:10BA100004F03AFFB0B901E00120F5E747F828A0AB
:10BA20004FF001084FF0A04108FA0AF016B1C1F832
:10BA30000C0501E0C1F808050027E019083004F002
:10BA4000F5FF08B10420CEE77F1CFFB2022FF4D32C
:10BA5000207A05F043F8607A05F040F8206836B1A6
:10BA600004F0BEFE0646206804F0D0FF05E004F0B6
:10BA7000CDFF0646206804F0B3FE074649466868D5
:10BA800005F06DFA0146207A324605F005F80221EC
:10BA9000686805F064FA0146607A3A4604F0FCFFF3
:10BAA00084F80B806968054A097902EB410202F8C3
:10BAB00009B0002097E70000EC670300587F0020E2
:10BAC0002DE9F0470646D6E9007005F069FA022133
:10BAD000706805F04CFA97F8200004F0FFFF00258D
