:020000040002F8
:10600000A09B0020DD630200E5630200E76302005D
:10601000E9630200EB630200ED6302000000000090
:10602000000000000000000000000000EF6302001C
:10603000F163020000000000F3630200F563020058
:10604000FDA4020099A50200A1AC0200F7630200C2
:10605000F7630200F76302001567020005A602005D
:10606000F763020075AA0200F7630200F7630200FB
:10607000F7630200F7630200F7630200F7630200B0
:10608000F7630200F5A5020085A502001167020072
:106090004DA70200F7630200A5A70200F763020004
:1060A000F7630200F7630200C5AA0200F76302006B
:1060B00055A50200F7630200000000000000000088
:1060C000F763020065A5020075A50200F7630200F0
:1060D000F7630200F7630200F763020000000000AC
:1060E00000000000000000000000000000000000B0
:1060F00000000000000000000000000000000000A0
:10610000000000000000000000000000000000008F
:10611000000000000000000000000000000000007F
:10612000000000000000000000000000000000006F
:10613000000000000000000000000000000000005F
:10614000000000000000000000000000000000004F
:10615000000000000000000000000000000000003F
:10616000000000000000000000000000000000002F
:10617000000000000000000000000000000000001F
:10618000000000000000000000000000000000000F
:1061900000000000000000000000000000000000FF
:1061A00000000000000000000000000000000000EF
:1061B00000000000000000000000000000000000DF
:1061C00000000000000000000000000000000000CF
:1061D00000000000000000000000000000000000BF
:1061E00000000000000000000000000000000000AF
:1061F000000000000000000000000000000000009F
:10620000DFF80CD000F0BCF9004800478DE7020031
:10621000A09B002000B583B002900091019244F24F
:10622000010071466A4604F0E1FF03B000BD0000C2
:1062300030B450E8012F93B2C48923448489A34227
:1062400028BF1B1B0489A34202BFBFF32F8F00206E
:1062500007E0C3EA020340E80134002CE9D14FF023
:1062600001000A6030BC704750E8012FC2EA0242C8
:1062700040E801210029F7D1704730B450E8022FDF
:106280001FFAA2F3C488A34202BFBFF32F8F0020DE
:106290000DE0C48923448489A34228BF1B1BC2EAA2
:1062A000034340E80234002CE8D14FF001000A60BB
:1062B00030BC704750E8022FC2EA224240E8022177
:1062C0000029F7D17047034653E8022FD988B2EB73
:1062D000324F4FF0000017BF92B241EA014142EA4B
:1062E000014104E05A68B2EB324F08BF012043E895
:1062F0000212002AE8D1704730B4044654E8000F77
:106300000D4644E80053002BF8D1156030BC7047AF
:1063100030B4044654E8000F40EA010544E8005355
:10632000002BF7D1156030BC704730B4044654E8F8
:10633000000F00EA010544E80053002BF7D1156077
:1063400030BC704730B4044654E8000F80EA0105C1
:1063500044E80053002BF7D1156030BC704730B4CF
:10636000044654E8000F00EB010544E80053002BFD
:10637000F7D1156030BC704730B4044654E8000FC4
:10638000A0EB010544E80053002BF7D1156030BCA9
:10639000704770B404464FF0000054E8006F0D6879
:1063A000AE4207BF44E80023012044E800630E60CA
:1063B000002B1CBF0020F0E770BC704730B40446CF
:1063C00054E8000F88422CBF451A054644E80053A4
:1063D000002BF5D1156030BC70470000064880479F
:1063E00006480047FEE7FEE7FEE7FEE7FEE7FEE7BA
:1063F000FEE7FEE7FEE7FEE7A9A702000162020052
:10640000202A04DB203A21FA02F00021704721FA09
:1064100002F3D040C2F12002914008431946704770
:1064200040EA01039B0703D009E008C9121F08C016
:10643000042AFAD203E011F8013B00F8013B521E96
:10644000F9D27047D2B201E000F8012B491EFBD20D
:1064500070470022F6E710B513460A46044619466F
:10646000FFF7F0FF204610BD421C10F8011B002969
:10647000FBD1801A704710B5002200E0521C835CEB
:106480008C5CA34201D1002BF8D1D8B2E1B2401A02
:1064900010BD30B504460020034600E05B1C93426B
:1064A00003D2E05CCD5C401BF8D030BD30B5054672
:1064B0000020034600E05B1C934205D2EC5CC85C04
:1064C000201A01D1002CF6D130BD70B5064604F07B
:1064D00049FC046805460A220021304600F018F8FD
:1064E0002C6070BD30B50B460146002020220124EF
:1064F00009E021FA02F59D4205D303FA02F5491B92
:1065000004FA02F52844151EA2F10102F1DC30BDA7
:106510002DE9F04791460F4680460446002614F8C0
:10652000015B2DB100F03EF80068405DC007F6D178
:106530002B2D02D02D2D18D0641E4A4639462046F8
:1065400000F034F827B13968A14201D1C7F80080C2
:1065500071054FF002040BD54042002803DD04F022
:1065600001FC0460A007BDE8F08746F48066E4E71C
:106570000028F8DA04F0F6FB04606FF00040F2E760
:10658000064C074D06E0E06840F0010394E8070080
:1065900098471034AC42F6D3FFF736FEC0620300D2
:1065A000E062030000487047746203002DE9F05F69
:1065B00082460078002715468B460AF10104B94649
:1065C000302801D09DB113E014F8010B0127782881
:1065D00003D0582801D045B10AE00DB1102D07D1E4
:1065E0000027102514F8010B02E0082500E00A2519
:1065F0000026B0460EE005FB080005FB06F101276A
:1066000001EB10461FFA80F8B6F5803F00D3B9467B
:1066100014F8010B294600F018F80028EBDABBF15A
:10662000000F05D00FB1641E00E05446CBF80040C7
:10663000B9F1000F06D004F095FB02210160C81EDD
:10664000BDE8F09F48EA0640FAE73A2800D2303821
:1066500020F02002412A01D3A2F13700884201D361
:106660004FF0FF30704770B58C1810F8015B15F0D3
:10667000070301D110F8013B2A1106D110F8012BB4
:1066800003E010F8016B01F8016B5B1EF9D12B07D9
:1066900005D40023521E0DD401F8013BFAE710F88F
:1066A000013BCB1A921C03E013F8015B01F8015B7C
:1066B000521EF9D5A142D8D3002070BD30B50024B8
:1066C0001FE000BF51F82450854219D2B4B101EB4C
:1066D000840351F8241053F8045C02EB840352F84D
:1066E000242053F8043C401A9C1A6043691AB0FBFA
:1066F000F1F01044984200D9184630BD106830BD02
:10670000641C9C42DED302EB830050F8040C30BDC5
:1067100001F0C2B82DE9F8430025DFF894804FF46A
:10672000807601242F460095304609F005FB38B1EC
:10673000D8F80403204203D0304609F0F3FA254389
:10674000361D64007F1CB6B2082FEDD34FF4BE7423
:10675000204609F0F1FA48B1204609F0E3FA45F085
:1067600000456A460121002009F0B6FA15F0FF0F36
:1067700016D0012600242E420ED008EB8401D1F859
:106780001005D1F81015C0F304200A4AC1F30141E5
:1067900052F8242002B190477600641C082CEAD3FA
:1067A000002D02DA68460AF083FEBDE8F883000097
:1067B00000600040D47C002008480068401E40F083
:1067C00001010748C1610749096B012903D04FF056
:1067D000FF31016270470021FBE70000D42B00204D
:1067E00030320020D075002030B589B0002852D05A
:1067F0002E49012008602E4D0024281D07C88DE871
:1068000007008DF802408DF80340694604200AF025
:1068100023F818B127A24C21FFF7FCFC05F110006A
:1068200003AB07C883E807008DF80E408DF80F40D2
:1068300003A905200AF010F818B11EA25221FFF793
:10684000E9FC1C3506AB95E8070083E80700042047
:106850008DF81A008DF81B4006A9072009F0FCFFEF
:1068600018B114A25921FFF7D5FC03211B4809F0E8
:10687000A1FF18B10FA25C21FFF7CCFC1748032140
:10688000801D09F097FF002803D00AA25D21FFF7C1
:10689000C1FC09B030BD124905480AF033F80028A0
:1068A000A9D004A24321FFF7B5FCA4E7007500407E
:1068B000F82F03002E2E5C2E2E5C2E2E5C2E2E5CCE
:1068C0002E2E5C2E2E5C2E2E5C2E2E5C2E2E5C2E02
:1068D0002E5C4C4C5F4144432E6300001234002078
:1068E000711D03000AF058B8024890F8540074DF94
:1068F00070470000147700201FB50020019002901F
:10690000039016480090164A6946164808F0CEFBD8
:1069100018B1154AE821FFF77DFC14A200211148A7
:1069200008F044FB18B1104AE921FFF773FC00227C
:106930001F210C4808F097FB18B10B4AEB21FFF719
:1069400069FC084808F0D6FC002806D004B0064AC6
:10695000BDE81040EF21FFF75DBC1FBDC231002034
:10696000E91D0300404A0020786203004C4D4D00B1
:1069700010B5044692B03C211748FFF76AFD3C2150
:106980006846FFF766FD02228DF8002001238DF88E
:106990000230062011498DF8030004200A704B7064
:1069A0008B70ADF840000C481191ADF83C400FA938
:1069B00041620A4902820831416102466946A0F2F9
:1069C000344005F0E7F9002804D005A24FF43B71EC
:1069D000FFF720FC12B010BD487B0020543200208D
:1069E0002E2E5C2E2E5C2E2E5C6D61696E2E630049
:1069F00013B5044901AA4B8801460248343006F019
:106A000065F91CBD303200202DE9F0414A4C207858
:106A1000002827D000F0BEF8411C23D0E168491CB3
:106A200004D1E060642801D96421E1602378002664
:106A30000121DFF808C1424A424D072B12D2DFE89C
:106A400003F01104203359465900936B0427012B9E
:106A50000AD00223352801D805280ED923702868CA
:106A6000C4E90106BDE8F08100220521104600F0CE
:106A70009BFF27702868606012E09163CCF80010DB
:106A8000F2E761682868814201D8411A01E0C943F0
:106A9000014440F6CA029142E4D90321606014E047
:106AA000401E2860A660DDE761682868814201D841
:106AB000411A01E0C94301448C29D3D96060A1681F
:106AC000491CA1600629CDD305212170E8E70128E2
:106AD000C8D891630620CCF8001020702868606048
:106AE000401E2860A66049DF00F0DAF81648C6703C
:106AF0008670B7E761682868814201D8411A01E0D1
:106B0000C94301448C29ADD96060207AC0074FF099
:106B100000000ED003F0C6FAA068401CA0600A284E
:106B2000A0D3002003F0BEFA2670BDE8F04101F0CA
:106B3000E5B803F0E7FAEFE7A42D0020A82C002029
:106B4000D0750020D42B00201432002001490120F0
:106B500008707047A42D002000230122042118464C
:106B600000F0D0BE00F092B810B5002302221E2122
:106B7000184600F0F3FE01221E21002000F014FF51
:106B8000034C204603F0B4FF4FF0FF30206110BDEE
:106B9000B449002030B5174889B04FF0FF3104697F
:106BA000621C05D102681AB3C368B3FBF2F4046136
:106BB000601C1DD0FFF7D6FF0F4948B12DC98DE8E5
:106BC0002D000FC904AD85E80F00042304AA09E0D5
:106BD000203103AD0DC98DE80D0007C985E8070018
:106BE000032303AA69462046FFF768FD09B030BDBC
:106BF0000846FBE7B44900209C30030070B5FFF75E
:106C0000B1FF1D4D1D49044628680968884201D816
:106C1000081A01E0C0430844322802D92960FFF76E
:106C200061FE174869680268914224D00068686074
:106C30001448006814494A68824200D248608A6851
:106C4000824200D98860CA680244CA600868431C4E
:106C50000B60B0F5166F0ED3B2FBF3F00A6914B1F6
:106C6000824202D302E0824200D90861BDE870404E
:106C7000054803F03DBF70BD9C2D0020D42B0020A3
:106C8000E42B0020D82B0020B449002010B50421AB
:106C9000002000F059FE08B1002010BD012010BDF9
:106CA00010B5002001F0C0FD01490020086210BDB0
:106CB000D4310020104810B5807838B1012801D0B7
:106CC00002280FD1BDE8104000F01CB80B480A4C58
:106CD000406B403C00284FF0000004D001F0A4FDC0
:106CE0000020206210BD01F09FFD05480068401E95
:106CF00040F00100F5E7000014320020D0750020BC
:106D0000D42B002070B51448144C406B50B10025B2
:106D1000012811D0022813D0032819D0002001F037
:106D200083FD13E0002001F07FFD0D480068401E48
:106D300040F00100206270BD7D2140F2771202E038
:106D40007D2140F25372002001F004FD256270BDE8
:106D50007D2140F62372F6E7D0750020D431002063
:106D6000D42B0020024800210160416070470000E0
:106D7000CC2B0020014AC2E900017047CC2B002037
:106D80001CB562494FF0010B002581F800B02E467A
:106D90004FF4E1675A461B21284600F005FE012208
:106DA0000521002000F000FE01F080FC584890F81A
:106DB000540074DF57481321408876DF4FF4A85100
:106DC0005548FFF746FB162000F05CFB5348DFF800
:106DD00050A18146D0F80040FFF710FF01F070FC91
:106DE00016B1012E1BD10AE0684601F031FCB0B1AA
:106DF0000098A0B90198012811D101260FE068463A
:106E000001F026FC58B1009848B9019838B900261D
:106E100015B1012D02D002E0012500E00025D9F8CE
:106E20000000844201D8011B01E0E1430144B94262
:106E300068D3044675BB3B4800684FF46161484322
:106E4000C11700EB91508112374800684FF461621E
:106E50005043C21700EB92508012B1F57A7F04D9EB
:106E6000642802D24FF0FF0814E0B8F1FF0F06D0FB
:106E7000FFF790FE1421B0FBF1F000F0FF082B4863
:106E8000816B39B1B8F1000F04D000218163CAF8D9
:106E900000B003E0DAF80000012804D107F06CF834
:106EA0000020CAF800004FF4A8512148FFF7D1FA9A
:106EB000FDB9B8F1050F01D31C2018E0B8F1040F9B
:106EC0000CD0B8F1030F0BD0B8F1020F0AD0B8F113
:106ED000010F09D0B8F1000F08D00AE01B2006E02E
:106EE0001A2004E0192002E0182000E0172000F02A
:106EF000C9FAFFF7CBFE28B9CAF800B003F0B6F91B
:106F000003F0F6F901F07AFF66E70000D4310020C3
:106F10001477002030320020BC4B0020D42B0020FE
:106F2000A82C0020DC2B0020E02B0020D0750020B6
:106F3000BC60002001480068704700000415014053
:106F400007480068074906C9884201D3401A03E090
:106F50006FF07F43591A0844104420F07F40704777
:106F600004150140CC2B002002490A680249C1E9FE
:106F70000020704704150140CC2B00202DE9F0477C
:106F800017460C465FEA000955D0002C53D0302C30
:106F900051DC002523E000BF05EB4500C0EB4510A8
:106FA00007EB8006301D7021FFF753FA0020C5EB78
:106FB000C501224B09EB81028446115C0E2906D2E1
:106FC00006EB800853F82110C8F8041003E006EB24
:106FD0008001C1F804C0401C1C28EEDB6D1CA542DA
:106FE000DADB302090FBF4F0C3B2012B23D901226D
:106FF0001FE000211AE001EB4105C5EB411507EB4D
:10700000850604FB021505EB450CCCEB451500206D
:1070100007EB850506EB800C05EB8008DCF804C067
:10702000401CC8F804C01C28F4DB491CA142E2DB68
:10703000521C9A42DDDBBDE8F0870000985F030038
:107040002DE9F04791460E4607002AD0002E28D0A1
:10705000302E26DC002422E004EB4400C0EB441177
:1070600009EB8105281D7021FFF7F3F90020C4EB1F
:10707000C4010D4B07EB81028446115C112906D235
:1070800005EB800853F82110C8F8041003E005EB65
:107090008001C1F804C0401C1C28EEDB641CB44213
:1070A000DADBBDE8F0870000D05F03002DE9FF5F69
:1070B00091460E9F0C465FEA000A45D0002C43D053
:1070C000002527E005EB4500C0EB451109EB8106E3
:1070D000301D7021FFF7BDF90020C5EBC501264A20
:1070E0000AEB81038346195CA1F1010CBCF10D0F81
:1070F00008D206EB800852F821C0C8F804C052F844
:10710000218003E006EB800CCCF804B0401C1C2866
:10711000E9DB6D1CA542D5DB0398012812D0C7F12D
:107120001C0125E004EB4401C1EB4411002009EBF4
:10713000810104E001EB8003401CC3F80480B842E5
:10714000F8D3641C302CEDDBBDE8FF9F04EB440258
:10715000C2EB44121B2009EB820204E002EB800523
:10716000401EC5F80480814201D80028F6DA641C6C
:10717000302CEBDBE8E70000985F0300F0B50E4D24
:107180000024264648F20E0148F2060205F1540793
:1071900007202B78C34013F0010F01D00B4600E00D
:1071A000134627F83430401E04F10104F1D56D1C5C
:1071B000761C542EECDBF0BD44340020F0B50F4CAF
:1071C0000026354648F20E0148F2060204F1540743
:1071D00007202378C34013F0010F01D00B4600E0D5
:1071E000134607EBC60C401EACF8023006F1010650
:1071F000EFD5641C6D1C542DEADBF0BD4434002037
:10720000084810B5417851B100214170012300F1C7
:107210001C011A46143009F075FA002010BD112027
:1072200010BD0000E82B002070B50E4B0E4AC0EBDD
:10723000C000002103EB001303EB810001EB4105CB
:107240008068AC18060C6670060A491C5655C9B20F
:10725000A0701C29F0D3FFF791FFBDE8704000F04B
:1072600041B80000B44B00204434002030B5034640
:1072700000201B2B00D9072001B1072003EB43049A
:10728000054B01EB410123445C18150C6570150A90
:107290005D54A27030BD00004434002070B50F4B27
:1072A0000F4AC0EBC000002103EB001303EB810089
:1072B00000F5805001EB4105D0F80805AC18060C2C
:1072C0006670060A491C5655C9B2A0701C29EDD338
:1072D000FFF774FFBDE8704000F004B8B44B002025
:1072E0004434002010B50024002211462046FFF748
:1072F000BDFF002803D1641CE4B21C2CF4D310BDE4
:107300002DE9F041ADF5B05D044601AD4FF4AE514D
:107310002846FFF79EF84E484FF4A85631460746D8
:10732000FFF797F822464B48494C0F210C23006881
:10733000083C1E2A13D2DFE802F00F0F0F161A1EA8
:1073400025122A122F35565D646B70757982127D75
:107350001212121212121287012000F09FF90DF57D
:10736000B05DBDE8F081012001F074FBF7E72180FA
:107370002A46394803E0102121802A463748FFF782
:10738000FDFD17E00121002001F06AFAE7E7012185
:10739000334801F0E3FAE2E72180009001232A4616
:1073A000304805E013212180009001232A462E4811
:1073B000FFF77CFE002000EB4002C2EB401205EB21
:1073C0008203C0EBC002002104EB021203EB810632
:1073D00002EB81077668491CBE601C29F6DB401C65
:1073E0003028E8DBBBE715212180009001232A46E5
:1073F0001E48DDE719212180009001232A461C4800
:10740000D6E73020208031463846FFF722F8A6E73D
:1074100023802A4619461748B1E723802A46194691
:107420001548ACE7012001F0F5FB98E7012001F0D9
:1074300055FC94E71C2121802A4610489FE7012132
:1074400021802A460E489AE701F0B8FB87E7000042
:10745000BC4B00201032002044580300212E002095
:1074600005060C0054460300F84703000C4A0300CD
:10747000584C0300E8300300883303003440030015
:10748000283603002DE9F047ADF5B05D074601ADA4
:107490004FF4AE512846FEF7DCFF6D484FF4A85973
:1074A00049468246FEF7D5FF6A480F210C23302655
:1074B0000068694C4FF0100C4FF001081E2F14D2D9
:1074C000DFE807F00F0F0F171C2028132F13353B91
:1074D000454C535B60656972786D7EA0A6ACB1B710
:1074E000BCC26680022000F0D9F80DF5B05DBDE8A1
:1074F000F0876680022001F0ADFAF6E761802A4647
:10750000564804E06146A4F802C02A465448FFF7F2
:1075100035FD5BE0A4F802C00221002001F0A0F9D3
:10752000E3E702214FF4302001F018FADDE7618033
:10753000009002232A464B4805E013216180009009
:1075400002232A464848FFF7B1FD66803EE0152138
:107550006180009002232A464448F4E719216180A3
:10756000009002232A464248EDE749465046FEF77E
:1075700070FF01F0CBFA6080B7E7194663802A46B6
:107580003C48C4E7194663802A463B48BFE70220CF
:1075900001F040FBA9E7022001F0A0FBA5E71C21B8
:1075A00061802A463548B2E74146A4F802802A465F
:1075B0003348ACE70221324861802A461C30A6E7F6
:1075C000252161802A462F48FFF73AFD002101EB73
:1075D0004102C2EB4112C1EBC103002005EB820264
:1075E00004EB031302EB8006776803EB800606F5D5
:1075F0008056401CC6F808751C28F3DB491C30294E
:10760000E5DB72E718211E4861802A4654307EE788
:107610006146A4F802C02A461B4878E719466380F1
:107620002A461A4873E76146A4F802C02A46184859
:107630006DE7194663802A46164868E74146A4F874
:1076400002802A46144862E701F0B8FA4DE70000CC
:10765000BC60002010320020B44B0020E859030029
:10766000E12F0020144F0300B8500300CC52030058
:107670001855030038320300D83403004443030094
:10768000443603008C5B030038390300F83A0300EA
:10769000483C0300083E0300583F03002DE9F05F1B
:1076A000DFF8B0A006460C2530249AF82600012EFB
:1076B0001FD0022102F096FDDFF89CB08146002128
:1076C00001FB05F0B0FBF4F2B4FBF5F0B1FBF0F315
:1076D00000FB1310530029FA03F212F003034FF0DA
:1076E00000020AD0012B06D0022B04D0032B04D1B8
:1076F00002E00121DEE700B901229AF82670C1EB11
:10770000C10C07EB47070AEB870300200BEB0C17B4
:10771000012E03D06AB1D3F888C00CE012B1D3F8BF
:1077200084C001E04FF0000C07EB8008C8F808C0E7
:1077300007E04FF0000C07EB800808F58058C8F808
:1077400008C5401C1C28E3D3491CA142B8D3BDE89E
:10775000F09F0000D0750020B44B002070B5154696
:107760000C460A468AB001461E460DF10500FEF79A
:1077700057FE8DF800408DF801508DF80360684683
:1077800008F0C6F80AB070BD254A10B51078052873
:1077900007D02448C178491CC1705168012909D01B
:1077A00020E0214807F04CFF80BB1F48001D07F078
:1077B0007FFF32E04178A9B91C4B1D491A6809685E
:1077C0008A4201D88A1A01E0D2430A44B2F5FA7F0C
:1077D00008D38278521CD2B28270022A01D30022CE
:1077E00082701960134C94F8E51099B104F1E1002E
:1077F00007F026FF002811D194F8E000012806D0F8
:107800000D4800BF07F054FF002807D105E00648E7
:10781000001DF7E7807800F011F8002010BD00008F
:10782000143200207C2C002030300300A4320020D1
:10783000D42B0020D07500200D34002070B5134DDE
:1078400001228240E97D114211D000EBC0004419B1
:10785000601D07F0F5FE002808D195F8E00001282A
:1078600011D004F1090000BF07F022FF70BD0748E6
:10787000E13007F0E5FE0028F8D195F8E000012896
:1078800001D00348F0E70348EEE70000D075002080
:107890000D3400203430030002F02CBDF0B5184E3A
:1078A000002404EB4405002306EBC50555F82370BE
:1078B00087421AD10C7053B1012B0AD0022B0AD087
:1078C000032B0AD0042B0AD0052B0AD00BE0002092
:1078D00008E01E2006E0322004E0462002E05A20A4
:1078E00000E0FF2010700120F0BD5B1CDBB2062B16
:1078F000DCD3641CE4B2082CD3D30020F0BD00001C
:10790000743F03001CB508460021012A02D0022A58
:1079100003D101E0032100E00121022B09D0012B5A
:1079200009D00B46002100910A46019108F08BF91D
:107930001CBD022200E0032208F0B2F9BDE81C40A1
:10794000012007F009BD00000348006801228A40B9
:107950001040C840704700001005005010B5114C91
:107960000120884020600024012A02D0022A03D18D
:1079700001E0032400E00124890001F5E06101F148
:10798000A0410A6822F00C020A600A6842EA8402F6
:107990000A60012B03D003490C39086010BD01496E
:1079A0001039FAE71805005001208840012A02D05A
:1079B0000249086070470149091FFAE70C050050A9
:1079C0002DE9F0470024924689462346FF2804D03B
:1079D000642805D34FF0040206E04FF0050203E0EF
:1079E0004FF01401B0FBF1F2DFF86080D9F80070BD
:1079F000DAF800604FF0000101EB41054FF00000A4
:107A000008EBC50555F820C0BC4500D10C46B4456F
:107A100000D10B46401CC0B20628F3D3491CC9B2A2
:107A20000829E9D304EB440008EBC00050F8221009
:107A300003EB430008EBC000C9F8001050F8221017
:107A40000120CAF80010BDE8F0870000743F030071
:107A5000F0B5082800D3072000240F4D0E682346F8
:107A600003EB4307002205EBC70700BF57F822C00E
:107A7000B44500D11446521CD2B2062AF6D35B1C80
:107A8000DBB2082BECD300EB400005EBC00050F854
:107A9000240008600120F0BD743F030030B50022CF
:107AA00002704FF08052136E4370136E1B0A837086
:107AB000136E1B0CC370136E1B0E0371536E437158
:107AC000536E1B0A8371536E1B0CC371526E0023DD
:107AD000120E02721F241A46855C521C03FB0453CB
:107AE000092AF9D30B6030BD70B5394D394E3A4C87
:107AF000AA78B1788A4221D02046406B92B1012AFF
:107B000002D0022A1FD105E0042824D03249B23124
:107B1000002004E0042823D02F490020BC3100F0CD
:107B200031FE0BE004280ED0012904D12A4900209F
:107B3000C63100F027FEB078022808D0A8780128C6
:107B400009D002280CD0E87801280ED010E0224994
:107B5000D0310020E3E70F20FFF7D2FB0F2030E009
:107B60001020FFF7CDFB10202BE0206B012806D062
:107B70006878D8B101281CD0022824D11CE094F8E0
:107B80002600022102F02EFB6FF07F4188424FF069
:107B9000130003D1FFF7B4FB142002E0FFF7B0FBA2
:107BA0001320FFF76FFC00F049FD0CE014F8270FDD
:107BB00004E014F8280F01E014F8290FFFF7A0FBE8
:107BC000E078FFF75FFCD5E90001C6E9000170BD70
:107BD000143200201C320020D075002004490620F9
:107BE00008700448403900688863FFF759B80000FE
:107BF00014320020D42B002070B501220521002072
:107C0000FFF7D2FE1A491B4E03200870A1F1400471
:107C10003068A063FEF7BEFFC0B2502803D91C2015
:107C20000D25E0630EE03C2803D915200C25E06308
:107C300008E0282803D912200B25E06302E00C207D
:107C40000A25E0630C48816B01290BD00B4A002107
:107C50002170918090F826002846FFF751FB2846B6
:107C6000FFF710FCFEF772FF3068606370BD000024
:107C700014320020D42B0020D0750020B44B0020FB
:107C80000749002008708870C8704039D1E9102376
:107C900008630448C1E91223006848637047000084
:107CA00014320020D42B002070B5104C042020701A
:107CB000617801200025A1B1012914D065700C4A1A
:107CC000617882F826100B49086002F0B9FAE57075
:107CD000FFF70AFF05480849403805630968416312
:107CE00070BD6070EBE702216170E8E7143200209C
:107CF000D0750020A82C0020D42B00200649072096
:107D0000087005480021403801630449096841634F
:107D1000034901200860704714320020D42B002052
:107D2000A82C0020094810B50421017001214160F0
:107D3000074991F826104170FFF7D6FE034800214D
:107D40004038016303490968416310BD14320020C3
:107D5000D0750020D42B002010B50E48052100243A
:107D60000170012141608470C470FFF7BDFE40F2D4
:107D70000110FEF7FDFD03F037FE0820FFF7C0FA03
:107D80000820FFF77FFB0348034940380463096874
:107D9000416310BD14320020D42B002070B512486E
:107DA000114C01250570403C002020630F480068FD
:107DB000606300F07BFC002325700222032118463B
:107DC000FFF7CCFD012203210020FFF7EDFD01228A
:107DD00005210020FFF7E8FDBDE8704001221B21CE
:107DE0000020FFF7E1BD000014320020D42B00205A
:107DF000084910B502200870012205210020FFF774
:107E0000D3FD044800214038C1620163024909687A
:107E1000416310BD14320020D42B00202DE9F04125
:107E2000324E307808281CD2DFE800F004070A0D33
:107E30001013161900F0FEF813E000F0DDFA10E060
:107E400000F066FB0DE000F093F80AE000F0CEF9D8
:107E500007E000F06BFA04E000F04EF801E000F0FB
:107E60002BF9224C224D403C0027206AA0B1296802
:107E7000884201D8081A01E0C04308447D2803D293
:107E8000002000F0DFFC07E0B0F5FA7F03D200200D
:107E900000F0CAFC00E02762F07828B1616A286827
:107EA000814204D8401A04E02868606207E0C943B0
:107EB0000844B0F5FA6F02D9F770FFF715FEB078F5
:107EC00028B1A06A2968884205D8081A05E0286800
:107ED000A062BDE8F081C043084406498842F8D951
:107EE000B770BDE8F041FFF7FFBD0000143200207D
:107EF000D42B0020C0D4010010B5194C1949002022
:107F0000207088800E20FFF7FBF90E20FFF7BAFAE9
:107F10001548A16B0068814201D8421A01E0CA43AA
:107F200002447D2A09D2114890F8A400182815D1DE
:107F3000BDE81040002000F085BC814201D8401A05
:107F400001E0C9430844FA2804D2BDE810400020EB
:107F500000F06ABCBDE81040FFF7D0BE10BD0000C5
:107F6000D4310020B44B0020D42B0020D075002049
:107F70002DE9FC412C4C2D4DA36B2A68D843D11A16
:107F80001044934201D80E4600E00646284F7D2E4D
:107F900097F8A47006D2182F02D1002000F052FCEE
:107FA000BDE8FC81934201D80E4600E00646FA2E59
:107FB00003D2002000F038FCF2E7934201D80E46CD
:107FC00000E00646B6F5BB7FE5D9934200D80846E7
:107FD000B0F5FA7FEDD320780028E1D0E06830B129
:107FE000684600F035FB40B1009818B105E0FFF796
:107FF00099FED5E701980028F9D0606B296888427E
:1080000001D8081A01E0C0430844B0F5FA6FC7D997
:10801000002000F02DFBE0680028E8D00020E060A0
:10802000FFF79AFEBCE70000D4310020D42B0020DB
:10803000D07500207CB51E4C1E4D206B40B1012830
:1080400023D1684600F004FB10B30098F0B11FE0A4
:10805000684600F0FDFA48B1009838B90198012847
:1080600004D128686063206B401C2063606B296822
:10807000884201D8081A01E0C0430844B0F5FA6FFD
:1080800003D902F0F3F802F033F97CBD019858B13E
:10809000606B2968884201D8081A01E0C04308448F
:1080A000B0F5FA7FF1D90120E060FFF7A5FD7CBDB6
:1080B000D4310020D42B0020F0B5424C424D204654
:1080C000D4F830C0436B2A68D843D11A3F4E85B0EC
:1080D0004FF4FA771044BCF1070F3CD2DFE80CF004
:1080E000040910282F3D450039A1684602F0DEFD45
:1080F00012E0934200D80846B8422CD9022029E069
:10810000FEF748FD024633A1684602F0CFFD6846FF
:10811000FEF7AAF9ADF810006846FEF7A5F9ADF82C
:108120001000338804AA69462C4804F0CFFD0DE006
:10813000934200D80846B8420DD904200AE030889E
:10814000A0F57F41FF3901D0132176DF28686063F5
:10815000206B401C206305B0F0BD934200D8084658
:10816000B0F5FA6FF7D90620F4E71D4CD4E9010108
:10817000FFF7EAFB0128EED1FEF7B6FB0127194D08
:10818000194E41DFD4E90101FFF7DEFBE1688842C7
:1081900000D02F70307829780843F2D000F086FAAA
:1081A000084F28780024403718B12C70BC70FFF7B6
:1081B00067FD30780028CED03470BC70FFF71CFD0E
:1081C000C9E70000D4310020D42B00203232002037
:1081D00044534300424C3A257500000064320020AD
:1081E000CC2D0020D0310020C03100202DE9FC41F1
:1081F000494C4A4F4A4D206B4FF4FA78002610B193
:1082000001283FD10EE0684600F022FA40B3009802
:1082100030BB0198012835D128686063206B401C71
:1082200020632FE0684600F013FA18B1009808B9EF
:10823000019828B1616B2868814212D8401A12E077
:1082400021692868814201D8411A01E0C9430144EB
:10825000414501D2666101E001216161266320612F
:1082600010E0C9430844B0F5FA6F0BD9002000F0C4
:10827000FFF997F8E600012802D12A490320087087
:10828000FFF7ACFC244897F82610403042788A4229
:1082900006D04170C670FFF727FC2663286860632C
:1082A0006069012802D0022813D02CE020692968D7
:1082B000884201D8081A01E0C0430844404522D949
:1082C000FFF7F2FC02F01CFC2868A063022060614A
:1082D00019E0A06B2968884201D80A1A01E0C2435C
:1082E0000A44322A03D2002000F0ACFA0BE08842A4
:1082F00001D8081A01E0C0430844642803D20020D2
:1083000000F092FA666108480078012801D1FFF771
:1083100065FCBDE8FC810000D4310020D075002050
:10832000D42B00200C2E0020313200207CB52D4CA7
:108330002D4D206B10B101284DD10EE0684600F0A4
:1083400087F978B3009868BB0198012843D1286861
:108350006063206B401C20633DE0684600F078F9C4
:1083600018B1009808B9019828B1606B2968884253
:1083700027D8081A27E0A0690021401CA061012825
:1083800005D0E2692B689A4204D89A1A04E028685A
:10839000E06112E0D2431A4441F288339A4202D992
:1083A000A1610AE017E0052807D3104AA161104B2C
:1083B000156B01201DB11163186021630BE0106380
:1083C000FAE7C0430844B0F5FA6F04D9002000F082
:1083D0004FF9FFF703FC07480078012801D1FFF7A8
:1083E000FDFB7CBDD4310020D42B0020D0750020B3
:1083F000A82C0020313200207CB5FEF7CBFB3E4993
:1084000009684FF461625143CA1701EB92518A1215
:108410003A4909684FF461635943CB1701EB935113
:1084200089124FF47A754FF4C843AA4205D96429DA
:108430000CD3A94201D9324C09E0642A07D2A942DF
:1084400005D9142802D84FF4C80400E01C462D4D6D
:108450000021C1EBC102002005EB021303EB8002F7
:10846000401C946002F580521C28C2F80845F5DBD8
:10847000491C3029EDDB244C244D206B40B10128F0
:1084800026D1684600F0E4F8B8B1009898B114E03D
:10849000684600F0DDF800281AD00098002817D1AF
:1084A0000198012814D1002001F02CFE2868606397
:1084B000206B401C0BE0019828B1606B2968884252
:1084C00007D8081A07E0002001F0ECFD0020206327
:1084D0007CBDC0430844B0F5FA6FF9D9002000F024
:1084E000C7F8002203211046FFF75EFA002001F0D2
:1084F000D9FDFFF773FB7CBDDC2B0020E02B0020B7
:108500000080FF00B44B0020D4310020D42B002089
:10851000FEB5434C434D0226216B2868052949D2FC
:10852000DFE801F0030A173B54001D20FEF7E8FEC8
:108530001D20FEF7A7FF2AE0616B814201D8411A96
:1085400001E0C9430144B1F5FA7F33D9C4E90C60B5
:1085500030E0FEF71FFB411C2CD03449324A51F861
:10856000013F93604968D16002F1080101230E7256
:108570004B728B722E4BDE6906EBC606334453F802
:10858000056FC2F813605B68C2F81730087428687A
:108590006063206B401C20630CE01120ADF80000EC
:1085A000244821496A4603880831234804F08EFB99
:1085B0000028ECD0606860B101281AD101A800F051
:1085C00047F80026C0B10198A0B115E0606305200E
:1085D000E1E701A800F03CF800280AD00198002843
:1085E00007D10298012804D12868A0606068401C67
:1085F0006060FEBD029828B1A0682968884203D84F
:10860000081A03E06660FEBDC0430844B0F5FA6F87
:10861000F9D9002000F02CF86660FFF7DFFAFEBD04
:10862000D4310020D42B0020B47500200834002061
:10863000D075002032320020643200200248034905
:108640000068486270470000D42B0020D43100201D
:10865000064A11684B1C07D001604FF0FF311160D2
:10866000516841600120704700207047C42D0020F0
:10867000024A012142F8201070470000C02D00205E
:1086800010B5084CD4E90101D4E90423FFF73AF905
:108690000548A4F1140100680860091DE06808603D
:1086A00010BD0000CC2D0020D42B00200348002357
:1086B000026981684068FFF725B90000CC2D0020D1
:1086C0002DE9F0411C484FF000050168491C01608C
:1086D00000D00560184C06681834D4E90101FFF792
:1086E00033F9A4F11003154A1F68191F874203D1FB
:1086F00010680860BDE8F0810F681268974201D8E1
:10870000D71B01E0FF431744D4F818C06745F1D3E5
:108710000A60094A18600C32E368111D834205D1D2
:1087200010680028E6D1C1E90065E3E70120156083
:10873000C1E90050DEE70000B42D0020D42B00205A
:10874000034B00EB800203EB8202D16001F0CEBB51
:10875000C849002030B5094C00EB8003204654F88E
:10876000235000EB8300022D02D0054DAD6805615A
:10877000022544F82350C0E9011230BDC849002049
:10878000E82D00202DE9F04782460F46088822494F
:10879000224DB1FBF0F0DFF888900AEB8A064FF02B
:1087A000050805EB8604884208D164210020FFF704
:1087B000C7FF40F6B83060601A4825E0A0F5743174
:1087C000903918D032210020FFF7BAFF0021084667
:1087D0003A18401C927806281144F9DB32204143B4
:1087E00014D0C4E9011700BF45F82680D9F800006D
:1087F0002061BDE8F08764210020FFF7A1FF4FF45E
:108800007A60606007480A30A060EDE75046BDE836
:10881000F04700F009B8000040420F00C8490020AE
:10882000D42B0020F42D002010B5044601F03AFCB2
:10883000034A04EB8401002042F8210010BD00002F
:10884000C849002010B5044601F05CFC034A04EB63
:108850008401012042F8210010BD0000C849002019
:108860002DE9F04F0C253024394EDFF8E880DFF891
:10887000E8B08E4600204FF0FF094FF4480A00BFD1
:1088800000FB05F1B1FBF4F2B4FBF5F1B0FBF1F341
:10889000520001FB130126FA02F212F0030252D039
:1088A000012A04D0022A02D0032A4CD100E059BB8D
:1088B00098F80010BEF1010F06D031B3002188F8FE
:1088C000001052464B4625E029B1002188F80010DF
:1088D0004A46534604E0012188F8001052464B46B0
:1088E000C0EBC00700210BEB071700BF07EB810CA3
:1088F000491CCCF808200E29F8D30E2107EB810281
:10890000491C93601C29F9D31DE0012188F800104F
:108910004A465346C0EBC00C00210BEB0C1700BFBE
:1089200007EB810C0CF5805C491CCCF808250E295E
:10893000F6D30E2107EB810202F58052491CC2F8E2
:1089400008351C29F6D3401CA04299D3BDE8F08F0E
:10895000A00AAA00202E0020B44B0020F0B500276A
:108960003B4B01293FD002293CD1002100224C1C65
:10897000C1EBC105444303EB051500BF05EB8206BF
:1089800006F58056521CC6F808451C2AF6DB491C21
:108990001429EBDB14240021C4F12802C4EBC40524
:1089A000424303EB051500BF05EB810606F5805633
:1089B000491CC6F808251C29F6DB641C282CEADBB8
:1089C0002820C0EBC002002103EB021202EB81045D
:1089D00004F58054491CC4F808751C29F6DB401CBA
:1089E0003028EEDBF0BD002100224C1CC1EBC1059C
:1089F000444303EB051500BF05EB8206521CB4602F
:108A00001C2AF9DB491C1429EEDB14210022C1F1D8
:108A10002804C1EBC105444303EB051505EB8206B1
:108A2000521CB4601C2AF9DB491C2829EEDB2820E3
:108A3000C0EBC002002103EB021200BF02EB810475
:108A4000491CA7601C29F9DB401C3028F0DBF0BD75
:108A5000B44B002070B52A4A01282CD0022829D115
:108A6000284C00214FF44803C1EBC105002002EB64
:108A70000515265C2EB105EB800606F58056C6F876
:108A80000835401C1C28F4DB491C1829ECDB182095
:108A9000C0EBC004002102EB041400BF04EB81050D
:108AA00005F58055491CC5F808351C29F6DB401C26
:108AB0003028EDDB70BD134C0021134B383CC1EB6B
:108AC000C105002002EB0515265C16B105EB8006FA
:108AD000B360401C1C28F7DB491C1829EFDB182069
:108AE000C0EBC004002102EB041400BF04EB8105BD
:108AF000491CAB601C29F9DB401C3028F0DB70BD41
:108B0000B44B00200C5803006068CC002DE9F04104
:108B1000FEF740F8C0B2502803D90E204FF47F4131
:108B200003E024493C2804D90B200022224D1C24B8
:108B30000BE0282801D90920F7E74FF44801142851
:108B400001D90620F1E70320EFE7C2EBC2061B23A1
:108B500005EB0617564204EB460606E007EB830CCE
:108B60000CF5805C5B1ECCF858169E4201DC002B95
:108B7000F4DA521C8242E8DB0023424204EB420456
:108B80001B221E18C6EBC60605EB061607E000BF43
:108B900006EB820707F58057521EC7F85816944215
:108BA00001DC002AF4DA5B1C0C2BE9DB0F30BDE89A
:108BB000F081000000156400B44B0020FFB5134A9B
:108BC000134D6C460FCA8DE80F00002000EB4001EA
:108BD0008A00411C01EB410C11E0C2EBC20305EB22
:108BE000031754F82030002107EB8106491CB360BD
:108BF00006F580561C29C6F80835F5DB521CB2EB89
:108C00008C0FEADB401C0428E0DBFFBD146003008E
:108C1000B44B002070B52E4B2E4A012831D00228CB
:108C20002ED100214FF47F05C1EBC104002003EBDE
:108C3000041400BF04EB800606F58056401CC6F8FD
:108C400008550E28F6DB491C3029EDDB0021C1EB6D
:108C5000C1000E2403EB001505EB840606F58050D9
:108C600006F50056C0F80825C0F8482AC0F8882F35
:108C7000641CC6F8C8241C2CEEDB491C0629E6DB64
:108C800070BD154D0021C1EBC1040E2003EB04148F
:108C900004EB8006401CB5601C28F9DB491C302918
:108CA000F1DB0021C1EBC100002403EB001500BF84
:108CB00005EB8400641C8260C0F84825C0F8882A4F
:108CC000C0F8C82F0E2CF3DB491C0629EADB70BD67
:108CD000B44B00200037FF006480FF0070B52E4BBE
:108CE0002E4A012831D002282ED100214FF47F05D1
:108CF000C1EBC1040E2003EB041400BF04EB80069B
:108D000006F58056401CC6F808551C28F6DB491CA1
:108D10003029EDDB0021C1EBC100002403EB00157D
:108D200005EB840606F5805006F50056C0F80825C8
:108D3000C0F8482AC0F8882F641CC6F8C8240E2C36
:108D4000EEDB491C0629E6DB70BD154D0021C1EBA9
:108D5000C104002003EB041404EB8006401CB56042
:108D60000E28F9DB491C3029F1DB0021C1EBC100E1
:108D70000E2403EB001500BF05EB8400641C826029
:108D8000C0F84825C0F8882AC0F8C82F1C2CF3DB8F
:108D9000491C0629EADB70BDB44B00200037FF00F8
:108DA0006480FF0010B54FF4A85421460748FDF732
:108DB00050FB21460648FDF74CFB0024E0B2FFF7CC
:108DC00033FD641C032CF9DB10BD0000BC4B0020FC
:108DD000BC60002010B5FFF7E5FF002400E024B9D7
:108DE0003221204601F082F801246421204601F05E
:108DF0007DF8641C032CF2DB10BD00002DE9F04F60
:108E00008FB0FEF79DF846094FF4FA609FED6B0AAC
:108E1000B6FBF0F100FB116000EE900A684DDFF840
:108E2000A491F8EE600A80EE801AFCEEC10A10EE02
:108E3000900A84B2287850B3302C00D32F24624893
:108E400001888C4214D04168711A00EE901AF8EE35
:108E5000600AF4EEC00AF1EE10FA09DB0480466005
:108E60002046FEF7E1F92046FEF718FAFEF7C8F9AA
:108E7000564D00240DF1200B04EB840155F8210020
:108E800002282ED005283BD0062839D08FE0504A42
:108E9000D9F800001168814201D8411A01E0C943A4
:108EA00001443229E4D34B4C1060A088FEF7BCF992
:108EB000A088FEF7F3F9FEF7A3F9A0882B2802D2C9
:108EC000401CA080D4E70120287042484FF4A854E9
:108ED00021460830FDF7BDFA21463F48FDF7B9FAB3
:108EE000C6E705EB8101D1E901010144B6FBF1F2CE
:108EF00001FB1261814253D8204601F003F956E08C
:108F000005EB81014FF0050AD1E9012700205B46FE
:108F100007EB000C9CF802C0BCF1000F11D04FF021
:108F200032081CFB08FC43F820C0401C0628EFDB7D
:108F3000D1F810C0D9F80000844505D8A0EB0C008A
:108F40000CE0A0F1010AF3E76FEA0C0C604405E0C5
:108F5000D1F810C0801A9444C1F810C09042F7D2E2
:108F60000022114653F821C06244904201D204917C
:108F700002E0491C0629F5DB049800F001005FEAD5
:108F80000008204602D001F08DF801E001F0BAF8A7
:108F900004998A450BD1B8F1000F08D0387A18B17E
:108FA000204601F07FF802E0E0B2FFF73DFC641CD0
:108FB000032CFFF661AF0FB0BDE8F08FABAA2642DD
:108FC000D4310020D42B0020E82D0020C8490020F7
:108FD00058320020B44B0020BC6000202DE9F04145
:108FE0002D4E86B07068002852D0142802D0082870
:108FF00046D04BE0142229496846FDF711FA019842
:10900000FDF7B2FFDDE90370254C8046012194F89D
:109010002600009D01F0E6F8052D04D0062D07D0AE
:10902000072D22D010E094F826100122384620E0C7
:1090300094F826100122384601F008F994F8261019
:109040000222384601F002F9154894F8261027301C
:10905000085C02281AD8FEF753F9114894F8261034
:109060002A30085CFEF70EFA10E094F82610012270
:10907000404601F0EBF894F8261002224046E1E762
:1090800006481A38D0F81E00FDF76EFF0020706009
:1090900006B0BDE8F0810000B03100201E4A00207B
:1090A000D075002010B50C46202906D80A46014686
:1090B0000248FDF7B5F90248446010BD1E4A002081
:1090C000B031002000B5114885B00023D0F8E10090
:1090D000CDF801000E481A4600788DF800000B48C4
:1090E00010F8301F8DF809108189ADF80A10C18978
:1090F000ADF80C10018AADF80E10408AADF81000E2
:1091000012216846FEF72AFB05B000BDD07500208D
:10911000044A00202DE9F04FF74997B0086800286D
:1091200073D0F74DF54C80B2B5F942200126F54FCA
:109130004FF0000A022820D0032867D0DFF8C89338
:109140000DF1040B05F14608042873D049460528A3
:10915000097870D006286FD008286ED009286DD005
:109160000A286CD00B286BD00C286AD00F2869D045
:10917000102868D0122867D058E2208844F652336D
:10918000C11A98423CD01DDC43F24232A0EB0201EE
:1091900090426AD00BDC00F6BE70B0F5804064D01F
:1091A000B0F5807F61D0B0F5007FE5D15DE0B1F52D
:1091B000805F2ED001F2F671B1F500511BD003296A
:1091C000DAD115E0B1F5407F18D008DCF0293ED0A7
:1091D000A1F50071FA390FD00329CDD106E0B1F520
:1091E0007C7F14D0B1F5FE6FC6D118E0002100E0FD
:1091F0000121002006E00121012003E0002100E020
:109200000121022005F022F910E2E8E040E02E639F
:1092100001E0C5F830A03E60FDF7CEFA06E2BBA142
:1092200001A801F043FD286B78B14F208DF80500AF
:10923000092105E14CE007E1BEE2D9E206E33EE3A5
:10924000CAE3CAE3CAE3CAE3CAE34320EEE7FDF791
:10925000A1FC0246401C01D0AFA1BDE0B1A1DCE001
:1092600001A8FDF701F981B2EAE0B0A00068009022
:10927000AFA000680790607830381DF8001085F8BE
:10928000A41007A9085C68633E60FDF713FDCDE1FB
:1092900020784228B8D05A28B6D16078A478A0F1B6
:1092A00030083C22A34907A8303CFDF7B9F804EB8D
:1092B000840107AA08EB880002EB410105EB40009E
:1092C0000A6840F8B22F4A68426009890181ECE2DD
:1092D0002078422802D160784D2809D00322214607
:1092E00095A0FDF7D6F8A0B12078542827D02CE01F
:1092F000A178052973D801EB410105EB810101F14A
:109300008802E0788431FEF75BFB3E60FEF7ECFB01
:109310008CE1E078312804D0302805D03F2806D0F1
:1093200084E185F8E060C0E285F8E0A0BDE295F850
:10933000E000012801D081A16FE082A16DE060789A
:10934000462802D1A0784D2825D0E178206861F325
:109350001F607E49401847D07D49401861D07D4943
:10936000401831D07C49C84291D17C48817A432948
:1093700045D0008B90B3020BC0F30323C0F303105E
:10938000012845D90A283CD002283CD004287FF483
:1093900067AF73A138E0E078302802D0312803D0DD
:1093A00004E085F8E8A001E085F8E86095F8E82099
:1093B0006EA101A801F07AFC01A8FDF755F881B271
:1093C00001A8FDF715FB70E26A480268B2F1CC3FD4
:1093D00006D0501C06D068A101A8D2E11FE0FCE332
:1093E00068A11AE06AA118E01A200090032340F255
:1093F000EA726AA101A801F059FC0A2120E06BA1E0
:109400000BE06CA100E06EA101A801F04FFC27E782
:10941000012A01D86DA100E06FA101A875E371A137
:10942000FBE799F8000002289ED170A101A801F085
:109430003DFC0E2241460BF10400FCF7F1FF122126
:1094400001A8FDF7D5FADEE3207846281CD066286F
:1094500033D0E3782068DFF89CC163F31F60664B6C
:10946000A0EB0C0860451B6841D041DCDFF88CC1E3
:10947000A0EB0C0260453CD02FDC614AD042E2D127
:109480002079312836D052E107AB08AA6946204638
:1094900009F0A4FA089810B11F2802D006E00222B1
:1094A00000E001220099079800F0B4FE009806E061
:1094B00001280AD0022804D10AE060783038002858
:1094C000F6D1022089F8010004E089F801A001E04A
:1094D00089F80160FEF7E8FB95E34A481018B2D01E
:1094E000494AD042AFD12079482804D0DCE04BE192
:1094F0008CE09CE00CE1C0E048320020847B00203E
:10950000D0750020A82C002014320020423F3A25BC
:109510002B30366400000000424C3A253033750091
:1095200000000000424C3A4E2F4100001718181856
:109530000404000138600300505542005055423089
:10954000000000005055423100000000AABAADB73B
:1095500002F3FEF9120626FCEC06DBFF044A0020AB
:1095600052552D5625642E256400000054464D2D7D
:1095700025750000B0310020424C2D523A25303381
:1095800075000000424C2D523A4C69746500000091
:10959000424C2D523A4E4100000000002530346408
:1095A0002D253032642D253032640000524C2D566A
:1095B000302E3500524E35312D5625642E2564004F
:1095C000524E35322D5625642E256400524E3531CB
:1095D0002D56322E35000000524E35322D56312E8A
:1095E00033000000554E4B524D5400004652534E2E
:1095F00000000000545245530032002054504149AD
:10960000ACBDADBA060BEDFFFAF200FBF54818EB66
:1096100000007BD0B0F57E4F1CD0F34A801857D0A5
:10962000F24AD04202D120795A2870D0EBE2207958
:109630005228FBD1022901D0042BF7D1ECA15846C6
:1096400001F034FB01A8FCF70FFF81B201A8FDF780
:10965000CFF9EFE220795428E8D10529E6D1E6498F
:109660005846C1F800A0E5A101F020FB052101A8A2
:10967000FDF7BEF9FEF7BCFBC5E20229D6D1E1A198
:10968000584601F013FB55F8460F029068680390A6
:109690002889ADF810008DF812A001A8FCF7E4FEAF
:1096A00081B201A8FDF7A4F920794C28BED199F820
:1096B00000000228BAD1D5A101A801F0F7FA0A22C8
:1096C000D4490BF10400FCF7ABFE8DF812A0C7E5FE
:1096D00020795428AAD1022901D0042BA6D1CEA1E9
:1096E000584601F0E3FA01A8FCF7BEFE81B201A8DA
:1096F000FDF77EF9CA4E64254FF47A47741C38464C
:10970000A0476D1EFAD1FEF7F9FA7CE232E023E0C1
:1097100002298BD1C3A1584601F0C8FA01A8FCF771
:10972000A3FE81B201A8FDF763F92E633E602079A4
:109730003028A1D199F8000002289DD1BBA101A831
:1097400001F0B4FA01A8FCF78FFE81B201A8FDF781
:109750004FF9C5F830A0A8E002298DD1B5F9400035
:109760000090B5F93E30B5F93C20B2A1584601F061
:109770009DFA75E520794828C7D10229C5D1B3A142
:10978000584601F093FA6BE520795428BDD102299F
:10979000BBD1B1A1584601F089FA01A8FCF764FEDB
:1097A00081B201A8FDF724F96421C5F830A0A9878A
:1097B0005046A5F83EA015E296484FF00602303814
:1097C0000529214603D0FCF771FE68B11BE2FCF7C6
:1097D0006DFE30B120682862A088A8843E60FEF744
:1097E000A1FA01F04FFA0EE28349C1F800A0F8E7B0
:1097F0002078582804D1601CFCF767FEA8873E60DB
:109800002078592804D1601CFCF75FFEE8873E6091
:1098100020785A2805D1601CFCF757FEA5F84000B7
:109820003E602078542805D1601CFCF74EFEA5F858
:1098300042003E600822214689A0FCF72AFE00284B
:10984000C4D1FFF7AFFAFEF7C9F9DCE109222146DE
:1098500086A0FCF71EFE60B10922214686A0FCF717
:1098600018FE70B1082221467DA0FCF712FE78B1E7
:10987000C9E199F800000428A8D100BFFEF76CFAEE
:10988000C1E199F800000528A0D1FEF74BFABAE132
:10989000207A312804D0302805D03F2807D0B2E103
:1098A00085F8E66001E085F8E6A03E60ABE195F85A
:1098B000E600012801D073A1AFE575A1ADE5062250
:1098C000214676A0FCF7E5FD18B1207841280ED09E
:1098D00099E15048D4F806105038C0F8E1107149A9
:1098E00085F8E56002203E6008706FA195E560781C
:1098F0004E2870D1A07843286DD1E178627961F368
:109900000700884621790892A27961F30F2062F35B
:10991000174083463F48503800F12A032730079309
:10992000009062B1921CD0B25C4660F317440728E5
:1099300045D26FF07F4081B31F2937D03FE0E079F7
:10994000227A000400EB0220627A104411B11F2930
:1099500011D034E044460222214600F05BFC04EBC7
:10996000440005EB800188310898FEF771F84FEA52
:109970001B4107980FE044460122214600F04AFCB3
:1099800004EB440005EB800184310898FEF760F891
:1099900000984FEA1B41215410E0FFE745460222A0
:1099A000294600F037FC210C079806E045460122C5
:1099B000294600F02FFC0098210C29543E605FEAF4
:1099C00008003FF47EAD01283FF47FADB8F1020FEF
:1099D0003FF472AD75E516E16EE099E0BAE0DDE0C6
:1099E00003E10000000BF3FE00F409FF0001F0FBAF
:1099F0004650414952000000383200204645535439
:109A00005400000046534E480000000046534E4CA0
:109A10000000000020760020465348555400000006
:109A20003060030046425245310000004642524534
:109A300030000000465258595A252B303464252BEB
:109A4000303464252B303464000000004647525403
:109A500048252B3036640000465245535400000020
:109A6000504F5745524F4646000000005041495262
:109A7000494E472D5900000050414952494E472D4B
:109A80004E000000504F5745524F464630000000F0
:109A9000504F5745524F4646310000004E455449FD
:109AA000442000000C2E00204E4554494420636899
:109AB000616E6765640000000B22214660A0FCF720
:109AC000E8FC30B10B22214660A0FCF7E2FC58B163
:109AD00099E062496048D1F80110C0F8E11085F8BA
:109AE000E5A05FA13E6098E485F817A05FF0000450
:109AF00004EBC4002844FF220821401DFCF7A2FC0F
:109B0000641C022CF4DB5AA187E401F0CFF87EE458
:109B10002078542877D16078472874D1A0785728C6
:109B200071D1E07854286ED1207948286BD1022970
:109B300069D154A1584601F0B9F801A8FCF794FC8A
:109B400081B201A8FCF754FF601DFCF7BEFCA5F82C
:109B50004200AAE6207842281ED000226178002028
:109B6000303901EB810105EB410100BF04EB4005F9
:109B7000EB782D79303B03EB8303303D05EB43035A
:109B80000D18401C85F8B4303E600628EEDB81F8E5
:109B9000BA203EA15846B8E70122DFE720785428D2
:109BA00031D1607847282ED1A07857282BD10229AF
:109BB00029D13CA1584601F079F801A8FCF754FCE2
:109BC00081B201A8FCF714FFE01CFCF77EFCA8871B
:109BD000E01DFCF77AFCE88700E017E004F10B00D9
:109BE000FCF773FCA5F840005FE6207854280AD102
:109BF0006078572807D1A078532804D1E0784E2800
:109C000001D1022905D02949C1F800A017B0BDE84B
:109C1000F08F27A1584601F049F801A8FCF724FC71
:109C200081B201A8FCF7E4FE0E22211D4046FCF79C
:109C3000F7FB3E60FFF7B6F81F4806601EE600001F
:109C40004E455449442052455345540044454C2008
:109C500052454D4F54455300D07500200834002024
:109C60004E4554494420726573657400000000003D
:109C700052656D6F7465732064656C657465642EE0
:109C800000000000464757544800000042757A7AA9
:109C900065722074696D65206368616E6765642E06
:109CA0000000000046475700000000004832002036
:109CB0004657534E0000000000320020074A084873
:109CC00091680068814201D8411A01E0C94301440A
:109CD000B1F57A6F00D3906000F02ABFA431002064
:109CE000D42B00202DE9F04F3F4D404FDFF800818D
:109CF0002868002493B0012810D13868372803D38E
:109D000098F80000052808D03A4800F07FF83A4853
:109D10000168012901D1022101602C60FFF75EF981
:109D2000364E307800285CD04FF0010AE946DFF863
:109D3000D0B050E09DF8010010B101284BD141E0B6
:109D40009DF800101A2904D0202910D0042929D008
:109D500033E09DF9020038601A2209F10501254817
:109D6000FCF75EFBC5F800A0C8F8044033E02022F1
:109D700009F105010AA8FCF753FB09220DA92148A6
:109D8000FCF74EFB20491F48001FC1F800A0DDF87A
:109D90003D1040F80D1FDDF8411041609DF8451061
:109DA000017218E01748001F90F8E600012812D150
:109DB000FEF7F8FFFDF712FF0DE0142905D0082982
:109DC00009D102E09DF80010F7E78BF8004009F197
:109DD0000500FFF767F9684605F0EEFB0028A9D0FB
:109DE000347013B0BDE8F08FB8310020BC310020D2
:109DF00014320020044A0020003200207D2C002074
:109E00000C2E0020D4750020A82C00202DE9F04154
:109E1000314E0546DFF8C48030780027012404283D
:109E200034D0052856D198F81610C8F81C104046B2
:109E300001EBC10101442A684A606A688A602A7A93
:109E40000A73A97A98F81C20432998F8171004FA85
:109E500002F206D09143C175AA7A2149432A02D061
:109E60000AE01143F7E71F4B1C4AD3F80130C2F850
:109E7000E13080F8E5700C60827D521CD2B28275B0
:109E8000022A00D387750C60FDF74CFF687A4C28D6
:109E900006D04F2802D0522806D103E0B77003E065
:109EA000B47001E00220B070A87A4B280CD04E2884
:109EB00008D0432802D00C49E87A0860BDE8F04198
:109EC000FDF712BEF770F6E7D8F830000128F2D19E
:109ED000F470F0E7BDE8F08114320020D075002066
:109EE000A82C002008340020B03100202DE9F041DA
:109EF0000F46064604F06AFA05461348C6EBC6014B
:109F000000EB8104606801280AD1304600F05CF95A
:109F100030B1AAB2217A0D4801F0C4F91128F8D065
:109F2000606802280AD1304600F04EF930B1064A86
:109F30000020383AA168526822F81100044840F81D
:109F40002670BDE8F0810000202C0020283003009E
:109F5000984900202DE9F04F85B000244FF0FF31E3
:109F600000910191CDE90340DFF8008126462746A4
:109F700025460DF108094FF0010AA8F10C0B00BFAE
:109F8000C5EBC50108EB8100416821B1012909D069
:109F900002291BD02BE0D0E905320169C068FDF72A
:109FA000DDFC21E0039A0169761C4DF8221040691E
:109FB00028B1039901F80940039820B114E0039AED
:109FC00002F809A0F8E7CDF80CA00DE0042F0BD2A1
:109FD0008368017C7F1C0BF803104069012803D1C2
:109FE00041F080000BF80300214840F825406D1C2B
:109FF000032DC5DB1D4D383DAC60EC602C61F6B126
:10A00000012E02D0022E08D019E00022694619481C
:10A0100001F082FA002211460BE000226946154841
:10A0200001F07AFA00221146124801F03BF90022B1
:10A030000121104801F036F90E4801F031FA002FE5
:10A0400011D00A490C4A0C39A1F1180006F0EEFAB9
:10A0500018B10AA28E21FCF7DDF8287840F0010043
:10A06000287000F045FA05B0BDE8F08F202C0020E4
:10A070009849002028300300DD1503002E2E5C2EA9
:10A080002E5C2E2E5C2E2E5C2E2E5C2E2E5C2E2E0A
:10A090005C2E2E5C2E2E5C2E2E5C4C4C5F50574D51
:10A0A0002E63000070B5054600F08EF8002815D02C
:10A0B0001248C5EBC50100EB8104104E6068383EC4
:10A0C00001280CD0022812D00C3494E80700FDF7C8
:10A0D0006BFC0120B168A8408143B16070BD217A5A
:10A0E0000022074801F0DEF81128F8D0F1E7A16856
:10A0F0007268002022F81100EBE70000202C0020FD
:10A10000283003002DE9F04104461B4850F8241084
:10A11000204604F05BF90746204600F047F8002887
:10A120001AD01648C4EBC40100EB8106134D01227E
:10A13000383D706802FA04F401280FD0022815D0C7
:10A1400070698243D6E90301FDF72EFCE868A0435D
:10A15000E860A8680443AC60BDE8F081BAB2317A27
:10A16000074801F09FF81128F8D0F2E7B1686A6853
:10A17000002022F81100ECE798490020202C002054
:10A180002830030010B5074801F090FA064C2078FB
:10A19000C00703D004F1140006F0ECFA0020207090
:10A1A00010BD000028300300E82B0020054A0121E3
:10A1B000814092681140C14001D0002070470120C9
:10A1C00070470000E82B0020054A01218140926879
:10A1D0001140C140012901D0002070470120704783
:10A1E000E82B0020094A00EB400012682AB1084A17
:10A1F00002EB800050F821007047054AEC3A02EB70
:10A20000800000EB8100C06D704700002432002008
:10A21000BC760020074B01EB410103EB810101EB10
:10A220008201C865044901200860044900200860D3
:10A2300070470000D0750020A82C00202432002098
:10A24000014900200860704724320020054B01EBD3
:10A25000410103EB810141F822000349012008601C
:10A2600070470000BC760020243200202DE9F04128
:10A270001D480068012801D0022804D103F018FF0E
:10A2800008B103F0C5FE00221B211046FDF78CFB30
:10A29000002205211046FDF787FB00231A461521F1
:10A2A0001846FDF72FFB00221E211046FDF77CFB10
:10A2B000FEF778FD03F0FCFE80B90C4D00244FF44E
:10A2C0007A4640F6A42700BF03F0F2FE30B9691CBD
:10A2D00030468847641CA4B2BC42F5D3FFF752FF56
:10A2E000BDE8F041FEF7CCB9A82C00209060030037
:10A2F00033DF70472DE9F843414C42480427217869
:10A3000000780025404E4FF00508072946D2DFE8C7
:10A3100001F0040F161F38476200052801D0012004
:10A3200000E0002003F09CFABDE8F843FEF7CABE47
:10A33000012003F0F1FAFF2008F010FA05E00120F7
:10A3400003F0EAFAFF2008F0DDF9FCF70BFD16E058
:10A35000012003F0E1FA4FF00008FCF7EBFD0026C6
:10A360004FF4FA790095484605F07EFF01234246F6
:10A3700004216846FDF7F2F9761C0F2EF3DB2770F7
:10A3800027E0A068401CA0606168491C6160032848
:10A3900004D384F80080A5603068E060BDE8F883ED
:10A3A000A168491CA160052801D0012000E000201F
:10A3B00003F056FAFEF786FEE0683168884201D85D
:10A3C000081A01E0C043084410498842E6D3062039
:10A3D0002070A560E2E7A068401CA060012003F0A7
:10A3E0009BFAFF2008F08EF9FCF7BCFCA06800285F
:10A3F000D4D084F800803068C4E90250CEE7000071
:10A400000C2E002014320020D42B0020C02709007D
:10A410002DE9F04102680446002A28D06368501EE6
:10A420002D4D53F820104FF004064F1D12D011F19E
:10A43000040F4FF008071CD011F1030F29D08A1C1C
:10A4400030D0481C39D08847012810D12068401CE2
:10A4500020603BE006EB800029681B58E0688842DA
:10A4600001D8081A01E0C0430844984217D2BDE859
:10A47000F08106EB80010C225E5807EB800102EBB5
:10A48000800059581A58304600F028F82068001DFE
:10A49000DEE706EB8000185800680028E7D1921C20
:10A4A000226013E006EB800107EB800059581A5830
:10A4B0002046BDE8F04100F011B8A0684FF001015E
:10A4C000421C02D028B1401EA06021602868E060D4
:10A4D000CDE700202060CAE7D42B0020012308C06C
:10A4E000024B1B6880E80E0070470000D42B002050
:10A4F00054210148FBF7ADBF4434002070B54FF440
:10A500008076304604F018FF114CB50560B1304636
:10A5100004F019FF0120C5F80803607920B9012073
:10A5200060712168002088474FF48276304604F03D
:10A5300003FF00280AD0304604F005FF0220C5F8CA
:10A5400008032168BDE870400120084770BD000085
:10A550000C3300200149024804F06AB8607D0020F5
:10A5600000C001400149024804F062B8687D002043
:10A57000001002400149024804F05AB8707D0020E2
:10A580000020024010B504F061FF02480021017074
:10A59000416010BD7C2C002070B5144CD4F8000133
:10A5A000002628B1D4F80403C00701D0C4F8006124
:10A5B000D4F80C010E4D40B1D4F80403000704D5C3
:10A5C000C4F80C61286900B18047D4F81001002854
:10A5D0000BD0D4F80403C00607D5C4F81061E868AE
:10A5E000002802D0BDE87040004770BD0010004058
:10A5F000A433002002490248091F0968006808477F
:10A60000503300202DE9FE434FF48278404605F098
:10A61000F9FB4C4F00254C4C012600B3404605F099
:10A62000F9FB94F82E0010B194F82F10D1B18DF8E9
:10A630000050616801912189ADF80810E26832B1DB
:10A64000218B618362602181E56010B102E0257495
:10A6500000E03E6021686846884784F82F5094F8EF
:10A660002E0060B34FF48077384605F0CBFB30B353
:10A67000384605F0CFFB628B94F82D108A420AD938
:10A68000A2EB010080B260832289A2EB0000626825
:10A6900002EB400005E007D1E06828B184F82F60A4
:10A6A000658305F09DFB04E08A4202D184F82F60A7
:10A6B0006583404605F0AEFB2248001D06604FF45E
:10A6C0008877384605F09EFB48B1384605F0A2FB76
:10A6D000257402208DF800002168684688474FF4F1
:10A6E0008A77384605F08EFB28B1384605F092FB94
:10A6F0002574BDE8FE834FF000484FF48C796769FC
:10A700001DE000BFB7FA87F028FA00F109EB8005D9
:10A710008F43284605F076FB88B1284605F07AFB82
:10A72000A5F58C75E8088DF8040045F38000401C01
:10A730008DF800608DF80500216868468847002F75
:10A74000E0D1D6E700700040307D00207CB5144C8D
:10A75000606A01902078002821D0012000F0C7FA1B
:10A76000656800266660012000F0D2FAE1690029E0
:10A7700015D0E80703D08DF8006068468847A80721
:10A7800005D501208DF80000E16968468847680713
:10A7900005D502208DF80000E169684688477CBD38
:10A7A000A433002005F05CBCF0B5A149A1484FF0EE
:10A7B00080540B68D4F830210078D4F83411551C3B
:10A7C000C0F3031006D0944601270026BCF1060F03
:10A7D00003D00AE003F0FF0CF6E7B4F82453DFF8E7
:10A7E00058C2C5F30425CCF80050DDB2062D06D1C1
:10A7F000032804D1DFF848C2904DCCF87450551CA2
:10A8000004D09446BCF1060F03D00AE003F0FF0C1D
:10A81000F8E7D4F84452DFF82CC2C5F34235CCF83F
:10A820000050DDB2062D08D1032806D1864DD5F89B
:10A8300000C02CF0807CC5F800C0551C04D09446A4
:10A84000BCF1060F03D00BE003F0FF0CF8E74FF06C
:10A850008045C5F80C61C5F810617A4D2D1F2E603A
:10A86000DDB2062D08D1032806D1DFF8D8C10325B3
:10A870000CF1640CCCF80050DDB2062D10D1032889
:10A880000ED1DFF8C8C10525CCF800506F4D7835E2
:10A890002F606E4D08352E600CF104063F253560A3
:10A8A000551C04D016460D46062E03D05BE0DEB2E2
:10A8B0000546F9E7ED1E012D55D9654D2D68654E0C
:10A8C0003560634D2D1D2D68361D3560604D083592
:10A8D0002D68361D35605E4D0C352D68361D356092
:10A8E0005B4D10352D68361D3560594D14352D687A
:10A8F000361D3560564D18352D68564E203635605C
:10A90000534D1C352D68361D3560514D20352D6851
:10A91000361D35604E4D24352D68361D35604C4D45
:10A9200028352D68361D3560494D2C352D68361D6E
:10A930003560474D30352D68464E40363560444DC4
:10A9400034352D68361D3560414D38352D68361D3E
:10A9500035603F4D3C352D68361D35603C4D4035EA
:10A960002D68361D3560551C03D01646062E02D0C4
:10A9700007E0DEB2FAE7D4F85852374E05F04F053B
:10A980003560551C03D01346062B02D008E0DBB21D
:10A99000FAE732480368DB0702D06FF00103036077
:10A9A000062A07D1C91E022904D92D48016841F49D
:10A9B0008061016024487438016841F470010160CD
:10A9C000BFF34F8FBFF36F8FD4E94C104FF01022BD
:10A9D000062907D1C01E032804D9D2F80802194954
:10A9E0001C310860D2F80C02C0071DD0012006F00F
:10A9F000FFF8D2F80C0220F00100C2F80C0219484E
:10AA000001680029FCD0002006F0F2F8BFF34F8F58
:10AA10000D48F0380168144A01F4E0611143016007
:10AA2000BFF34F8F00BFFDE7114910480860F0BD2C
:10AA3000E00F00F0E80F00F0403501400DF0ADBA36
:10AA400000C007403C050040FCED00E0105600400F
:10AA50000404001020C50040E40E00400004004043
:10AA60003C17004000E401400400FA050090D003C8
:10AA7000EC3300202DE9F047104E042700244FF45A
:10AA8000A0784FF4803900BF08EB840509FA04F080
:10AA9000715961B1D6F80413014208D029463046F5
:10AAA00005F095FB0648D0E9002128469047641C34
:10AAB000E4B2BC42E8D3BDE8F0870000009000405B
:10AAC000787D00200748D0F84011002909D00021E6
:10AAD000C0F8401104484078032802D103490120FE
:10AAE0000861704700A00140A4330020001000401E
:10AAF00000214A1E0160C0E90112C16070470000D8
:10AB00001CB50A4966208DF8000091F826108DF8D2
:10AB1000040030318DF801108DF802008DF803002B
:10AB200005216846FBF764FF1CBD0000D0750020BE
:10AB3000F0B5514D87B0296800297CD04F48006896
:10AB4000814201D8411A01E0C9430144322972D33C
:10AB5000401E40F001004A4A286000266B6892F8C7
:10AB6000271092F8280092F8294037460D2B61D221
:10AB7000DFE803F0070F18293238434547434547BC
:10AB80005D0000261F27022901D800240FE08C1E3B
:10AB90000DE0002692F82A003746022829D98C1E9B
:10ABA000022105E001261F270228EED9841E01217B
:10ABB0003046FFF717FB0090E3B23A46314601A852
:10ABC00006F0E0FA4DE02E490126002791F82B10FF
:10ABD00002290ED9841EE3E702261F27022CD4D9AE
:10ABE000A41EE4E726480226002790F82C0002283D
:10ABF00001D80024D4E7A41ED2E7002002E00120FF
:10AC000000E0022042218DF804104D218DF805103E
:10AC10008DF80600092B10D200EB40001F2102EB3B
:10AC200080008DF80710D0F884000EE003E0FFF7F5
:10AC300067FF17E02F6007B0F0BD00EB400002EBAC
:10AC400080008DF80770D0F8880005AA06A9FCF7E7
:10AC500025FE9DF818008DF808009DF814008DF869
:10AC600009000626314601A8FBF7C2FE0028E2D102
:10AC70006868401C6860DEE7A4310020D42B002007
:10AC8000D075002004480068401E40F001010348D0
:10AC90000160002141607047D42B0020A4310020C6
:10ACA0000148006800470000143300200FB4084B2F
:10ACB00010B504A902AA039800F07AF8044602A984
:10ACC000002000F016FA204610BC5DF814FB0000CE
:10ACD000F3B00200002809DB00F01F0201219140BF
:10ACE0004009800000F1E020C0F880127047002881
:10ACF0000DDB00F01F02012191404009800000F1AE
:10AD0000E020C0F88011BFF34F8FBFF36F8F704703
:10AD1000002809DB00F01F0201219140400980005A
:10AD200000F1E020C0F800117047002809DB00F0B6
:10AD30001F02012191404009800000F1E020C0F88D
:10AD4000001270474907090E002804DB00F1E020DB
:10AD500080F80014704700F00F0000F1E02080F848
:10AD6000141D704700487047F033002002E008C807
:10AD7000121F08C1002AFAD170477047002001E075
:10AD800001C1121F002AFBD17047000001212028B9
:10AD900003DA81400548014003E0402802DA203808
:10ADA000814009B10120704700207047FC06FFBDBB
:10ADB0002DE9FF4F8BB088460546002606E0252882
:10ADC0000BD0DDE90D1290476D1C761C2878002809
:10ADD000F5D10FB03046BDE8F08F0024A146A24661
:10ADE0000122AE4900E0044315F8013F203B02FA7E
:10ADF00003F00842F7D128782A2810D06FF02F02EC
:10AE00002878A0F13001092915D809EB890102EB56
:10AE1000410144F0020400EB01096D1CF0E758F811
:10AE2000041B5FEA010903D544F40054C9F1000989
:10AE300044F002046D1C28782E2817D115F8010F54
:10AE400044F004042A280ED06FF02F022878A0F1D5
:10AE5000300109290AD80AEB8A0102EB410100EB13
:10AE6000010A6D1CF2E758F804AB6D1C28786C28B9
:10AE70000FD006DC4C2817D068280DD06A2814D1D2
:10AE800004E0742810D07A280FD10DE044F40014A7
:10AE90000AE044F4801401E044F4401469788142EB
:10AEA00002D104F580146D1C6D1C2878692865D0CA
:10AEB00006DC00288DD0632827D0642806D15DE009
:10AEC0006E2808D073282AD0752877D0DDE90D12B6
:10AED0009047761CE0E0C4F30250022809D0032812
:10AEE0000DD0D8F8001004280DD00E6008F1040829
:10AEF000D2E0D8F80010F217C1E90062F6E7D8F8FE
:10AF000000100E80F2E70E70F0E718F8041B8DF8C1
:10AF1000001000208DF80100EB46012003E058F8F6
:10AF200004BB4FF0FF3061074FF0000701D40AE087
:10AF30007F1C57450DDA8742FADB1BF80710002902
:10AF4000F6D106E07F1C8742FCDB1BF807100029C6
:10AF5000F8D1DDE90D23A9EB07008146214600F079
:10AF6000B1F83044C61904E0DDE90D121BF8010BFD
:10AF700090477F1EF8D22146484688E058F8040BD7
:10AF8000C4F302514FF00A0B032900D100B2042987
:10AF900000D140B2002802DA40422D2102E0210512
:10AFA00005D52B218DF82410012104E006E0E107EE
:10AFB00010D02021F6E708AF089113E058F8040BF1
:10AFC000C4F302514FF00A0B032900D180B20429C7
:10AFD00000D1C0B20021EEE75946FBF783FA3031C9
:10AFE00007F8011D0028F7D1ADEB070000F1200B99
:10AFF000600702D524F4803401E04FF0010ADA45FD
:10B0000002DDAAEB0B0000E00020824600EB0B0102
:10B0100008980144A9EB01000A90E00306D4DDE999
:10B020000D2321460A9800F04DF806444FF0000920
:10B0300008E009A911F80900DDE90D12904709F1AE
:10B040000109761C08998945F3DBE0030CD5DDE99D
:10B050000D2321460A9800F035F8064404E0DDE9A6
:10B060000D1230209047761CBAF10001AAF1010AB6
:10B07000F5DC05E0DDE90D1217F8010B9047761CB1
:10B08000BBF10001ABF1010BF4DC0A982146DDE9CC
:10B090000D2300F005F806446D1C97E60928010011
:10B0A0002DE9F041044600251E461746880404D4C5
:10B0B00005E039462020B0476D1C641EF9D52846AE
:10B0C000BDE8F0812DE9F041044600251E4690467A
:10B0D000C80301D5302700E02027880404D505E007
:10B0E00041463846B0476D1C641EF9D52846BDE878
:10B0F000F0810A68531C0B6010707047006890FA6A
:10B10000A0F000BA00BA7047800701D00020704755
:10B1100001207047C3688B4206D811440069491E5C
:10B12000814201D8012070470020704790F8240028
:10B13000012801D01F207047EE20704710B5012272
:10B140000221002001F0D4FE08B1072810D1072207
:10B150000221012001F0CCFE08B1072808D100210E
:10B160000A22084601F0C4FE08B1072800D10020D9
:10B1700010BD000000B5ABB0AC216846FBF769F923
:10B1800002208DF8000000218DF8021006218DF8B4
:10B190000310ADF84C000E48149001208DF87C008F
:10B1A0004FF448702290B42023900A4829906946B1
:10B1B000094800F042FE20B108A240F20531FBF739
:10B1C00029F80121044800F035FE2BB000BD000035
:10B1D0005C320020090C0300147700202E2E5C2E18
:10B1E0002E5C2E2E5C6D61696E2E630030B472B6DB
:10B1F000034B1B68DB0700D000BE30BC00F002B878
:10B20000F0ED00E008B501238DF800309DF8003026
:10B21000144B186059609A606FF48041401807D051
:10B2200001280FD1DA60D86800689861D86807E013
:10B230001A6118698068586118690068986118690E
:10B240004068D861186858689868D868186958695B
:10B250009869D86972B600BF9DF800000028FBD13C
:10B2600062B608BD847D002030B542680B4C13796E
:10B27000E15C0120FF290ED0FE290DD012684FF4A9
:10B28000A86505EB81015158054A52F823209142E7
:10B2900002D1FF20E054002030BD000061330020C7
:10B2A000247E002003681B8B9BB253436422B3FBB4
:10B2B000F2F292B2AFF3008070B504460068164611
:10B2C0000D4690F8212001EB450100EB8101022A97
:10B2D00001D0082070BD4968B14205D1C16909B3E8
:10B2E0006068007988471DE02046FFF7BDFF08B180
:10B2F000112070BD61680C4AFE2009795054324615
:10B300002946204606F09EF92068C06950B1616860
:10B31000064A0220097902EB410148550221606882
:10B3200005F080FB002070BD61330020387E0020D6
:10B330002DE9F84F07688946054601EB490897F85B
:10B3400021001E46924607EB880410B10820BDE894
:10B35000F88F4FF0000B3248C4F804B0A6720068B2
:10B3600000900A22296802EB8800085C40B10020A6
:10B370008DF801006946504604F0DAFFB0B901E0EB
:10B380000120F5E747F828A04FF001084FF0A04151
:10B3900008FA0AF016B1C1F80C0501E0C1F8080579
:10B3A0000027E019083005F095F808B10420CEE731
:10B3B0007F1CFFB2022FF4D3207A05F0E3F8607A05
:10B3C00005F0E0F8206836B104F05EFF064620681C
:10B3D00005F070F805E005F06DF80646206804F009
:10B3E00053FF07464946686805F00DFB0146207A81
:10B3F000324605F0A5F80221686805F004FB014615
:10B40000607A3A4605F09CF884F80B806968054A32
:10B41000097902EB410202F809B0002097E7000029
:10B42000F8600300387E00202DE9F0470646D6E993
:10B43000007005F009FB0221706805F0ECFA97F83E
:10B44000200005F09FF800254FF001084FF0A049BB
:10B4500005EB450007EB8004E17A99B10A223168D7
:10B4600002EB8000085CA8B1207808FA00F2C9F865
:10B470000C25206804F0BAFF207A05F083F8607A82
:10B4800005F080F86D1CEDB2022DE1D387F8218024
:10B49000BDE8F087217808FA01F0C9F80805E8E767
:10B4A0002DE9F0470025DFF8689007680446A846B4
:10B4B000626805EB450007EB8006137909EB430250
:10B4C00002F80580F17A71B10A22216802EB80004E
:10B4D000085CD8B10021306804F0ACFF306804F09B
:10B4E00097FFC6F804806D1C022DE1D36168094AFC
:10B4F000FF2009795054606805F064FA606805F02F
:10B50000B1FA022087F82100BDE8F0870121E2E7C7
:10B51000387E0020613300202DE9F74F84B00E0003
:10B52000044607D0256895F8210028B1082007B007
:10B53000BDE8F08F0B20FAE703F07CFF18B18528F7
:10B5400001D00420F3E704F0E9FE20B904F0ACFEDA
:10B5500008B10320EBE75048DFF840A10021007854
:10B560004FF0010BC0F30310032821D08AF800B07C
:10B57000FF2285F82020002091464FF0FF3C00BFBD
:10B5800000EB400705EB8703401CD97283F8089055
:10B5900083F80990C0B245F827C00228F0D305F11E
:10B5A000200004F097FF30B1204605F0E3FFC8E724
:10B5B0008AF80010DCE7002756F82720501C12D02C
:10B5C000F0193946037A2046FFF7B2FE5FEA000819
:10B5D00004D0204605F0CEFF4046A8E700223946B9
:10B5E0002046FFF769FE7F1CFFB2022FE4D3002044
:10B5F00009224FF48053316901E04908401C994207
:10B6000001D39042F9D39AF8001009B100B9012092
:10B61000234AD2E90112CDE901128DF804006068D5
:10B62000204A01A900790290606805F03FFA0700FE
:10B6300004D0204605F09EFF384678E761683069FF
:10B640000968D1F81015CAB2010F0001FAF7D8FE47
:10B650000646A861606805F0B5F9CDF800B05F4610
:10B66000042332460221606805F00AFA022160686C
:10B6700005F0D1F90698E86160680B49074A00793E
:10B68000521C41F820406168097902F8019085F860
:10B69000217000204BE70000E80F00F0603300202D
:10B6A000F8600300ED150300447E002070B50468C7
:10B6B000054694F82100022801D050B102E0284646
:10B6C000FFF7B2FE284605F055FF002084F8210060
:10B6D00070BD082070BD012070470000014801F0D6
:10B6E000C6BF00003033002010B55AB100684FF0DB
:10B6F000FF3401294261C0E9024400D00021016108
:10B70000002010BD072010BD38B51148082358226D
:10B71000416800910F49006803F025FA002815D10F
:10B720000D4A69460D4801F0A7FF04000ED1012122
:10B730000A4801F0EEFF0123094A1946074801F0C3
:10B740006EFF0649012008390870204638BD000008
:10B75000DC600300B47D0020851B03003033002033
:10B76000FFFF7F00F8B50446002617460D468DF80A
:10B770000060684600F042F8D4E90201C04370EA74
:10B78000010005D09DF8000000F05CF80020F8BD35
:10B7900002F042FE40197141C4E902019DF8000027
:10B7A00000F050F8A761206900B125612146BDE88D
:10B7B000F840002007F0E0B838B5044600208DF8C6
:10B7C0000000684600F01AF8D4E90201C04370EAAC
:10B7D00001000DD04FF0FF30C4E902009DF80000D9
:10B7E00000F030F82146BDE83840012007F0C4B829
:10B7F0009DF8000000F026F8002038BD30B5EFF3CA
:10B80000108172B60D4A9468012324B10370002997
:10B8100000D162B630BD93604FF0E023D3F8805181
:10B82000074C25401560C3F88041D3F8844154602B
:10B830005A17C3F8842100220270E8E70C7E00202A
:10B84000FC06FFBD0B498A68002A11D000280FD1E1
:10B85000EFF3108072B60B684FF0E022C2F80031AF
:10B860004B68C2F8043100228A60002800D162B619
:10B87000704700000C7E0020F0B54FF08050D0F8EB
:10B880000411C1F307222949422A0AD1284A136820
:10B8900023F0010313600A6822F0010242F0807273
:10B8A0000A60D0F80401C0F3072045283AD12148A6
:10B8B000407C052838D04FF07F431F4800681E4A5F
:10B8C0001840121D12681A4090422BD11A4A0832B1
:10B8D00010681368C0B2C3F3072C13681268C3F36F
:10B8E0000747160E144A0C321368DDB21368C3F30F
:10B8F000072413681268C3F30743120E60450BD088
:10B90000B84209D0B04207D0A84205D0A04203D027
:10B91000984201D0904205D1086820F0010040F023
:10B92000807008600020F0BD044BC6E7741700402B
:10B9300050160040D83300201C1500400000FFFFC7
:10B94000400C01D0002070470120704770B50446BC
:10B9500090B0087B0D468DF83800202105A8FAF735
:10B9600078FD42F61920ADF814000120ADF818005A
:10B97000ADF81A000EA80790617C9DF82100A21D69
:10B9800061F3041040F002008DF82100A87B8DF8CF
:10B990002700687B8DF82500A08805A901F06AFBC7
:10B9A00000281CD1A968E1B10FA801F079FA064678
:10B9B00014216846FAF74DFD42F60810ADF8000074
:10B9C000E87B8DF806000FA8ADF80A60ADF80E60B0
:10B9D0000490E08804F10E02694601F0B7FD10B052
:10B9E00070BD0020E081FAE770B5FBF7D3F8164C84
:10B9F000C5B22069411921612078401CC0B2207075
:10BA00000F2808D1B1FBF0F0032801D8FBF79EF80E
:10BA10000020206120704FF6FE7229460B4800F08E
:10BA2000DFFB00280FD008280DD013280BD01128D9
:10BA300009D043F20141884205D0BDE8704004A21C
:10BA4000D321FAF7E7BB70BD30320020E07600204A
:10BA50002E2E5C2E2E5C2E2E5C6D61696E2E630088
:10BA60000A4601461046AEDF704770B51500044621
:10BA700009D00020286034B1206820B1A079800767
:10BA800003D0072070BD0E2070BD084600F08AFC70
:10BA9000C0B2142804D02179814203D8042070BD9B
:10BAA000052070BDE288216800FB0210286000209C
:10BAB00070BD2DE9FC47002517880646158090F8D3
:10BAC0002D001446894630B13A462146484600F0DA
:10BAD00099FC051E09D1B0784FF00C0A18B32088E4
